{"contracts-verify-old/RecurringPaymentERC20.sol":{"RecurringPaymentERC20":{"abi":[{"inputs":[{"internalType":"address","name":"_payer","type":"address"},{"internalType":"address","name":"_payee","type":"address"},{"internalType":"address","name":"_tokenAddress","type":"address"},{"internalType":"uint256","name":"_monthlyAmount","type":"uint256"},{"internalType":"uint256","name":"_firstMonthAmount","type":"uint256"},{"internalType":"uint256","name":"_startDate","type":"uint256"},{"internalType":"uint256","name":"_totalMonths","type":"uint256"},{"internalType":"uint256","name":"_dayOfMonth","type":"uint256"},{"internalType":"address","name":"_protocolOwner","type":"address"}],"stateMutability":"nonpayable","type":"constructor"},{"inputs":[],"name":"ReentrancyGuardReentrantCall","type":"error"},{"inputs":[{"internalType":"address","name":"token","type":"address"}],"name":"SafeERC20FailedOperation","type":"error"},{"anonymous":false,"inputs":[{"indexed":true,"internalType":"uint256","name":"monthNumber","type":"uint256"},{"indexed":true,"internalType":"address","name":"payee","type":"address"},{"indexed":false,"internalType":"uint256","name":"amount","type":"uint256"},{"indexed":false,"internalType":"uint256","name":"protocolFee","type":"uint256"},{"indexed":false,"internalType":"uint256","name":"nextPaymentDate","type":"uint256"}],"name":"MonthlyPaymentExecuted","type":"event"},{"anonymous":false,"inputs":[{"indexed":true,"internalType":"uint256","name":"monthNumber","type":"uint256"},{"indexed":true,"internalType":"address","name":"payer","type":"address"},{"indexed":false,"internalType":"string","name":"reason","type":"string"}],"name":"MonthlyPaymentFailed","type":"event"},{"anonymous":false,"inputs":[{"indexed":true,"internalType":"address","name":"payer","type":"address"},{"indexed":false,"internalType":"uint256","name":"monthsExecuted","type":"uint256"},{"indexed":false,"internalType":"uint256","name":"monthsRemaining","type":"uint256"}],"name":"RecurringPaymentCancelled","type":"event"},{"anonymous":false,"inputs":[{"indexed":true,"internalType":"address","name":"payee","type":"address"},{"indexed":false,"internalType":"uint256","name":"monthsExecuted","type":"uint256"},{"indexed":false,"internalType":"uint256","name":"totalPaid","type":"uint256"}],"name":"RecurringPaymentCompleted","type":"event"},{"anonymous":false,"inputs":[{"indexed":true,"internalType":"address","name":"payer","type":"address"},{"indexed":true,"internalType":"address","name":"payee","type":"address"},{"indexed":true,"internalType":"address","name":"tokenAddress","type":"address"},{"indexed":false,"internalType":"uint256","name":"monthlyAmount","type":"uint256"},{"indexed":false,"internalType":"uint256","name":"protocolFeePerMonth","type":"uint256"},{"indexed":false,"internalType":"uint256","name":"startDate","type":"uint256"},{"indexed":false,"internalType":"uint256","name":"totalMonths","type":"uint256"},{"indexed":false,"internalType":"uint256","name":"dayOfMonth","type":"uint256"}],"name":"RecurringPaymentCreated","type":"event"},{"inputs":[],"name":"BASIS_POINTS_DENOMINATOR","outputs":[{"internalType":"uint256","name":"","type":"uint256"}],"stateMutability":"view","type":"function"},{"inputs":[],"name":"FEE_BASIS_POINTS","outputs":[{"internalType":"uint256","name":"","type":"uint256"}],"stateMutability":"view","type":"function"},{"inputs":[],"name":"PROTOCOL_WALLET","outputs":[{"internalType":"address","name":"","type":"address"}],"stateMutability":"view","type":"function"},{"inputs":[],"name":"SECONDS_PER_MONTH","outputs":[{"internalType":"uint256","name":"","type":"uint256"}],"stateMutability":"view","type":"function"},{"inputs":[{"internalType":"address","name":"_payer","type":"address"},{"internalType":"address","name":"_payee","type":"address"},{"internalType":"uint256","name":"_monthlyAmount","type":"uint256"},{"internalType":"uint256","name":"_protocolFeePerMonth","type":"uint256"}],"name":"_executeTransfers","outputs":[],"stateMutability":"nonpayable","type":"function"},{"inputs":[],"name":"adminExecutePayment","outputs":[],"stateMutability":"nonpayable","type":"function"},{"inputs":[{"internalType":"uint256","name":"_monthlyAmount","type":"uint256"},{"internalType":"uint256","name":"_totalMonths","type":"uint256"}],"name":"calculateTotalRequired","outputs":[{"internalType":"uint256","name":"protocolFeePerMonth_","type":"uint256"},{"internalType":"uint256","name":"totalPerMonth","type":"uint256"},{"internalType":"uint256","name":"totalRequired","type":"uint256"}],"stateMutability":"pure","type":"function"},{"inputs":[],"name":"cancel","outputs":[],"stateMutability":"nonpayable","type":"function"},{"inputs":[],"name":"cancelled","outputs":[{"internalType":"bool","name":"","type":"bool"}],"stateMutability":"view","type":"function"},{"inputs":[],"name":"dayOfMonth","outputs":[{"internalType":"uint256","name":"","type":"uint256"}],"stateMutability":"view","type":"function"},{"inputs":[],"name":"executeMonthlyPayment","outputs":[],"stateMutability":"nonpayable","type":"function"},{"inputs":[],"name":"executedMonths","outputs":[{"internalType":"uint256","name":"","type":"uint256"}],"stateMutability":"view","type":"function"},{"inputs":[],"name":"firstMonthAmount","outputs":[{"internalType":"uint256","name":"","type":"uint256"}],"stateMutability":"view","type":"function"},{"inputs":[],"name":"firstProtocolFee","outputs":[{"internalType":"uint256","name":"","type":"uint256"}],"stateMutability":"view","type":"function"},{"inputs":[],"name":"getCurrentAllowance","outputs":[{"internalType":"uint256","name":"","type":"uint256"}],"stateMutability":"view","type":"function"},{"inputs":[],"name":"getPaymentDetails","outputs":[{"internalType":"address","name":"_payer","type":"address"},{"internalType":"address","name":"_payee","type":"address"},{"internalType":"address","name":"_tokenAddress","type":"address"},{"internalType":"uint256","name":"_monthlyAmount","type":"uint256"},{"internalType":"uint256","name":"_protocolFeePerMonth","type":"uint256"},{"internalType":"uint256","name":"_startDate","type":"uint256"},{"internalType":"uint256","name":"_totalMonths","type":"uint256"},{"internalType":"uint256","name":"_dayOfMonth","type":"uint256"},{"internalType":"uint256","name":"_executedMonths","type":"uint256"},{"internalType":"bool","name":"_cancelled","type":"bool"},{"internalType":"uint256","name":"_nextPaymentDate","type":"uint256"},{"internalType":"bool","name":"_canExecute","type":"bool"},{"internalType":"bool","name":"_isCompleted","type":"bool"}],"stateMutability":"view","type":"function"},{"inputs":[],"name":"getStatus","outputs":[{"internalType":"string","name":"status","type":"string"},{"internalType":"uint256","name":"monthsExecuted","type":"uint256"},{"internalType":"uint256","name":"monthsRemaining","type":"uint256"},{"internalType":"uint256","name":"amountPaid","type":"uint256"},{"internalType":"uint256","name":"monthsFailed","type":"uint256"}],"stateMutability":"view","type":"function"},{"inputs":[],"name":"isAllowanceSufficient","outputs":[{"internalType":"bool","name":"sufficient","type":"bool"},{"internalType":"uint256","name":"required","type":"uint256"},{"internalType":"uint256","name":"current","type":"uint256"}],"stateMutability":"view","type":"function"},{"inputs":[{"internalType":"uint256","name":"","type":"uint256"}],"name":"monthExecuted","outputs":[{"internalType":"bool","name":"","type":"bool"}],"stateMutability":"view","type":"function"},{"inputs":[],"name":"monthlyAmount","outputs":[{"internalType":"uint256","name":"","type":"uint256"}],"stateMutability":"view","type":"function"},{"inputs":[],"name":"nextMonthToProcess","outputs":[{"internalType":"uint256","name":"","type":"uint256"}],"stateMutability":"view","type":"function"},{"inputs":[],"name":"payee","outputs":[{"internalType":"address","name":"","type":"address"}],"stateMutability":"view","type":"function"},{"inputs":[],"name":"payer","outputs":[{"internalType":"address","name":"","type":"address"}],"stateMutability":"view","type":"function"},{"inputs":[],"name":"protocolFeePerMonth","outputs":[{"internalType":"uint256","name":"","type":"uint256"}],"stateMutability":"view","type":"function"},{"inputs":[],"name":"protocolOwner","outputs":[{"internalType":"address","name":"","type":"address"}],"stateMutability":"view","type":"function"},{"inputs":[],"name":"startDate","outputs":[{"internalType":"uint256","name":"","type":"uint256"}],"stateMutability":"view","type":"function"},{"inputs":[],"name":"timeUntilNextPayment","outputs":[{"internalType":"uint256","name":"","type":"uint256"}],"stateMutability":"view","type":"function"},{"inputs":[],"name":"tokenAddress","outputs":[{"internalType":"address","name":"","type":"address"}],"stateMutability":"view","type":"function"},{"inputs":[],"name":"totalMonths","outputs":[{"internalType":"uint256","name":"","type":"uint256"}],"stateMutability":"view","type":"function"},{"inputs":[],"name":"totalPaid","outputs":[{"internalType":"uint256","name":"","type":"uint256"}],"stateMutability":"view","type":"function"}],"evm":{"bytecode":{"linkReferences":{},"object":"60a06040523480156200001157600080fd5b5060405162001dc638038062001dc6833981016040819052620000349162000428565b60016000556001600160a01b038916620000855760405162461bcd60e51b815260206004820152600d60248201526c24b73b30b634b2103830bcb2b960991b60448201526064015b60405180910390fd5b6001600160a01b038816620000cd5760405162461bcd60e51b815260206004820152600d60248201526c496e76616c696420706179656560981b60448201526064016200007c565b6001600160a01b038716620001155760405162461bcd60e51b815260206004820152600d60248201526c24b73b30b634b2103a37b5b2b760991b60448201526064016200007c565b60008611620001675760405162461bcd60e51b815260206004820152601a60248201527f4d6f6e74686c7920616d6f756e74206d757374206265203e203000000000000060448201526064016200007c565b428411620001b85760405162461bcd60e51b815260206004820152601c60248201527f53746172742064617465206d75737420626520696e206675747572650000000060448201526064016200007c565b60018310158015620001cb5750600c8311155b620002195760405162461bcd60e51b815260206004820152601960248201527f546f74616c206d6f6e746873206d75737420626520312d31320000000000000060448201526064016200007c565b600182101580156200022c5750601c8211155b6200027a5760405162461bcd60e51b815260206004820152601960248201527f446179206f66206d6f6e7468206d75737420626520312d32380000000000000060448201526064016200007c565b6001600160a01b038116620002d25760405162461bcd60e51b815260206004820152601660248201527f496e76616c69642070726f746f636f6c206f776e65720000000000000000000060448201526064016200007c565b600180546001600160a01b03808c166001600160a01b031992831617909255600280548b841690831617905560038054928a169290911691909117905560048690556127106200032460b388620004b6565b620003309190620004e2565b6006556005859055841562000364576127106200034f60b387620004b6565b6200035b9190620004e2565b6007556200036b565b6006546007555b60088490556009839055600a8290556001600160a01b0381811660809081526000600f819055600c5560035460025460015460045460065460408051928352602083019190915281018a90526060810189905293840187905291841693908116929116907fccba8aa02e1aee0ff839b5d136f5b254a570d25e1c7c3fc0c4956ef90baa15839060a00160405180910390a450505050505050505062000505565b80516001600160a01b03811681146200042357600080fd5b919050565b60008060008060008060008060006101208a8c0312156200044857600080fd5b620004538a6200040b565b98506200046360208b016200040b565b97506200047360408b016200040b565b965060608a0151955060808a0151945060a08a0151935060c08a0151925060e08a01519150620004a76101008b016200040b565b90509295985092959850929598565b8082028115828204841417620004dc57634e487b7160e01b600052601160045260246000fd5b92915050565b6000826200050057634e487b7160e01b600052601260045260246000fd5b500490565b60805161189e62000528600039600081816103060152610466015261189e6000f3fe608060405234801561001057600080fd5b506004361061016a5760003560e01c806303f7a68c1461016f5780630b97bc861461018a5780630d3e50fc1461019357806310786deb1461019d578063123119cd146101a7578063247b76f1146101c757806326446c92146101d057806328603738146101d95780633974eb80146101e25780633fb0d6ff146101f557806347d0cdcc146102285780634a85ed20146102305780634e69d560146102525780636588439c1461026b578063767edb63146102745780638d47b6201461028f5780639a82a09a146102b45780639d76ea58146102c1578063a525ad3c146102d4578063ae90b213146102dc578063b2077152146102ef578063bfcb3cb7146102f8578063c1d6ba6914610301578063c3cd31c714610328578063c92ae95914610331578063cfa498a3146103b0578063e2025b20146103b9578063e7b0f666146103c1578063ea8a1af0146103ca578063eed85390146103d2575b600080fd5b6101776103db565b6040519081526020015b60405180910390f35b61017760085481565b61019b61045b565b005b61017762278d0081565b6001546101ba906001600160a01b031681565b6040516101819190611500565b610177600f5481565b61017760055481565b610177600a5481565b61019b6101f0366004611530565b6104d1565b610218610203366004611572565b600e6020526000908152604090205460ff1681565b6040519015158152602001610181565b61019b61055a565b61024361023e36600461158b565b610d76565b604051610181939291906115ad565b61025a610db3565b604051610181959493929190611613565b61017760045481565b6101ba73a34edf91cc494450000eef08e6563062b2f115a981565b610297610f2a565b604080519315158452602084019290925290820152606001610181565b600d546102189060ff1681565b6003546101ba906001600160a01b031681565b61017760b381565b6002546101ba906001600160a01b031681565b61017760065481565b61017760075481565b6101ba7f000000000000000000000000000000000000000000000000000000000000000081565b61017760095481565b610339610fff565b604080516001600160a01b039e8f1681529c8e1660208e01529a909c16998b019990995260608a0197909752608089019590955260a088019390935260c087019190915260e0860152610100850152151561012084015261014083015215156101608201529015156101808201526101a001610181565b61017761271081565b610177611131565b610177600c5481565b61019b611197565b610177600b5481565b600354600154604051636eb1769f60e11b81526000926001600160a01b039081169263dd62ed3e926104159290911690309060040161164a565b602060405180830381865afa158015610432573d6000803e3d6000fd5b505050506040513d601f19601f820116820180604052508101906104569190611664565b905090565b336001600160a01b037f000000000000000000000000000000000000000000000000000000000000000016146104c75760405162461bcd60e51b815260206004820152600c60248201526b139bdd081c1c9bdd1bd8dbdb60a21b60448201526064015b60405180910390fd5b6104cf61055a565b565b33301461050c5760405162461bcd60e51b815260206004820152600960248201526827b7363c9039b2b63360b91b60448201526064016104be565b6003546001600160a01b0316610524818686866112ff565b8115610553576105536001600160a01b0382168673a34edf91cc494450000eef08e6563062b2f115a9856112ff565b5050505050565b61056261135f565b600d5460ff16156105a95760405162461bcd60e51b815260206004820152601160248201527014185e5b595b9d0818d85b98d95b1b1959607a1b60448201526064016104be565b6008544210156105f55760405162461bcd60e51b815260206004820152601760248201527614185e5b595b9d081b9bdd081cdd185c9d1959081e595d604a1b60448201526064016104be565b600954600f54106106485760405162461bcd60e51b815260206004820152601d60248201527f416c6c207061796d656e7420706572696f647320636f6d706c6574656400000060448201526064016104be565b600f546000818152600e602052604090205460ff16156106a85760405162461bcd60e51b815260206004820152601b60248201527a151a1a5cc81b5bdb9d1a08185b1c9958591e48195e1958dd5d1959602a1b60448201526064016104be565b60006106b762278d0083611693565b6008546106c491906116b0565b9050804210156107135760405162461bcd60e51b815260206004820152601a602482015279151bdbc819585c9b1e48199bdc881d1a1a5cc81c185e5b595b9d60321b60448201526064016104be565b60008215801561072557506000600554115b61073157600454610735565b6005545b905060008315801561074957506000600554115b61075557600654610759565b6007545b9050600061076782846116b0565b6003546001546040516370a0823160e01b815292935083926001600160a01b03928316926370a08231926107a092911690600401611500565b602060405180830381865afa1580156107bd573d6000803e3d6000fd5b505050506040513d601f19601f820116820180604052508101906107e19190611664565b101561091357600180546001600160a01b0316906108009087906116b0565b60008051602061185283398151915260405161084490602080825260149082015273496e73756666696369656e742062616c616e636560601b604082015260600190565b60405180910390a3846000036108dd576000858152600e60205260409020805460ff1916600190811790915561087b9086906116b0565b600f819055600d805460ff1916600190811790915554600b546009546001600160a01b0390921692600080516020611872833981519152926108bd91906116c3565b6040516108cb9291906116d6565b60405180910390a25050505050610d6c565b6000858152600e60205260408120805460ff19166001179055600f805491610904836116e4565b91905055505050505050610d6c565b600354600154604051636eb1769f60e11b815283926001600160a01b039081169263dd62ed3e9261094c9290911690309060040161164a565b602060405180830381865afa158015610969573d6000803e3d6000fd5b505050506040513d601f19601f8201168201806040525081019061098d9190611664565b10156109f257600180546001600160a01b0316906109ac9087906116b0565b60008051602061185283398151915260405161084490602080825260169082015275496e73756666696369656e7420616c6c6f77616e636560501b604082015260600190565b600354600154604051636eb1769f60e11b815283926001600160a01b039081169263dd62ed3e92610a2b9290911690309060040161164a565b602060405180830381865afa158015610a48573d6000803e3d6000fd5b505050506040513d601f19601f82011682018060405250810190610a6c9190611664565b1015610aae5760405162461bcd60e51b8152602060048201526011602482015270414c4c4f57414e43455f544f4f5f4c4f5760781b60448201526064016104be565b6001546002546040516272e9d760e71b81526001600160a01b0392831660048201529116602482015260448101849052606481018390523090633974eb8090608401600060405180830381600087803b158015610b0a57600080fd5b505af1925050508015610b1b575060015b610d3157610b276116fd565b806308c379a003610c635750610b3b611753565b80610b465750610c65565b600180546001600160a01b031690610b5f9088906116b0565b60008051602061185283398151915283604051602001610b7f91906117dc565b60408051601f1981840301815290829052610b9991611815565b60405180910390a385600003610c33576000868152600e60205260409020805460ff19166001908117909155610bd09087906116b0565b600f819055600d805460ff1916600190811790915554600b546009546001600160a01b039092169260008051602061187283398151915292610c1291906116c3565b604051610c209291906116d6565b60405180910390a2505050505050610d6c565b6000868152600e60205260409020805460ff19166001908117909155610c5a9087906116b0565b600f5550610d66565b505b600180546001600160a01b031690610c7e9087906116b0565b600080516020611852833981519152604051610ccb906020808252601f908201527f5472616e73666572206661696c65642028756e6b6e6f776e206572726f722900604082015260600190565b60405180910390a384600003610d02576000858152600e60205260409020805460ff1916600190811790915561087b9086906116b0565b6000858152600e60205260409020805460ff19166001908117909155610d299086906116b0565b600f55610d66565b6000858152600e60205260409020805460ff19166001908117909155610d589086906116b0565b600f55610d66858484611389565b50505050505b6104cf6001600055565b60008080612710610d8860b387611693565b610d92919061182f565b9250610d9e83866116b0565b9150610daa8483611693565b90509250925092565b600d5460609060009081908190819060ff1615610e4f576000600954600f5410610dde576000610dee565b600f54600954610dee91906116c3565b90506000600b54600f5411610e04576000610e14565b600b54600f54610e1491906116c3565b600b54600c5460408051808201909152600981526818d85b98d95b1b195960ba1b60208201529950909750929550919350909150610f239050565b600954600f5410610eb8576000600b5460095411610e6e576000610e7e565b600b54600954610e7e91906116c3565b600b54600c5460408051808201909152600981526818dbdb5c1b195d195960ba1b602082015298509096506000955093509150610f239050565b6000600f54600954610eca91906116c3565b90506000600b54600f5411610ee0576000610ef0565b600b54600f54610ef091906116c3565b600b54600c5460408051808201909152600681526561637469766560d01b60208201529950909750929550919350909150505b9091929394565b600080600080600954600f5410610f42576000610f52565b600f54600954610f5291906116c3565b9050600081600654600454610f6791906116b0565b610f719190611693565b600354600154604051636eb1769f60e11b81529293506000926001600160a01b039283169263dd62ed3e92610fad92911690309060040161164a565b602060405180830381865afa158015610fca573d6000803e3d6000fd5b505050506040513d601f19601f82011682018060405250810190610fee9190611664565b828110159792965094509092505050565b600080600080600080600080600080600080600080600090506000600d60009054906101000a900460ff1615801561103a5750600954600f54105b156110845762278d00600f546110509190611693565b60085461105d91906116b0565b91508142101580156110815750600f546000908152600e602052604090205460ff16155b90505b600d5460009060ff168061109c5750600954600f5410155b9050600160009054906101000a90046001600160a01b0316600260009054906101000a90046001600160a01b0316600360009054906101000a90046001600160a01b0316600454600654600854600954600a54600b54600d60009054906101000a900460ff168c8c8c9f509f509f509f509f509f509f509f509f509f509f509f509f50505050909192939495969798999a9b9c565b600d5460009060ff16156111455750600090565b600954600f54106111565750600090565b600062278d00600f546111699190611693565b60085461117691906116b0565b905080421061118757600091505090565b61119142826116c3565b91505090565b61119f61135f565b6001546001600160a01b031633146111f15760405162461bcd60e51b815260206004820152601560248201527413db9b1e481c185e595c8818d85b8818d85b98d95b605a1b60448201526064016104be565b600d5460ff16156112385760405162461bcd60e51b8152602060048201526011602482015270105b1c9958591e4818d85b98d95b1b1959607a1b60448201526064016104be565b6000600954600f541061124c57600061125c565b600f5460095461125c91906116c3565b9050600081116112ae5760405162461bcd60e51b815260206004820152601f60248201527f4e6f2072656d61696e696e67207061796d656e747320746f2063616e63656c0060448201526064016104be565b600d805460ff1916600190811790915554600b546040516001600160a01b0390921691600080516020611872833981519152916112ec9185906116d6565b60405180910390a2506104cf6001600055565b604080516001600160a01b0385811660248301528416604482015260648082018490528251808303909101815260849091019091526020810180516001600160e01b03166323b872dd60e01b17905261135990859061149c565b50505050565b60026000540361138257604051633ee5aeb560e01b815260040160405180910390fd5b6002600055565b600b8054906000611399836116e4565b919050555081600c60008282546113b091906116b0565b925050819055506000600954600f54106113cb5760006113e9565b62278d00600f546113dc9190611693565b6008546113e991906116b0565b6002549091506001600160a01b03166114038560016116b0565b7f7b1404bdb91dc49f5ae076071f80af302753bd5d3b299861de66f56a828651be858585604051611436939291906115ad565b60405180910390a3600954600f540361135957600254600b54600c546040516001600160a01b03909316927fb3ca1c952acfaa0ce116b82df50ba6eca680e859f7cca23b684ba04848c6d6d59261148e9290916116d6565b60405180910390a250505050565b600080602060008451602086016000885af1806114bf576040513d6000823e3d81fd5b50506000513d915081156114d75780600114156114e4565b6001600160a01b0384163b155b156113595783604051635274afe760e01b81526004016104be91905b6001600160a01b0391909116815260200190565b80356001600160a01b038116811461152b57600080fd5b919050565b6000806000806080858703121561154657600080fd5b61154f85611514565b935061155d60208601611514565b93969395505050506040820135916060013590565b60006020828403121561158457600080fd5b5035919050565b6000806040838503121561159e57600080fd5b50508035926020909101359150565b9283526020830191909152604082015260600190565b60005b838110156115de5781810151838201526020016115c6565b50506000910152565b600081518084526115ff8160208601602086016115c3565b601f01601f19169290920160200192915050565b60a08152600061162660a08301886115e7565b90508560208301528460408301528360608301528260808301529695505050505050565b6001600160a01b0392831681529116602082015260400190565b60006020828403121561167657600080fd5b5051919050565b634e487b7160e01b600052601160045260246000fd5b80820281158282048414176116aa576116aa61167d565b92915050565b808201808211156116aa576116aa61167d565b818103818111156116aa576116aa61167d565b918252602082015260400190565b6000600182016116f6576116f661167d565b5060010190565b600060033d11156117165760046000803e5060005160e01c5b90565b601f8201601f191681016001600160401b038111828210171561174c57634e487b7160e01b600052604160045260246000fd5b6040525050565b600060443d10156117615790565b6040516003193d81016004833e81513d6001600160401b03808311602484018310171561179057505050505090565b82850191508151818111156117a85750505050505090565b843d87010160208285010111156117c25750505050505090565b6117d160208286010187611719565b509095945050505050565b7002a3930b739b332b9103330b4b632b21d1607d1b8152600082516118088160118501602087016115c3565b9190910160110192915050565b60208152600061182860208301846115e7565b9392505050565b60008261184c57634e487b7160e01b600052601260045260246000fd5b50049056fec57cc88c889ba5082585c741abc3e2081475633a94f4706b2fa9652abb08b58e61b9c33e0e4d02b2162fc16b3687513680c424835fceaec6d62637b8048dd876a164736f6c6343000814000a","opcodes":"PUSH1 0xA0 PUSH1 0x40 MSTORE CALLVALUE DUP1 ISZERO PUSH3 0x11 JUMPI PUSH1 0x0 DUP1 REVERT JUMPDEST POP PUSH1 0x40 MLOAD PUSH3 0x1DC6 CODESIZE SUB DUP1 PUSH3 0x1DC6 DUP4 CODECOPY DUP2 ADD PUSH1 0x40 DUP2 SWAP1 MSTORE PUSH3 0x34 SWAP2 PUSH3 0x428 JUMP JUMPDEST PUSH1 0x1 PUSH1 0x0 SSTORE PUSH1 0x1 PUSH1 0x1 PUSH1 0xA0 SHL SUB DUP10 AND PUSH3 0x85 JUMPI PUSH1 0x40 MLOAD PUSH3 0x461BCD PUSH1 0xE5 SHL DUP2 MSTORE PUSH1 0x20 PUSH1 0x4 DUP3 ADD MSTORE PUSH1 0xD PUSH1 0x24 DUP3 ADD MSTORE PUSH13 0x24B73B30B634B2103830BCB2B9 PUSH1 0x99 SHL PUSH1 0x44 DUP3 ADD MSTORE PUSH1 0x64 ADD JUMPDEST PUSH1 0x40 MLOAD DUP1 SWAP2 SUB SWAP1 REVERT JUMPDEST PUSH1 0x1 PUSH1 0x1 PUSH1 0xA0 SHL SUB DUP9 AND PUSH3 0xCD JUMPI PUSH1 0x40 MLOAD PUSH3 0x461BCD PUSH1 0xE5 SHL DUP2 MSTORE PUSH1 0x20 PUSH1 0x4 DUP3 ADD MSTORE PUSH1 0xD PUSH1 0x24 DUP3 ADD MSTORE PUSH13 0x496E76616C6964207061796565 PUSH1 0x98 SHL PUSH1 0x44 DUP3 ADD MSTORE PUSH1 0x64 ADD PUSH3 0x7C JUMP JUMPDEST PUSH1 0x1 PUSH1 0x1 PUSH1 0xA0 SHL SUB DUP8 AND PUSH3 0x115 JUMPI PUSH1 0x40 MLOAD PUSH3 0x461BCD PUSH1 0xE5 SHL DUP2 MSTORE PUSH1 0x20 PUSH1 0x4 DUP3 ADD MSTORE PUSH1 0xD PUSH1 0x24 DUP3 ADD MSTORE PUSH13 0x24B73B30B634B2103A37B5B2B7 PUSH1 0x99 SHL PUSH1 0x44 DUP3 ADD MSTORE PUSH1 0x64 ADD PUSH3 0x7C JUMP JUMPDEST PUSH1 0x0 DUP7 GT PUSH3 0x167 JUMPI PUSH1 0x40 MLOAD PUSH3 0x461BCD PUSH1 0xE5 SHL DUP2 MSTORE PUSH1 0x20 PUSH1 0x4 DUP3 ADD MSTORE PUSH1 0x1A PUSH1 0x24 DUP3 ADD MSTORE PUSH32 0x4D6F6E74686C7920616D6F756E74206D757374206265203E2030000000000000 PUSH1 0x44 DUP3 ADD MSTORE PUSH1 0x64 ADD PUSH3 0x7C JUMP JUMPDEST TIMESTAMP DUP5 GT PUSH3 0x1B8 JUMPI PUSH1 0x40 MLOAD PUSH3 0x461BCD PUSH1 0xE5 SHL DUP2 MSTORE PUSH1 0x20 PUSH1 0x4 DUP3 ADD MSTORE PUSH1 0x1C PUSH1 0x24 DUP3 ADD MSTORE PUSH32 0x53746172742064617465206D75737420626520696E2066757475726500000000 PUSH1 0x44 DUP3 ADD MSTORE PUSH1 0x64 ADD PUSH3 0x7C JUMP JUMPDEST PUSH1 0x1 DUP4 LT ISZERO DUP1 ISZERO PUSH3 0x1CB JUMPI POP PUSH1 0xC DUP4 GT ISZERO JUMPDEST PUSH3 0x219 JUMPI PUSH1 0x40 MLOAD PUSH3 0x461BCD PUSH1 0xE5 SHL DUP2 MSTORE PUSH1 0x20 PUSH1 0x4 DUP3 ADD MSTORE PUSH1 0x19 PUSH1 0x24 DUP3 ADD MSTORE PUSH32 0x546F74616C206D6F6E746873206D75737420626520312D313200000000000000 PUSH1 0x44 DUP3 ADD MSTORE PUSH1 0x64 ADD PUSH3 0x7C JUMP JUMPDEST PUSH1 0x1 DUP3 LT ISZERO DUP1 ISZERO PUSH3 0x22C JUMPI POP PUSH1 0x1C DUP3 GT ISZERO JUMPDEST PUSH3 0x27A JUMPI PUSH1 0x40 MLOAD PUSH3 0x461BCD PUSH1 0xE5 SHL DUP2 MSTORE PUSH1 0x20 PUSH1 0x4 DUP3 ADD MSTORE PUSH1 0x19 PUSH1 0x24 DUP3 ADD MSTORE PUSH32 0x446179206F66206D6F6E7468206D75737420626520312D323800000000000000 PUSH1 0x44 DUP3 ADD MSTORE PUSH1 0x64 ADD PUSH3 0x7C JUMP JUMPDEST PUSH1 0x1 PUSH1 0x1 PUSH1 0xA0 SHL SUB DUP2 AND PUSH3 0x2D2 JUMPI PUSH1 0x40 MLOAD PUSH3 0x461BCD PUSH1 0xE5 SHL DUP2 MSTORE PUSH1 0x20 PUSH1 0x4 DUP3 ADD MSTORE PUSH1 0x16 PUSH1 0x24 DUP3 ADD MSTORE PUSH32 0x496E76616C69642070726F746F636F6C206F776E657200000000000000000000 PUSH1 0x44 DUP3 ADD MSTORE PUSH1 0x64 ADD PUSH3 0x7C JUMP JUMPDEST PUSH1 0x1 DUP1 SLOAD PUSH1 0x1 PUSH1 0x1 PUSH1 0xA0 SHL SUB DUP1 DUP13 AND PUSH1 0x1 PUSH1 0x1 PUSH1 0xA0 SHL SUB NOT SWAP3 DUP4 AND OR SWAP1 SWAP3 SSTORE PUSH1 0x2 DUP1 SLOAD DUP12 DUP5 AND SWAP1 DUP4 AND OR SWAP1 SSTORE PUSH1 0x3 DUP1 SLOAD SWAP3 DUP11 AND SWAP3 SWAP1 SWAP2 AND SWAP2 SWAP1 SWAP2 OR SWAP1 SSTORE PUSH1 0x4 DUP7 SWAP1 SSTORE PUSH2 0x2710 PUSH3 0x324 PUSH1 0xB3 DUP9 PUSH3 0x4B6 JUMP JUMPDEST PUSH3 0x330 SWAP2 SWAP1 PUSH3 0x4E2 JUMP JUMPDEST PUSH1 0x6 SSTORE PUSH1 0x5 DUP6 SWAP1 SSTORE DUP5 ISZERO PUSH3 0x364 JUMPI PUSH2 0x2710 PUSH3 0x34F PUSH1 0xB3 DUP8 PUSH3 0x4B6 JUMP JUMPDEST PUSH3 0x35B SWAP2 SWAP1 PUSH3 0x4E2 JUMP JUMPDEST PUSH1 0x7 SSTORE PUSH3 0x36B JUMP JUMPDEST PUSH1 0x6 SLOAD PUSH1 0x7 SSTORE JUMPDEST PUSH1 0x8 DUP5 SWAP1 SSTORE PUSH1 0x9 DUP4 SWAP1 SSTORE PUSH1 0xA DUP3 SWAP1 SSTORE PUSH1 0x1 PUSH1 0x1 PUSH1 0xA0 SHL SUB DUP2 DUP2 AND PUSH1 0x80 SWAP1 DUP2 MSTORE PUSH1 0x0 PUSH1 0xF DUP2 SWAP1 SSTORE PUSH1 0xC SSTORE PUSH1 0x3 SLOAD PUSH1 0x2 SLOAD PUSH1 0x1 SLOAD PUSH1 0x4 SLOAD PUSH1 0x6 SLOAD PUSH1 0x40 DUP1 MLOAD SWAP3 DUP4 MSTORE PUSH1 0x20 DUP4 ADD SWAP2 SWAP1 SWAP2 MSTORE DUP2 ADD DUP11 SWAP1 MSTORE PUSH1 0x60 DUP2 ADD DUP10 SWAP1 MSTORE SWAP4 DUP5 ADD DUP8 SWAP1 MSTORE SWAP2 DUP5 AND SWAP4 SWAP1 DUP2 AND SWAP3 SWAP2 AND SWAP1 PUSH32 0xCCBA8AA02E1AEE0FF839B5D136F5B254A570D25E1C7C3FC0C4956EF90BAA1583 SWAP1 PUSH1 0xA0 ADD PUSH1 0x40 MLOAD DUP1 SWAP2 SUB SWAP1 LOG4 POP POP POP POP POP POP POP POP POP PUSH3 0x505 JUMP JUMPDEST DUP1 MLOAD PUSH1 0x1 PUSH1 0x1 PUSH1 0xA0 SHL SUB DUP2 AND DUP2 EQ PUSH3 0x423 JUMPI PUSH1 0x0 DUP1 REVERT JUMPDEST SWAP2 SWAP1 POP JUMP JUMPDEST PUSH1 0x0 DUP1 PUSH1 0x0 DUP1 PUSH1 0x0 DUP1 PUSH1 0x0 DUP1 PUSH1 0x0 PUSH2 0x120 DUP11 DUP13 SUB SLT ISZERO PUSH3 0x448 JUMPI PUSH1 0x0 DUP1 REVERT JUMPDEST PUSH3 0x453 DUP11 PUSH3 0x40B JUMP JUMPDEST SWAP9 POP PUSH3 0x463 PUSH1 0x20 DUP12 ADD PUSH3 0x40B JUMP JUMPDEST SWAP8 POP PUSH3 0x473 PUSH1 0x40 DUP12 ADD PUSH3 0x40B JUMP JUMPDEST SWAP7 POP PUSH1 0x60 DUP11 ADD MLOAD SWAP6 POP PUSH1 0x80 DUP11 ADD MLOAD SWAP5 POP PUSH1 0xA0 DUP11 ADD MLOAD SWAP4 POP PUSH1 0xC0 DUP11 ADD MLOAD SWAP3 POP PUSH1 0xE0 DUP11 ADD MLOAD SWAP2 POP PUSH3 0x4A7 PUSH2 0x100 DUP12 ADD PUSH3 0x40B JUMP JUMPDEST SWAP1 POP SWAP3 SWAP6 SWAP9 POP SWAP3 SWAP6 SWAP9 POP SWAP3 SWAP6 SWAP9 JUMP JUMPDEST DUP1 DUP3 MUL DUP2 ISZERO DUP3 DUP3 DIV DUP5 EQ OR PUSH3 0x4DC JUMPI PUSH4 0x4E487B71 PUSH1 0xE0 SHL PUSH1 0x0 MSTORE PUSH1 0x11 PUSH1 0x4 MSTORE PUSH1 0x24 PUSH1 0x0 REVERT JUMPDEST SWAP3 SWAP2 POP POP JUMP JUMPDEST PUSH1 0x0 DUP3 PUSH3 0x500 JUMPI PUSH4 0x4E487B71 PUSH1 0xE0 SHL PUSH1 0x0 MSTORE PUSH1 0x12 PUSH1 0x4 MSTORE PUSH1 0x24 PUSH1 0x0 REVERT JUMPDEST POP DIV SWAP1 JUMP JUMPDEST PUSH1 0x80 MLOAD PUSH2 0x189E PUSH3 0x528 PUSH1 0x0 CODECOPY PUSH1 0x0 DUP2 DUP2 PUSH2 0x306 ADD MSTORE PUSH2 0x466 ADD MSTORE PUSH2 0x189E PUSH1 0x0 RETURN INVALID PUSH1 0x80 PUSH1 0x40 MSTORE CALLVALUE DUP1 ISZERO PUSH2 0x10 JUMPI PUSH1 0x0 DUP1 REVERT JUMPDEST POP PUSH1 0x4 CALLDATASIZE LT PUSH2 0x16A JUMPI PUSH1 0x0 CALLDATALOAD PUSH1 0xE0 SHR DUP1 PUSH4 0x3F7A68C EQ PUSH2 0x16F JUMPI DUP1 PUSH4 0xB97BC86 EQ PUSH2 0x18A JUMPI DUP1 PUSH4 0xD3E50FC EQ PUSH2 0x193 JUMPI DUP1 PUSH4 0x10786DEB EQ PUSH2 0x19D JUMPI DUP1 PUSH4 0x123119CD EQ PUSH2 0x1A7 JUMPI DUP1 PUSH4 0x247B76F1 EQ PUSH2 0x1C7 JUMPI DUP1 PUSH4 0x26446C92 EQ PUSH2 0x1D0 JUMPI DUP1 PUSH4 0x28603738 EQ PUSH2 0x1D9 JUMPI DUP1 PUSH4 0x3974EB80 EQ PUSH2 0x1E2 JUMPI DUP1 PUSH4 0x3FB0D6FF EQ PUSH2 0x1F5 JUMPI DUP1 PUSH4 0x47D0CDCC EQ PUSH2 0x228 JUMPI DUP1 PUSH4 0x4A85ED20 EQ PUSH2 0x230 JUMPI DUP1 PUSH4 0x4E69D560 EQ PUSH2 0x252 JUMPI DUP1 PUSH4 0x6588439C EQ PUSH2 0x26B JUMPI DUP1 PUSH4 0x767EDB63 EQ PUSH2 0x274 JUMPI DUP1 PUSH4 0x8D47B620 EQ PUSH2 0x28F JUMPI DUP1 PUSH4 0x9A82A09A EQ PUSH2 0x2B4 JUMPI DUP1 PUSH4 0x9D76EA58 EQ PUSH2 0x2C1 JUMPI DUP1 PUSH4 0xA525AD3C EQ PUSH2 0x2D4 JUMPI DUP1 PUSH4 0xAE90B213 EQ PUSH2 0x2DC JUMPI DUP1 PUSH4 0xB2077152 EQ PUSH2 0x2EF JUMPI DUP1 PUSH4 0xBFCB3CB7 EQ PUSH2 0x2F8 JUMPI DUP1 PUSH4 0xC1D6BA69 EQ PUSH2 0x301 JUMPI DUP1 PUSH4 0xC3CD31C7 EQ PUSH2 0x328 JUMPI DUP1 PUSH4 0xC92AE959 EQ PUSH2 0x331 JUMPI DUP1 PUSH4 0xCFA498A3 EQ PUSH2 0x3B0 JUMPI DUP1 PUSH4 0xE2025B20 EQ PUSH2 0x3B9 JUMPI DUP1 PUSH4 0xE7B0F666 EQ PUSH2 0x3C1 JUMPI DUP1 PUSH4 0xEA8A1AF0 EQ PUSH2 0x3CA JUMPI DUP1 PUSH4 0xEED85390 EQ PUSH2 0x3D2 JUMPI JUMPDEST PUSH1 0x0 DUP1 REVERT JUMPDEST PUSH2 0x177 PUSH2 0x3DB JUMP JUMPDEST PUSH1 0x40 MLOAD SWAP1 DUP2 MSTORE PUSH1 0x20 ADD JUMPDEST PUSH1 0x40 MLOAD DUP1 SWAP2 SUB SWAP1 RETURN JUMPDEST PUSH2 0x177 PUSH1 0x8 SLOAD DUP2 JUMP JUMPDEST PUSH2 0x19B PUSH2 0x45B JUMP JUMPDEST STOP JUMPDEST PUSH2 0x177 PUSH3 0x278D00 DUP2 JUMP JUMPDEST PUSH1 0x1 SLOAD PUSH2 0x1BA SWAP1 PUSH1 0x1 PUSH1 0x1 PUSH1 0xA0 SHL SUB AND DUP2 JUMP JUMPDEST PUSH1 0x40 MLOAD PUSH2 0x181 SWAP2 SWAP1 PUSH2 0x1500 JUMP JUMPDEST PUSH2 0x177 PUSH1 0xF SLOAD DUP2 JUMP JUMPDEST PUSH2 0x177 PUSH1 0x5 SLOAD DUP2 JUMP JUMPDEST PUSH2 0x177 PUSH1 0xA SLOAD DUP2 JUMP JUMPDEST PUSH2 0x19B PUSH2 0x1F0 CALLDATASIZE PUSH1 0x4 PUSH2 0x1530 JUMP JUMPDEST PUSH2 0x4D1 JUMP JUMPDEST PUSH2 0x218 PUSH2 0x203 CALLDATASIZE PUSH1 0x4 PUSH2 0x1572 JUMP JUMPDEST PUSH1 0xE PUSH1 0x20 MSTORE PUSH1 0x0 SWAP1 DUP2 MSTORE PUSH1 0x40 SWAP1 KECCAK256 SLOAD PUSH1 0xFF AND DUP2 JUMP JUMPDEST PUSH1 0x40 MLOAD SWAP1 ISZERO ISZERO DUP2 MSTORE PUSH1 0x20 ADD PUSH2 0x181 JUMP JUMPDEST PUSH2 0x19B PUSH2 0x55A JUMP JUMPDEST PUSH2 0x243 PUSH2 0x23E CALLDATASIZE PUSH1 0x4 PUSH2 0x158B JUMP JUMPDEST PUSH2 0xD76 JUMP JUMPDEST PUSH1 0x40 MLOAD PUSH2 0x181 SWAP4 SWAP3 SWAP2 SWAP1 PUSH2 0x15AD JUMP JUMPDEST PUSH2 0x25A PUSH2 0xDB3 JUMP JUMPDEST PUSH1 0x40 MLOAD PUSH2 0x181 SWAP6 SWAP5 SWAP4 SWAP3 SWAP2 SWAP1 PUSH2 0x1613 JUMP JUMPDEST PUSH2 0x177 PUSH1 0x4 SLOAD DUP2 JUMP JUMPDEST PUSH2 0x1BA PUSH20 0xA34EDF91CC494450000EEF08E6563062B2F115A9 DUP2 JUMP JUMPDEST PUSH2 0x297 PUSH2 0xF2A JUMP JUMPDEST PUSH1 0x40 DUP1 MLOAD SWAP4 ISZERO ISZERO DUP5 MSTORE PUSH1 0x20 DUP5 ADD SWAP3 SWAP1 SWAP3 MSTORE SWAP1 DUP3 ADD MSTORE PUSH1 0x60 ADD PUSH2 0x181 JUMP JUMPDEST PUSH1 0xD SLOAD PUSH2 0x218 SWAP1 PUSH1 0xFF AND DUP2 JUMP JUMPDEST PUSH1 0x3 SLOAD PUSH2 0x1BA SWAP1 PUSH1 0x1 PUSH1 0x1 PUSH1 0xA0 SHL SUB AND DUP2 JUMP JUMPDEST PUSH2 0x177 PUSH1 0xB3 DUP2 JUMP JUMPDEST PUSH1 0x2 SLOAD PUSH2 0x1BA SWAP1 PUSH1 0x1 PUSH1 0x1 PUSH1 0xA0 SHL SUB AND DUP2 JUMP JUMPDEST PUSH2 0x177 PUSH1 0x6 SLOAD DUP2 JUMP JUMPDEST PUSH2 0x177 PUSH1 0x7 SLOAD DUP2 JUMP JUMPDEST PUSH2 0x1BA PUSH32 0x0 DUP2 JUMP JUMPDEST PUSH2 0x177 PUSH1 0x9 SLOAD DUP2 JUMP JUMPDEST PUSH2 0x339 PUSH2 0xFFF JUMP JUMPDEST PUSH1 0x40 DUP1 MLOAD PUSH1 0x1 PUSH1 0x1 PUSH1 0xA0 SHL SUB SWAP15 DUP16 AND DUP2 MSTORE SWAP13 DUP15 AND PUSH1 0x20 DUP15 ADD MSTORE SWAP11 SWAP1 SWAP13 AND SWAP10 DUP12 ADD SWAP10 SWAP1 SWAP10 MSTORE PUSH1 0x60 DUP11 ADD SWAP8 SWAP1 SWAP8 MSTORE PUSH1 0x80 DUP10 ADD SWAP6 SWAP1 SWAP6 MSTORE PUSH1 0xA0 DUP9 ADD SWAP4 SWAP1 SWAP4 MSTORE PUSH1 0xC0 DUP8 ADD SWAP2 SWAP1 SWAP2 MSTORE PUSH1 0xE0 DUP7 ADD MSTORE PUSH2 0x100 DUP6 ADD MSTORE ISZERO ISZERO PUSH2 0x120 DUP5 ADD MSTORE PUSH2 0x140 DUP4 ADD MSTORE ISZERO ISZERO PUSH2 0x160 DUP3 ADD MSTORE SWAP1 ISZERO ISZERO PUSH2 0x180 DUP3 ADD MSTORE PUSH2 0x1A0 ADD PUSH2 0x181 JUMP JUMPDEST PUSH2 0x177 PUSH2 0x2710 DUP2 JUMP JUMPDEST PUSH2 0x177 PUSH2 0x1131 JUMP JUMPDEST PUSH2 0x177 PUSH1 0xC SLOAD DUP2 JUMP JUMPDEST PUSH2 0x19B PUSH2 0x1197 JUMP JUMPDEST PUSH2 0x177 PUSH1 0xB SLOAD DUP2 JUMP JUMPDEST PUSH1 0x3 SLOAD PUSH1 0x1 SLOAD PUSH1 0x40 MLOAD PUSH4 0x6EB1769F PUSH1 0xE1 SHL DUP2 MSTORE PUSH1 0x0 SWAP3 PUSH1 0x1 PUSH1 0x1 PUSH1 0xA0 SHL SUB SWAP1 DUP2 AND SWAP3 PUSH4 0xDD62ED3E SWAP3 PUSH2 0x415 SWAP3 SWAP1 SWAP2 AND SWAP1 ADDRESS SWAP1 PUSH1 0x4 ADD PUSH2 0x164A JUMP JUMPDEST PUSH1 0x20 PUSH1 0x40 MLOAD DUP1 DUP4 SUB DUP2 DUP7 GAS STATICCALL ISZERO DUP1 ISZERO PUSH2 0x432 JUMPI RETURNDATASIZE PUSH1 0x0 DUP1 RETURNDATACOPY RETURNDATASIZE PUSH1 0x0 REVERT JUMPDEST POP POP POP POP PUSH1 0x40 MLOAD RETURNDATASIZE PUSH1 0x1F NOT PUSH1 0x1F DUP3 ADD AND DUP3 ADD DUP1 PUSH1 0x40 MSTORE POP DUP2 ADD SWAP1 PUSH2 0x456 SWAP2 SWAP1 PUSH2 0x1664 JUMP JUMPDEST SWAP1 POP SWAP1 JUMP JUMPDEST CALLER PUSH1 0x1 PUSH1 0x1 PUSH1 0xA0 SHL SUB PUSH32 0x0 AND EQ PUSH2 0x4C7 JUMPI PUSH1 0x40 MLOAD PUSH3 0x461BCD PUSH1 0xE5 SHL DUP2 MSTORE PUSH1 0x20 PUSH1 0x4 DUP3 ADD MSTORE PUSH1 0xC PUSH1 0x24 DUP3 ADD MSTORE PUSH12 0x139BDD081C1C9BDD1BD8DBDB PUSH1 0xA2 SHL PUSH1 0x44 DUP3 ADD MSTORE PUSH1 0x64 ADD JUMPDEST PUSH1 0x40 MLOAD DUP1 SWAP2 SUB SWAP1 REVERT JUMPDEST PUSH2 0x4CF PUSH2 0x55A JUMP JUMPDEST JUMP JUMPDEST CALLER ADDRESS EQ PUSH2 0x50C JUMPI PUSH1 0x40 MLOAD PUSH3 0x461BCD PUSH1 0xE5 SHL DUP2 MSTORE PUSH1 0x20 PUSH1 0x4 DUP3 ADD MSTORE PUSH1 0x9 PUSH1 0x24 DUP3 ADD MSTORE PUSH9 0x27B7363C9039B2B633 PUSH1 0xB9 SHL PUSH1 0x44 DUP3 ADD MSTORE PUSH1 0x64 ADD PUSH2 0x4BE JUMP JUMPDEST PUSH1 0x3 SLOAD PUSH1 0x1 PUSH1 0x1 PUSH1 0xA0 SHL SUB AND PUSH2 0x524 DUP2 DUP7 DUP7 DUP7 PUSH2 0x12FF JUMP JUMPDEST DUP2 ISZERO PUSH2 0x553 JUMPI PUSH2 0x553 PUSH1 0x1 PUSH1 0x1 PUSH1 0xA0 SHL SUB DUP3 AND DUP7 PUSH20 0xA34EDF91CC494450000EEF08E6563062B2F115A9 DUP6 PUSH2 0x12FF JUMP JUMPDEST POP POP POP POP POP JUMP JUMPDEST PUSH2 0x562 PUSH2 0x135F JUMP JUMPDEST PUSH1 0xD SLOAD PUSH1 0xFF AND ISZERO PUSH2 0x5A9 JUMPI PUSH1 0x40 MLOAD PUSH3 0x461BCD PUSH1 0xE5 SHL DUP2 MSTORE PUSH1 0x20 PUSH1 0x4 DUP3 ADD MSTORE PUSH1 0x11 PUSH1 0x24 DUP3 ADD MSTORE PUSH17 0x14185E5B595B9D0818D85B98D95B1B1959 PUSH1 0x7A SHL PUSH1 0x44 DUP3 ADD MSTORE PUSH1 0x64 ADD PUSH2 0x4BE JUMP JUMPDEST PUSH1 0x8 SLOAD TIMESTAMP LT ISZERO PUSH2 0x5F5 JUMPI PUSH1 0x40 MLOAD PUSH3 0x461BCD PUSH1 0xE5 SHL DUP2 MSTORE PUSH1 0x20 PUSH1 0x4 DUP3 ADD MSTORE PUSH1 0x17 PUSH1 0x24 DUP3 ADD MSTORE PUSH23 0x14185E5B595B9D081B9BDD081CDD185C9D1959081E595D PUSH1 0x4A SHL PUSH1 0x44 DUP3 ADD MSTORE PUSH1 0x64 ADD PUSH2 0x4BE JUMP JUMPDEST PUSH1 0x9 SLOAD PUSH1 0xF SLOAD LT PUSH2 0x648 JUMPI PUSH1 0x40 MLOAD PUSH3 0x461BCD PUSH1 0xE5 SHL DUP2 MSTORE PUSH1 0x20 PUSH1 0x4 DUP3 ADD MSTORE PUSH1 0x1D PUSH1 0x24 DUP3 ADD MSTORE PUSH32 0x416C6C207061796D656E7420706572696F647320636F6D706C65746564000000 PUSH1 0x44 DUP3 ADD MSTORE PUSH1 0x64 ADD PUSH2 0x4BE JUMP JUMPDEST PUSH1 0xF SLOAD PUSH1 0x0 DUP2 DUP2 MSTORE PUSH1 0xE PUSH1 0x20 MSTORE PUSH1 0x40 SWAP1 KECCAK256 SLOAD PUSH1 0xFF AND ISZERO PUSH2 0x6A8 JUMPI PUSH1 0x40 MLOAD PUSH3 0x461BCD PUSH1 0xE5 SHL DUP2 MSTORE PUSH1 0x20 PUSH1 0x4 DUP3 ADD MSTORE PUSH1 0x1B PUSH1 0x24 DUP3 ADD MSTORE PUSH27 0x151A1A5CC81B5BDB9D1A08185B1C9958591E48195E1958DD5D1959 PUSH1 0x2A SHL PUSH1 0x44 DUP3 ADD MSTORE PUSH1 0x64 ADD PUSH2 0x4BE JUMP JUMPDEST PUSH1 0x0 PUSH2 0x6B7 PUSH3 0x278D00 DUP4 PUSH2 0x1693 JUMP JUMPDEST PUSH1 0x8 SLOAD PUSH2 0x6C4 SWAP2 SWAP1 PUSH2 0x16B0 JUMP JUMPDEST SWAP1 POP DUP1 TIMESTAMP LT ISZERO PUSH2 0x713 JUMPI PUSH1 0x40 MLOAD PUSH3 0x461BCD PUSH1 0xE5 SHL DUP2 MSTORE PUSH1 0x20 PUSH1 0x4 DUP3 ADD MSTORE PUSH1 0x1A PUSH1 0x24 DUP3 ADD MSTORE PUSH26 0x151BDBC819585C9B1E48199BDC881D1A1A5CC81C185E5B595B9D PUSH1 0x32 SHL PUSH1 0x44 DUP3 ADD MSTORE PUSH1 0x64 ADD PUSH2 0x4BE JUMP JUMPDEST PUSH1 0x0 DUP3 ISZERO DUP1 ISZERO PUSH2 0x725 JUMPI POP PUSH1 0x0 PUSH1 0x5 SLOAD GT JUMPDEST PUSH2 0x731 JUMPI PUSH1 0x4 SLOAD PUSH2 0x735 JUMP JUMPDEST PUSH1 0x5 SLOAD JUMPDEST SWAP1 POP PUSH1 0x0 DUP4 ISZERO DUP1 ISZERO PUSH2 0x749 JUMPI POP PUSH1 0x0 PUSH1 0x5 SLOAD GT JUMPDEST PUSH2 0x755 JUMPI PUSH1 0x6 SLOAD PUSH2 0x759 JUMP JUMPDEST PUSH1 0x7 SLOAD JUMPDEST SWAP1 POP PUSH1 0x0 PUSH2 0x767 DUP3 DUP5 PUSH2 0x16B0 JUMP JUMPDEST PUSH1 0x3 SLOAD PUSH1 0x1 SLOAD PUSH1 0x40 MLOAD PUSH4 0x70A08231 PUSH1 0xE0 SHL DUP2 MSTORE SWAP3 SWAP4 POP DUP4 SWAP3 PUSH1 0x1 PUSH1 0x1 PUSH1 0xA0 SHL SUB SWAP3 DUP4 AND SWAP3 PUSH4 0x70A08231 SWAP3 PUSH2 0x7A0 SWAP3 SWAP2 AND SWAP1 PUSH1 0x4 ADD PUSH2 0x1500 JUMP JUMPDEST PUSH1 0x20 PUSH1 0x40 MLOAD DUP1 DUP4 SUB DUP2 DUP7 GAS STATICCALL ISZERO DUP1 ISZERO PUSH2 0x7BD JUMPI RETURNDATASIZE PUSH1 0x0 DUP1 RETURNDATACOPY RETURNDATASIZE PUSH1 0x0 REVERT JUMPDEST POP POP POP POP PUSH1 0x40 MLOAD RETURNDATASIZE PUSH1 0x1F NOT PUSH1 0x1F DUP3 ADD AND DUP3 ADD DUP1 PUSH1 0x40 MSTORE POP DUP2 ADD SWAP1 PUSH2 0x7E1 SWAP2 SWAP1 PUSH2 0x1664 JUMP JUMPDEST LT ISZERO PUSH2 0x913 JUMPI PUSH1 0x1 DUP1 SLOAD PUSH1 0x1 PUSH1 0x1 PUSH1 0xA0 SHL SUB AND SWAP1 PUSH2 0x800 SWAP1 DUP8 SWAP1 PUSH2 0x16B0 JUMP JUMPDEST PUSH1 0x0 DUP1 MLOAD PUSH1 0x20 PUSH2 0x1852 DUP4 CODECOPY DUP2 MLOAD SWAP2 MSTORE PUSH1 0x40 MLOAD PUSH2 0x844 SWAP1 PUSH1 0x20 DUP1 DUP3 MSTORE PUSH1 0x14 SWAP1 DUP3 ADD MSTORE PUSH20 0x496E73756666696369656E742062616C616E6365 PUSH1 0x60 SHL PUSH1 0x40 DUP3 ADD MSTORE PUSH1 0x60 ADD SWAP1 JUMP JUMPDEST PUSH1 0x40 MLOAD DUP1 SWAP2 SUB SWAP1 LOG3 DUP5 PUSH1 0x0 SUB PUSH2 0x8DD JUMPI PUSH1 0x0 DUP6 DUP2 MSTORE PUSH1 0xE PUSH1 0x20 MSTORE PUSH1 0x40 SWAP1 KECCAK256 DUP1 SLOAD PUSH1 0xFF NOT AND PUSH1 0x1 SWAP1 DUP2 OR SWAP1 SWAP2 SSTORE PUSH2 0x87B SWAP1 DUP7 SWAP1 PUSH2 0x16B0 JUMP JUMPDEST PUSH1 0xF DUP2 SWAP1 SSTORE PUSH1 0xD DUP1 SLOAD PUSH1 0xFF NOT AND PUSH1 0x1 SWAP1 DUP2 OR SWAP1 SWAP2 SSTORE SLOAD PUSH1 0xB SLOAD PUSH1 0x9 SLOAD PUSH1 0x1 PUSH1 0x1 PUSH1 0xA0 SHL SUB SWAP1 SWAP3 AND SWAP3 PUSH1 0x0 DUP1 MLOAD PUSH1 0x20 PUSH2 0x1872 DUP4 CODECOPY DUP2 MLOAD SWAP2 MSTORE SWAP3 PUSH2 0x8BD SWAP2 SWAP1 PUSH2 0x16C3 JUMP JUMPDEST PUSH1 0x40 MLOAD PUSH2 0x8CB SWAP3 SWAP2 SWAP1 PUSH2 0x16D6 JUMP JUMPDEST PUSH1 0x40 MLOAD DUP1 SWAP2 SUB SWAP1 LOG2 POP POP POP POP POP PUSH2 0xD6C JUMP JUMPDEST PUSH1 0x0 DUP6 DUP2 MSTORE PUSH1 0xE PUSH1 0x20 MSTORE PUSH1 0x40 DUP2 KECCAK256 DUP1 SLOAD PUSH1 0xFF NOT AND PUSH1 0x1 OR SWAP1 SSTORE PUSH1 0xF DUP1 SLOAD SWAP2 PUSH2 0x904 DUP4 PUSH2 0x16E4 JUMP JUMPDEST SWAP2 SWAP1 POP SSTORE POP POP POP POP POP POP PUSH2 0xD6C JUMP JUMPDEST PUSH1 0x3 SLOAD PUSH1 0x1 SLOAD PUSH1 0x40 MLOAD PUSH4 0x6EB1769F PUSH1 0xE1 SHL DUP2 MSTORE DUP4 SWAP3 PUSH1 0x1 PUSH1 0x1 PUSH1 0xA0 SHL SUB SWAP1 DUP2 AND SWAP3 PUSH4 0xDD62ED3E SWAP3 PUSH2 0x94C SWAP3 SWAP1 SWAP2 AND SWAP1 ADDRESS SWAP1 PUSH1 0x4 ADD PUSH2 0x164A JUMP JUMPDEST PUSH1 0x20 PUSH1 0x40 MLOAD DUP1 DUP4 SUB DUP2 DUP7 GAS STATICCALL ISZERO DUP1 ISZERO PUSH2 0x969 JUMPI RETURNDATASIZE PUSH1 0x0 DUP1 RETURNDATACOPY RETURNDATASIZE PUSH1 0x0 REVERT JUMPDEST POP POP POP POP PUSH1 0x40 MLOAD RETURNDATASIZE PUSH1 0x1F NOT PUSH1 0x1F DUP3 ADD AND DUP3 ADD DUP1 PUSH1 0x40 MSTORE POP DUP2 ADD SWAP1 PUSH2 0x98D SWAP2 SWAP1 PUSH2 0x1664 JUMP JUMPDEST LT ISZERO PUSH2 0x9F2 JUMPI PUSH1 0x1 DUP1 SLOAD PUSH1 0x1 PUSH1 0x1 PUSH1 0xA0 SHL SUB AND SWAP1 PUSH2 0x9AC SWAP1 DUP8 SWAP1 PUSH2 0x16B0 JUMP JUMPDEST PUSH1 0x0 DUP1 MLOAD PUSH1 0x20 PUSH2 0x1852 DUP4 CODECOPY DUP2 MLOAD SWAP2 MSTORE PUSH1 0x40 MLOAD PUSH2 0x844 SWAP1 PUSH1 0x20 DUP1 DUP3 MSTORE PUSH1 0x16 SWAP1 DUP3 ADD MSTORE PUSH22 0x496E73756666696369656E7420616C6C6F77616E6365 PUSH1 0x50 SHL PUSH1 0x40 DUP3 ADD MSTORE PUSH1 0x60 ADD SWAP1 JUMP JUMPDEST PUSH1 0x3 SLOAD PUSH1 0x1 SLOAD PUSH1 0x40 MLOAD PUSH4 0x6EB1769F PUSH1 0xE1 SHL DUP2 MSTORE DUP4 SWAP3 PUSH1 0x1 PUSH1 0x1 PUSH1 0xA0 SHL SUB SWAP1 DUP2 AND SWAP3 PUSH4 0xDD62ED3E SWAP3 PUSH2 0xA2B SWAP3 SWAP1 SWAP2 AND SWAP1 ADDRESS SWAP1 PUSH1 0x4 ADD PUSH2 0x164A JUMP JUMPDEST PUSH1 0x20 PUSH1 0x40 MLOAD DUP1 DUP4 SUB DUP2 DUP7 GAS STATICCALL ISZERO DUP1 ISZERO PUSH2 0xA48 JUMPI RETURNDATASIZE PUSH1 0x0 DUP1 RETURNDATACOPY RETURNDATASIZE PUSH1 0x0 REVERT JUMPDEST POP POP POP POP PUSH1 0x40 MLOAD RETURNDATASIZE PUSH1 0x1F NOT PUSH1 0x1F DUP3 ADD AND DUP3 ADD DUP1 PUSH1 0x40 MSTORE POP DUP2 ADD SWAP1 PUSH2 0xA6C SWAP2 SWAP1 PUSH2 0x1664 JUMP JUMPDEST LT ISZERO PUSH2 0xAAE JUMPI PUSH1 0x40 MLOAD PUSH3 0x461BCD PUSH1 0xE5 SHL DUP2 MSTORE PUSH1 0x20 PUSH1 0x4 DUP3 ADD MSTORE PUSH1 0x11 PUSH1 0x24 DUP3 ADD MSTORE PUSH17 0x414C4C4F57414E43455F544F4F5F4C4F57 PUSH1 0x78 SHL PUSH1 0x44 DUP3 ADD MSTORE PUSH1 0x64 ADD PUSH2 0x4BE JUMP JUMPDEST PUSH1 0x1 SLOAD PUSH1 0x2 SLOAD PUSH1 0x40 MLOAD PUSH3 0x72E9D7 PUSH1 0xE7 SHL DUP2 MSTORE PUSH1 0x1 PUSH1 0x1 PUSH1 0xA0 SHL SUB SWAP3 DUP4 AND PUSH1 0x4 DUP3 ADD MSTORE SWAP2 AND PUSH1 0x24 DUP3 ADD MSTORE PUSH1 0x44 DUP2 ADD DUP5 SWAP1 MSTORE PUSH1 0x64 DUP2 ADD DUP4 SWAP1 MSTORE ADDRESS SWAP1 PUSH4 0x3974EB80 SWAP1 PUSH1 0x84 ADD PUSH1 0x0 PUSH1 0x40 MLOAD DUP1 DUP4 SUB DUP2 PUSH1 0x0 DUP8 DUP1 EXTCODESIZE ISZERO DUP1 ISZERO PUSH2 0xB0A JUMPI PUSH1 0x0 DUP1 REVERT JUMPDEST POP GAS CALL SWAP3 POP POP POP DUP1 ISZERO PUSH2 0xB1B JUMPI POP PUSH1 0x1 JUMPDEST PUSH2 0xD31 JUMPI PUSH2 0xB27 PUSH2 0x16FD JUMP JUMPDEST DUP1 PUSH4 0x8C379A0 SUB PUSH2 0xC63 JUMPI POP PUSH2 0xB3B PUSH2 0x1753 JUMP JUMPDEST DUP1 PUSH2 0xB46 JUMPI POP PUSH2 0xC65 JUMP JUMPDEST PUSH1 0x1 DUP1 SLOAD PUSH1 0x1 PUSH1 0x1 PUSH1 0xA0 SHL SUB AND SWAP1 PUSH2 0xB5F SWAP1 DUP9 SWAP1 PUSH2 0x16B0 JUMP JUMPDEST PUSH1 0x0 DUP1 MLOAD PUSH1 0x20 PUSH2 0x1852 DUP4 CODECOPY DUP2 MLOAD SWAP2 MSTORE DUP4 PUSH1 0x40 MLOAD PUSH1 0x20 ADD PUSH2 0xB7F SWAP2 SWAP1 PUSH2 0x17DC JUMP JUMPDEST PUSH1 0x40 DUP1 MLOAD PUSH1 0x1F NOT DUP2 DUP5 SUB ADD DUP2 MSTORE SWAP1 DUP3 SWAP1 MSTORE PUSH2 0xB99 SWAP2 PUSH2 0x1815 JUMP JUMPDEST PUSH1 0x40 MLOAD DUP1 SWAP2 SUB SWAP1 LOG3 DUP6 PUSH1 0x0 SUB PUSH2 0xC33 JUMPI PUSH1 0x0 DUP7 DUP2 MSTORE PUSH1 0xE PUSH1 0x20 MSTORE PUSH1 0x40 SWAP1 KECCAK256 DUP1 SLOAD PUSH1 0xFF NOT AND PUSH1 0x1 SWAP1 DUP2 OR SWAP1 SWAP2 SSTORE PUSH2 0xBD0 SWAP1 DUP8 SWAP1 PUSH2 0x16B0 JUMP JUMPDEST PUSH1 0xF DUP2 SWAP1 SSTORE PUSH1 0xD DUP1 SLOAD PUSH1 0xFF NOT AND PUSH1 0x1 SWAP1 DUP2 OR SWAP1 SWAP2 SSTORE SLOAD PUSH1 0xB SLOAD PUSH1 0x9 SLOAD PUSH1 0x1 PUSH1 0x1 PUSH1 0xA0 SHL SUB SWAP1 SWAP3 AND SWAP3 PUSH1 0x0 DUP1 MLOAD PUSH1 0x20 PUSH2 0x1872 DUP4 CODECOPY DUP2 MLOAD SWAP2 MSTORE SWAP3 PUSH2 0xC12 SWAP2 SWAP1 PUSH2 0x16C3 JUMP JUMPDEST PUSH1 0x40 MLOAD PUSH2 0xC20 SWAP3 SWAP2 SWAP1 PUSH2 0x16D6 JUMP JUMPDEST PUSH1 0x40 MLOAD DUP1 SWAP2 SUB SWAP1 LOG2 POP POP POP POP POP POP PUSH2 0xD6C JUMP JUMPDEST PUSH1 0x0 DUP7 DUP2 MSTORE PUSH1 0xE PUSH1 0x20 MSTORE PUSH1 0x40 SWAP1 KECCAK256 DUP1 SLOAD PUSH1 0xFF NOT AND PUSH1 0x1 SWAP1 DUP2 OR SWAP1 SWAP2 SSTORE PUSH2 0xC5A SWAP1 DUP8 SWAP1 PUSH2 0x16B0 JUMP JUMPDEST PUSH1 0xF SSTORE POP PUSH2 0xD66 JUMP JUMPDEST POP JUMPDEST PUSH1 0x1 DUP1 SLOAD PUSH1 0x1 PUSH1 0x1 PUSH1 0xA0 SHL SUB AND SWAP1 PUSH2 0xC7E SWAP1 DUP8 SWAP1 PUSH2 0x16B0 JUMP JUMPDEST PUSH1 0x0 DUP1 MLOAD PUSH1 0x20 PUSH2 0x1852 DUP4 CODECOPY DUP2 MLOAD SWAP2 MSTORE PUSH1 0x40 MLOAD PUSH2 0xCCB SWAP1 PUSH1 0x20 DUP1 DUP3 MSTORE PUSH1 0x1F SWAP1 DUP3 ADD MSTORE PUSH32 0x5472616E73666572206661696C65642028756E6B6E6F776E206572726F722900 PUSH1 0x40 DUP3 ADD MSTORE PUSH1 0x60 ADD SWAP1 JUMP JUMPDEST PUSH1 0x40 MLOAD DUP1 SWAP2 SUB SWAP1 LOG3 DUP5 PUSH1 0x0 SUB PUSH2 0xD02 JUMPI PUSH1 0x0 DUP6 DUP2 MSTORE PUSH1 0xE PUSH1 0x20 MSTORE PUSH1 0x40 SWAP1 KECCAK256 DUP1 SLOAD PUSH1 0xFF NOT AND PUSH1 0x1 SWAP1 DUP2 OR SWAP1 SWAP2 SSTORE PUSH2 0x87B SWAP1 DUP7 SWAP1 PUSH2 0x16B0 JUMP JUMPDEST PUSH1 0x0 DUP6 DUP2 MSTORE PUSH1 0xE PUSH1 0x20 MSTORE PUSH1 0x40 SWAP1 KECCAK256 DUP1 SLOAD PUSH1 0xFF NOT AND PUSH1 0x1 SWAP1 DUP2 OR SWAP1 SWAP2 SSTORE PUSH2 0xD29 SWAP1 DUP7 SWAP1 PUSH2 0x16B0 JUMP JUMPDEST PUSH1 0xF SSTORE PUSH2 0xD66 JUMP JUMPDEST PUSH1 0x0 DUP6 DUP2 MSTORE PUSH1 0xE PUSH1 0x20 MSTORE PUSH1 0x40 SWAP1 KECCAK256 DUP1 SLOAD PUSH1 0xFF NOT AND PUSH1 0x1 SWAP1 DUP2 OR SWAP1 SWAP2 SSTORE PUSH2 0xD58 SWAP1 DUP7 SWAP1 PUSH2 0x16B0 JUMP JUMPDEST PUSH1 0xF SSTORE PUSH2 0xD66 DUP6 DUP5 DUP5 PUSH2 0x1389 JUMP JUMPDEST POP POP POP POP POP JUMPDEST PUSH2 0x4CF PUSH1 0x1 PUSH1 0x0 SSTORE JUMP JUMPDEST PUSH1 0x0 DUP1 DUP1 PUSH2 0x2710 PUSH2 0xD88 PUSH1 0xB3 DUP8 PUSH2 0x1693 JUMP JUMPDEST PUSH2 0xD92 SWAP2 SWAP1 PUSH2 0x182F JUMP JUMPDEST SWAP3 POP PUSH2 0xD9E DUP4 DUP7 PUSH2 0x16B0 JUMP JUMPDEST SWAP2 POP PUSH2 0xDAA DUP5 DUP4 PUSH2 0x1693 JUMP JUMPDEST SWAP1 POP SWAP3 POP SWAP3 POP SWAP3 JUMP JUMPDEST PUSH1 0xD SLOAD PUSH1 0x60 SWAP1 PUSH1 0x0 SWAP1 DUP2 SWAP1 DUP2 SWAP1 DUP2 SWAP1 PUSH1 0xFF AND ISZERO PUSH2 0xE4F JUMPI PUSH1 0x0 PUSH1 0x9 SLOAD PUSH1 0xF SLOAD LT PUSH2 0xDDE JUMPI PUSH1 0x0 PUSH2 0xDEE JUMP JUMPDEST PUSH1 0xF SLOAD PUSH1 0x9 SLOAD PUSH2 0xDEE SWAP2 SWAP1 PUSH2 0x16C3 JUMP JUMPDEST SWAP1 POP PUSH1 0x0 PUSH1 0xB SLOAD PUSH1 0xF SLOAD GT PUSH2 0xE04 JUMPI PUSH1 0x0 PUSH2 0xE14 JUMP JUMPDEST PUSH1 0xB SLOAD PUSH1 0xF SLOAD PUSH2 0xE14 SWAP2 SWAP1 PUSH2 0x16C3 JUMP JUMPDEST PUSH1 0xB SLOAD PUSH1 0xC SLOAD PUSH1 0x40 DUP1 MLOAD DUP1 DUP3 ADD SWAP1 SWAP2 MSTORE PUSH1 0x9 DUP2 MSTORE PUSH9 0x18D85B98D95B1B1959 PUSH1 0xBA SHL PUSH1 0x20 DUP3 ADD MSTORE SWAP10 POP SWAP1 SWAP8 POP SWAP3 SWAP6 POP SWAP2 SWAP4 POP SWAP1 SWAP2 POP PUSH2 0xF23 SWAP1 POP JUMP JUMPDEST PUSH1 0x9 SLOAD PUSH1 0xF SLOAD LT PUSH2 0xEB8 JUMPI PUSH1 0x0 PUSH1 0xB SLOAD PUSH1 0x9 SLOAD GT PUSH2 0xE6E JUMPI PUSH1 0x0 PUSH2 0xE7E JUMP JUMPDEST PUSH1 0xB SLOAD PUSH1 0x9 SLOAD PUSH2 0xE7E SWAP2 SWAP1 PUSH2 0x16C3 JUMP JUMPDEST PUSH1 0xB SLOAD PUSH1 0xC SLOAD PUSH1 0x40 DUP1 MLOAD DUP1 DUP3 ADD SWAP1 SWAP2 MSTORE PUSH1 0x9 DUP2 MSTORE PUSH9 0x18DBDB5C1B195D1959 PUSH1 0xBA SHL PUSH1 0x20 DUP3 ADD MSTORE SWAP9 POP SWAP1 SWAP7 POP PUSH1 0x0 SWAP6 POP SWAP4 POP SWAP2 POP PUSH2 0xF23 SWAP1 POP JUMP JUMPDEST PUSH1 0x0 PUSH1 0xF SLOAD PUSH1 0x9 SLOAD PUSH2 0xECA SWAP2 SWAP1 PUSH2 0x16C3 JUMP JUMPDEST SWAP1 POP PUSH1 0x0 PUSH1 0xB SLOAD PUSH1 0xF SLOAD GT PUSH2 0xEE0 JUMPI PUSH1 0x0 PUSH2 0xEF0 JUMP JUMPDEST PUSH1 0xB SLOAD PUSH1 0xF SLOAD PUSH2 0xEF0 SWAP2 SWAP1 PUSH2 0x16C3 JUMP JUMPDEST PUSH1 0xB SLOAD PUSH1 0xC SLOAD PUSH1 0x40 DUP1 MLOAD DUP1 DUP3 ADD SWAP1 SWAP2 MSTORE PUSH1 0x6 DUP2 MSTORE PUSH6 0x616374697665 PUSH1 0xD0 SHL PUSH1 0x20 DUP3 ADD MSTORE SWAP10 POP SWAP1 SWAP8 POP SWAP3 SWAP6 POP SWAP2 SWAP4 POP SWAP1 SWAP2 POP POP JUMPDEST SWAP1 SWAP2 SWAP3 SWAP4 SWAP5 JUMP JUMPDEST PUSH1 0x0 DUP1 PUSH1 0x0 DUP1 PUSH1 0x9 SLOAD PUSH1 0xF SLOAD LT PUSH2 0xF42 JUMPI PUSH1 0x0 PUSH2 0xF52 JUMP JUMPDEST PUSH1 0xF SLOAD PUSH1 0x9 SLOAD PUSH2 0xF52 SWAP2 SWAP1 PUSH2 0x16C3 JUMP JUMPDEST SWAP1 POP PUSH1 0x0 DUP2 PUSH1 0x6 SLOAD PUSH1 0x4 SLOAD PUSH2 0xF67 SWAP2 SWAP1 PUSH2 0x16B0 JUMP JUMPDEST PUSH2 0xF71 SWAP2 SWAP1 PUSH2 0x1693 JUMP JUMPDEST PUSH1 0x3 SLOAD PUSH1 0x1 SLOAD PUSH1 0x40 MLOAD PUSH4 0x6EB1769F PUSH1 0xE1 SHL DUP2 MSTORE SWAP3 SWAP4 POP PUSH1 0x0 SWAP3 PUSH1 0x1 PUSH1 0x1 PUSH1 0xA0 SHL SUB SWAP3 DUP4 AND SWAP3 PUSH4 0xDD62ED3E SWAP3 PUSH2 0xFAD SWAP3 SWAP2 AND SWAP1 ADDRESS SWAP1 PUSH1 0x4 ADD PUSH2 0x164A JUMP JUMPDEST PUSH1 0x20 PUSH1 0x40 MLOAD DUP1 DUP4 SUB DUP2 DUP7 GAS STATICCALL ISZERO DUP1 ISZERO PUSH2 0xFCA JUMPI RETURNDATASIZE PUSH1 0x0 DUP1 RETURNDATACOPY RETURNDATASIZE PUSH1 0x0 REVERT JUMPDEST POP POP POP POP PUSH1 0x40 MLOAD RETURNDATASIZE PUSH1 0x1F NOT PUSH1 0x1F DUP3 ADD AND DUP3 ADD DUP1 PUSH1 0x40 MSTORE POP DUP2 ADD SWAP1 PUSH2 0xFEE SWAP2 SWAP1 PUSH2 0x1664 JUMP JUMPDEST DUP3 DUP2 LT ISZERO SWAP8 SWAP3 SWAP7 POP SWAP5 POP SWAP1 SWAP3 POP POP POP JUMP JUMPDEST PUSH1 0x0 DUP1 PUSH1 0x0 DUP1 PUSH1 0x0 DUP1 PUSH1 0x0 DUP1 PUSH1 0x0 DUP1 PUSH1 0x0 DUP1 PUSH1 0x0 DUP1 PUSH1 0x0 SWAP1 POP PUSH1 0x0 PUSH1 0xD PUSH1 0x0 SWAP1 SLOAD SWAP1 PUSH2 0x100 EXP SWAP1 DIV PUSH1 0xFF AND ISZERO DUP1 ISZERO PUSH2 0x103A JUMPI POP PUSH1 0x9 SLOAD PUSH1 0xF SLOAD LT JUMPDEST ISZERO PUSH2 0x1084 JUMPI PUSH3 0x278D00 PUSH1 0xF SLOAD PUSH2 0x1050 SWAP2 SWAP1 PUSH2 0x1693 JUMP JUMPDEST PUSH1 0x8 SLOAD PUSH2 0x105D SWAP2 SWAP1 PUSH2 0x16B0 JUMP JUMPDEST SWAP2 POP DUP2 TIMESTAMP LT ISZERO DUP1 ISZERO PUSH2 0x1081 JUMPI POP PUSH1 0xF SLOAD PUSH1 0x0 SWAP1 DUP2 MSTORE PUSH1 0xE PUSH1 0x20 MSTORE PUSH1 0x40 SWAP1 KECCAK256 SLOAD PUSH1 0xFF AND ISZERO JUMPDEST SWAP1 POP JUMPDEST PUSH1 0xD SLOAD PUSH1 0x0 SWAP1 PUSH1 0xFF AND DUP1 PUSH2 0x109C JUMPI POP PUSH1 0x9 SLOAD PUSH1 0xF SLOAD LT ISZERO JUMPDEST SWAP1 POP PUSH1 0x1 PUSH1 0x0 SWAP1 SLOAD SWAP1 PUSH2 0x100 EXP SWAP1 DIV PUSH1 0x1 PUSH1 0x1 PUSH1 0xA0 SHL SUB AND PUSH1 0x2 PUSH1 0x0 SWAP1 SLOAD SWAP1 PUSH2 0x100 EXP SWAP1 DIV PUSH1 0x1 PUSH1 0x1 PUSH1 0xA0 SHL SUB AND PUSH1 0x3 PUSH1 0x0 SWAP1 SLOAD SWAP1 PUSH2 0x100 EXP SWAP1 DIV PUSH1 0x1 PUSH1 0x1 PUSH1 0xA0 SHL SUB AND PUSH1 0x4 SLOAD PUSH1 0x6 SLOAD PUSH1 0x8 SLOAD PUSH1 0x9 SLOAD PUSH1 0xA SLOAD PUSH1 0xB SLOAD PUSH1 0xD PUSH1 0x0 SWAP1 SLOAD SWAP1 PUSH2 0x100 EXP SWAP1 DIV PUSH1 0xFF AND DUP13 DUP13 DUP13 SWAP16 POP SWAP16 POP SWAP16 POP SWAP16 POP SWAP16 POP SWAP16 POP SWAP16 POP SWAP16 POP SWAP16 POP SWAP16 POP SWAP16 POP SWAP16 POP SWAP16 POP POP POP POP SWAP1 SWAP2 SWAP3 SWAP4 SWAP5 SWAP6 SWAP7 SWAP8 SWAP9 SWAP10 SWAP11 SWAP12 SWAP13 JUMP JUMPDEST PUSH1 0xD SLOAD PUSH1 0x0 SWAP1 PUSH1 0xFF AND ISZERO PUSH2 0x1145 JUMPI POP PUSH1 0x0 SWAP1 JUMP JUMPDEST PUSH1 0x9 SLOAD PUSH1 0xF SLOAD LT PUSH2 0x1156 JUMPI POP PUSH1 0x0 SWAP1 JUMP JUMPDEST PUSH1 0x0 PUSH3 0x278D00 PUSH1 0xF SLOAD PUSH2 0x1169 SWAP2 SWAP1 PUSH2 0x1693 JUMP JUMPDEST PUSH1 0x8 SLOAD PUSH2 0x1176 SWAP2 SWAP1 PUSH2 0x16B0 JUMP JUMPDEST SWAP1 POP DUP1 TIMESTAMP LT PUSH2 0x1187 JUMPI PUSH1 0x0 SWAP2 POP POP SWAP1 JUMP JUMPDEST PUSH2 0x1191 TIMESTAMP DUP3 PUSH2 0x16C3 JUMP JUMPDEST SWAP2 POP POP SWAP1 JUMP JUMPDEST PUSH2 0x119F PUSH2 0x135F JUMP JUMPDEST PUSH1 0x1 SLOAD PUSH1 0x1 PUSH1 0x1 PUSH1 0xA0 SHL SUB AND CALLER EQ PUSH2 0x11F1 JUMPI PUSH1 0x40 MLOAD PUSH3 0x461BCD PUSH1 0xE5 SHL DUP2 MSTORE PUSH1 0x20 PUSH1 0x4 DUP3 ADD MSTORE PUSH1 0x15 PUSH1 0x24 DUP3 ADD MSTORE PUSH21 0x13DB9B1E481C185E595C8818D85B8818D85B98D95B PUSH1 0x5A SHL PUSH1 0x44 DUP3 ADD MSTORE PUSH1 0x64 ADD PUSH2 0x4BE JUMP JUMPDEST PUSH1 0xD SLOAD PUSH1 0xFF AND ISZERO PUSH2 0x1238 JUMPI PUSH1 0x40 MLOAD PUSH3 0x461BCD PUSH1 0xE5 SHL DUP2 MSTORE PUSH1 0x20 PUSH1 0x4 DUP3 ADD MSTORE PUSH1 0x11 PUSH1 0x24 DUP3 ADD MSTORE PUSH17 0x105B1C9958591E4818D85B98D95B1B1959 PUSH1 0x7A SHL PUSH1 0x44 DUP3 ADD MSTORE PUSH1 0x64 ADD PUSH2 0x4BE JUMP JUMPDEST PUSH1 0x0 PUSH1 0x9 SLOAD PUSH1 0xF SLOAD LT PUSH2 0x124C JUMPI PUSH1 0x0 PUSH2 0x125C JUMP JUMPDEST PUSH1 0xF SLOAD PUSH1 0x9 SLOAD PUSH2 0x125C SWAP2 SWAP1 PUSH2 0x16C3 JUMP JUMPDEST SWAP1 POP PUSH1 0x0 DUP2 GT PUSH2 0x12AE JUMPI PUSH1 0x40 MLOAD PUSH3 0x461BCD PUSH1 0xE5 SHL DUP2 MSTORE PUSH1 0x20 PUSH1 0x4 DUP3 ADD MSTORE PUSH1 0x1F PUSH1 0x24 DUP3 ADD MSTORE PUSH32 0x4E6F2072656D61696E696E67207061796D656E747320746F2063616E63656C00 PUSH1 0x44 DUP3 ADD MSTORE PUSH1 0x64 ADD PUSH2 0x4BE JUMP JUMPDEST PUSH1 0xD DUP1 SLOAD PUSH1 0xFF NOT AND PUSH1 0x1 SWAP1 DUP2 OR SWAP1 SWAP2 SSTORE SLOAD PUSH1 0xB SLOAD PUSH1 0x40 MLOAD PUSH1 0x1 PUSH1 0x1 PUSH1 0xA0 SHL SUB SWAP1 SWAP3 AND SWAP2 PUSH1 0x0 DUP1 MLOAD PUSH1 0x20 PUSH2 0x1872 DUP4 CODECOPY DUP2 MLOAD SWAP2 MSTORE SWAP2 PUSH2 0x12EC SWAP2 DUP6 SWAP1 PUSH2 0x16D6 JUMP JUMPDEST PUSH1 0x40 MLOAD DUP1 SWAP2 SUB SWAP1 LOG2 POP PUSH2 0x4CF PUSH1 0x1 PUSH1 0x0 SSTORE JUMP JUMPDEST PUSH1 0x40 DUP1 MLOAD PUSH1 0x1 PUSH1 0x1 PUSH1 0xA0 SHL SUB DUP6 DUP2 AND PUSH1 0x24 DUP4 ADD MSTORE DUP5 AND PUSH1 0x44 DUP3 ADD MSTORE PUSH1 0x64 DUP1 DUP3 ADD DUP5 SWAP1 MSTORE DUP3 MLOAD DUP1 DUP4 SUB SWAP1 SWAP2 ADD DUP2 MSTORE PUSH1 0x84 SWAP1 SWAP2 ADD SWAP1 SWAP2 MSTORE PUSH1 0x20 DUP2 ADD DUP1 MLOAD PUSH1 0x1 PUSH1 0x1 PUSH1 0xE0 SHL SUB AND PUSH4 0x23B872DD PUSH1 0xE0 SHL OR SWAP1 MSTORE PUSH2 0x1359 SWAP1 DUP6 SWAP1 PUSH2 0x149C JUMP JUMPDEST POP POP POP POP JUMP JUMPDEST PUSH1 0x2 PUSH1 0x0 SLOAD SUB PUSH2 0x1382 JUMPI PUSH1 0x40 MLOAD PUSH4 0x3EE5AEB5 PUSH1 0xE0 SHL DUP2 MSTORE PUSH1 0x4 ADD PUSH1 0x40 MLOAD DUP1 SWAP2 SUB SWAP1 REVERT JUMPDEST PUSH1 0x2 PUSH1 0x0 SSTORE JUMP JUMPDEST PUSH1 0xB DUP1 SLOAD SWAP1 PUSH1 0x0 PUSH2 0x1399 DUP4 PUSH2 0x16E4 JUMP JUMPDEST SWAP2 SWAP1 POP SSTORE POP DUP2 PUSH1 0xC PUSH1 0x0 DUP3 DUP3 SLOAD PUSH2 0x13B0 SWAP2 SWAP1 PUSH2 0x16B0 JUMP JUMPDEST SWAP3 POP POP DUP2 SWAP1 SSTORE POP PUSH1 0x0 PUSH1 0x9 SLOAD PUSH1 0xF SLOAD LT PUSH2 0x13CB JUMPI PUSH1 0x0 PUSH2 0x13E9 JUMP JUMPDEST PUSH3 0x278D00 PUSH1 0xF SLOAD PUSH2 0x13DC SWAP2 SWAP1 PUSH2 0x1693 JUMP JUMPDEST PUSH1 0x8 SLOAD PUSH2 0x13E9 SWAP2 SWAP1 PUSH2 0x16B0 JUMP JUMPDEST PUSH1 0x2 SLOAD SWAP1 SWAP2 POP PUSH1 0x1 PUSH1 0x1 PUSH1 0xA0 SHL SUB AND PUSH2 0x1403 DUP6 PUSH1 0x1 PUSH2 0x16B0 JUMP JUMPDEST PUSH32 0x7B1404BDB91DC49F5AE076071F80AF302753BD5D3B299861DE66F56A828651BE DUP6 DUP6 DUP6 PUSH1 0x40 MLOAD PUSH2 0x1436 SWAP4 SWAP3 SWAP2 SWAP1 PUSH2 0x15AD JUMP JUMPDEST PUSH1 0x40 MLOAD DUP1 SWAP2 SUB SWAP1 LOG3 PUSH1 0x9 SLOAD PUSH1 0xF SLOAD SUB PUSH2 0x1359 JUMPI PUSH1 0x2 SLOAD PUSH1 0xB SLOAD PUSH1 0xC SLOAD PUSH1 0x40 MLOAD PUSH1 0x1 PUSH1 0x1 PUSH1 0xA0 SHL SUB SWAP1 SWAP4 AND SWAP3 PUSH32 0xB3CA1C952ACFAA0CE116B82DF50BA6ECA680E859F7CCA23B684BA04848C6D6D5 SWAP3 PUSH2 0x148E SWAP3 SWAP1 SWAP2 PUSH2 0x16D6 JUMP JUMPDEST PUSH1 0x40 MLOAD DUP1 SWAP2 SUB SWAP1 LOG2 POP POP POP POP JUMP JUMPDEST PUSH1 0x0 DUP1 PUSH1 0x20 PUSH1 0x0 DUP5 MLOAD PUSH1 0x20 DUP7 ADD PUSH1 0x0 DUP9 GAS CALL DUP1 PUSH2 0x14BF JUMPI PUSH1 0x40 MLOAD RETURNDATASIZE PUSH1 0x0 DUP3 RETURNDATACOPY RETURNDATASIZE DUP2 REVERT JUMPDEST POP POP PUSH1 0x0 MLOAD RETURNDATASIZE SWAP2 POP DUP2 ISZERO PUSH2 0x14D7 JUMPI DUP1 PUSH1 0x1 EQ ISZERO PUSH2 0x14E4 JUMP JUMPDEST PUSH1 0x1 PUSH1 0x1 PUSH1 0xA0 SHL SUB DUP5 AND EXTCODESIZE ISZERO JUMPDEST ISZERO PUSH2 0x1359 JUMPI DUP4 PUSH1 0x40 MLOAD PUSH4 0x5274AFE7 PUSH1 0xE0 SHL DUP2 MSTORE PUSH1 0x4 ADD PUSH2 0x4BE SWAP2 SWAP1 JUMPDEST PUSH1 0x1 PUSH1 0x1 PUSH1 0xA0 SHL SUB SWAP2 SWAP1 SWAP2 AND DUP2 MSTORE PUSH1 0x20 ADD SWAP1 JUMP JUMPDEST DUP1 CALLDATALOAD PUSH1 0x1 PUSH1 0x1 PUSH1 0xA0 SHL SUB DUP2 AND DUP2 EQ PUSH2 0x152B JUMPI PUSH1 0x0 DUP1 REVERT JUMPDEST SWAP2 SWAP1 POP JUMP JUMPDEST PUSH1 0x0 DUP1 PUSH1 0x0 DUP1 PUSH1 0x80 DUP6 DUP8 SUB SLT ISZERO PUSH2 0x1546 JUMPI PUSH1 0x0 DUP1 REVERT JUMPDEST PUSH2 0x154F DUP6 PUSH2 0x1514 JUMP JUMPDEST SWAP4 POP PUSH2 0x155D PUSH1 0x20 DUP7 ADD PUSH2 0x1514 JUMP JUMPDEST SWAP4 SWAP7 SWAP4 SWAP6 POP POP POP POP PUSH1 0x40 DUP3 ADD CALLDATALOAD SWAP2 PUSH1 0x60 ADD CALLDATALOAD SWAP1 JUMP JUMPDEST PUSH1 0x0 PUSH1 0x20 DUP3 DUP5 SUB SLT ISZERO PUSH2 0x1584 JUMPI PUSH1 0x0 DUP1 REVERT JUMPDEST POP CALLDATALOAD SWAP2 SWAP1 POP JUMP JUMPDEST PUSH1 0x0 DUP1 PUSH1 0x40 DUP4 DUP6 SUB SLT ISZERO PUSH2 0x159E JUMPI PUSH1 0x0 DUP1 REVERT JUMPDEST POP POP DUP1 CALLDATALOAD SWAP3 PUSH1 0x20 SWAP1 SWAP2 ADD CALLDATALOAD SWAP2 POP JUMP JUMPDEST SWAP3 DUP4 MSTORE PUSH1 0x20 DUP4 ADD SWAP2 SWAP1 SWAP2 MSTORE PUSH1 0x40 DUP3 ADD MSTORE PUSH1 0x60 ADD SWAP1 JUMP JUMPDEST PUSH1 0x0 JUMPDEST DUP4 DUP2 LT ISZERO PUSH2 0x15DE JUMPI DUP2 DUP2 ADD MLOAD DUP4 DUP3 ADD MSTORE PUSH1 0x20 ADD PUSH2 0x15C6 JUMP JUMPDEST POP POP PUSH1 0x0 SWAP2 ADD MSTORE JUMP JUMPDEST PUSH1 0x0 DUP2 MLOAD DUP1 DUP5 MSTORE PUSH2 0x15FF DUP2 PUSH1 0x20 DUP7 ADD PUSH1 0x20 DUP7 ADD PUSH2 0x15C3 JUMP JUMPDEST PUSH1 0x1F ADD PUSH1 0x1F NOT AND SWAP3 SWAP1 SWAP3 ADD PUSH1 0x20 ADD SWAP3 SWAP2 POP POP JUMP JUMPDEST PUSH1 0xA0 DUP2 MSTORE PUSH1 0x0 PUSH2 0x1626 PUSH1 0xA0 DUP4 ADD DUP9 PUSH2 0x15E7 JUMP JUMPDEST SWAP1 POP DUP6 PUSH1 0x20 DUP4 ADD MSTORE DUP5 PUSH1 0x40 DUP4 ADD MSTORE DUP4 PUSH1 0x60 DUP4 ADD MSTORE DUP3 PUSH1 0x80 DUP4 ADD MSTORE SWAP7 SWAP6 POP POP POP POP POP POP JUMP JUMPDEST PUSH1 0x1 PUSH1 0x1 PUSH1 0xA0 SHL SUB SWAP3 DUP4 AND DUP2 MSTORE SWAP2 AND PUSH1 0x20 DUP3 ADD MSTORE PUSH1 0x40 ADD SWAP1 JUMP JUMPDEST PUSH1 0x0 PUSH1 0x20 DUP3 DUP5 SUB SLT ISZERO PUSH2 0x1676 JUMPI PUSH1 0x0 DUP1 REVERT JUMPDEST POP MLOAD SWAP2 SWAP1 POP JUMP JUMPDEST PUSH4 0x4E487B71 PUSH1 0xE0 SHL PUSH1 0x0 MSTORE PUSH1 0x11 PUSH1 0x4 MSTORE PUSH1 0x24 PUSH1 0x0 REVERT JUMPDEST DUP1 DUP3 MUL DUP2 ISZERO DUP3 DUP3 DIV DUP5 EQ OR PUSH2 0x16AA JUMPI PUSH2 0x16AA PUSH2 0x167D JUMP JUMPDEST SWAP3 SWAP2 POP POP JUMP JUMPDEST DUP1 DUP3 ADD DUP1 DUP3 GT ISZERO PUSH2 0x16AA JUMPI PUSH2 0x16AA PUSH2 0x167D JUMP JUMPDEST DUP2 DUP2 SUB DUP2 DUP2 GT ISZERO PUSH2 0x16AA JUMPI PUSH2 0x16AA PUSH2 0x167D JUMP JUMPDEST SWAP2 DUP3 MSTORE PUSH1 0x20 DUP3 ADD MSTORE PUSH1 0x40 ADD SWAP1 JUMP JUMPDEST PUSH1 0x0 PUSH1 0x1 DUP3 ADD PUSH2 0x16F6 JUMPI PUSH2 0x16F6 PUSH2 0x167D JUMP JUMPDEST POP PUSH1 0x1 ADD SWAP1 JUMP JUMPDEST PUSH1 0x0 PUSH1 0x3 RETURNDATASIZE GT ISZERO PUSH2 0x1716 JUMPI PUSH1 0x4 PUSH1 0x0 DUP1 RETURNDATACOPY POP PUSH1 0x0 MLOAD PUSH1 0xE0 SHR JUMPDEST SWAP1 JUMP JUMPDEST PUSH1 0x1F DUP3 ADD PUSH1 0x1F NOT AND DUP2 ADD PUSH1 0x1 PUSH1 0x1 PUSH1 0x40 SHL SUB DUP2 GT DUP3 DUP3 LT OR ISZERO PUSH2 0x174C JUMPI PUSH4 0x4E487B71 PUSH1 0xE0 SHL PUSH1 0x0 MSTORE PUSH1 0x41 PUSH1 0x4 MSTORE PUSH1 0x24 PUSH1 0x0 REVERT JUMPDEST PUSH1 0x40 MSTORE POP POP JUMP JUMPDEST PUSH1 0x0 PUSH1 0x44 RETURNDATASIZE LT ISZERO PUSH2 0x1761 JUMPI SWAP1 JUMP JUMPDEST PUSH1 0x40 MLOAD PUSH1 0x3 NOT RETURNDATASIZE DUP2 ADD PUSH1 0x4 DUP4 RETURNDATACOPY DUP2 MLOAD RETURNDATASIZE PUSH1 0x1 PUSH1 0x1 PUSH1 0x40 SHL SUB DUP1 DUP4 GT PUSH1 0x24 DUP5 ADD DUP4 LT OR ISZERO PUSH2 0x1790 JUMPI POP POP POP POP POP SWAP1 JUMP JUMPDEST DUP3 DUP6 ADD SWAP2 POP DUP2 MLOAD DUP2 DUP2 GT ISZERO PUSH2 0x17A8 JUMPI POP POP POP POP POP POP SWAP1 JUMP JUMPDEST DUP5 RETURNDATASIZE DUP8 ADD ADD PUSH1 0x20 DUP3 DUP6 ADD ADD GT ISZERO PUSH2 0x17C2 JUMPI POP POP POP POP POP POP SWAP1 JUMP JUMPDEST PUSH2 0x17D1 PUSH1 0x20 DUP3 DUP7 ADD ADD DUP8 PUSH2 0x1719 JUMP JUMPDEST POP SWAP1 SWAP6 SWAP5 POP POP POP POP POP JUMP JUMPDEST PUSH17 0x2A3930B739B332B9103330B4B632B21D1 PUSH1 0x7D SHL DUP2 MSTORE PUSH1 0x0 DUP3 MLOAD PUSH2 0x1808 DUP2 PUSH1 0x11 DUP6 ADD PUSH1 0x20 DUP8 ADD PUSH2 0x15C3 JUMP JUMPDEST SWAP2 SWAP1 SWAP2 ADD PUSH1 0x11 ADD SWAP3 SWAP2 POP POP JUMP JUMPDEST PUSH1 0x20 DUP2 MSTORE PUSH1 0x0 PUSH2 0x1828 PUSH1 0x20 DUP4 ADD DUP5 PUSH2 0x15E7 JUMP JUMPDEST SWAP4 SWAP3 POP POP POP JUMP JUMPDEST PUSH1 0x0 DUP3 PUSH2 0x184C JUMPI PUSH4 0x4E487B71 PUSH1 0xE0 SHL PUSH1 0x0 MSTORE PUSH1 0x12 PUSH1 0x4 MSTORE PUSH1 0x24 PUSH1 0x0 REVERT JUMPDEST POP DIV SWAP1 JUMP INVALID 0xC5 PUSH29 0xC88C889BA5082585C741ABC3E2081475633A94F4706B2FA9652ABB08B5 DUP15 PUSH2 0xB9C3 RETURNDATACOPY 0xE 0x4D MUL 0xB2 AND 0x2F 0xC1 PUSH12 0x3687513680C424835FCEAEC6 0xD6 0x26 CALLDATACOPY 0xB8 DIV DUP14 0xD8 PUSH23 0xA164736F6C6343000814000A0000000000000000000000 "},"methodIdentifiers":{"BASIS_POINTS_DENOMINATOR()":"cfa498a3","FEE_BASIS_POINTS()":"a525ad3c","PROTOCOL_WALLET()":"767edb63","SECONDS_PER_MONTH()":"10786deb","_executeTransfers(address,address,uint256,uint256)":"3974eb80","adminExecutePayment()":"0d3e50fc","calculateTotalRequired(uint256,uint256)":"4a85ed20","cancel()":"ea8a1af0","cancelled()":"9a82a09a","dayOfMonth()":"28603738","executeMonthlyPayment()":"47d0cdcc","executedMonths()":"eed85390","firstMonthAmount()":"26446c92","firstProtocolFee()":"bfcb3cb7","getCurrentAllowance()":"03f7a68c","getPaymentDetails()":"c92ae959","getStatus()":"4e69d560","isAllowanceSufficient()":"8d47b620","monthExecuted(uint256)":"3fb0d6ff","monthlyAmount()":"6588439c","nextMonthToProcess()":"247b76f1","payee()":"ae90b213","payer()":"123119cd","protocolFeePerMonth()":"b2077152","protocolOwner()":"c1d6ba69","startDate()":"0b97bc86","timeUntilNextPayment()":"e2025b20","tokenAddress()":"9d76ea58","totalMonths()":"c3cd31c7","totalPaid()":"e7b0f666"}}}}}