{
  "_format": "hh-sol-artifact-1",
  "contractName": "PaymentFactory_Recurring",
  "sourceName": "contracts-verify-old/PaymentFactory_Recurring.sol",
  "abi": [
    {
      "inputs": [],
      "stateMutability": "nonpayable",
      "type": "constructor"
    },
    {
      "anonymous": false,
      "inputs": [
        {
          "indexed": true,
          "internalType": "address",
          "name": "admin",
          "type": "address"
        },
        {
          "indexed": true,
          "internalType": "address",
          "name": "paymentContract",
          "type": "address"
        },
        {
          "indexed": false,
          "internalType": "bool",
          "name": "success",
          "type": "bool"
        }
      ],
      "name": "AdminCancelAttempt",
      "type": "event"
    },
    {
      "anonymous": false,
      "inputs": [
        {
          "indexed": true,
          "internalType": "address",
          "name": "admin",
          "type": "address"
        },
        {
          "indexed": true,
          "internalType": "address",
          "name": "paymentContract",
          "type": "address"
        }
      ],
      "name": "AdminExecuted",
      "type": "event"
    },
    {
      "anonymous": false,
      "inputs": [
        {
          "indexed": true,
          "internalType": "address",
          "name": "payer",
          "type": "address"
        },
        {
          "indexed": true,
          "internalType": "address",
          "name": "tokenAddress",
          "type": "address"
        },
        {
          "indexed": false,
          "internalType": "uint256",
          "name": "count",
          "type": "uint256"
        },
        {
          "indexed": false,
          "internalType": "uint256",
          "name": "startDate",
          "type": "uint256"
        },
        {
          "indexed": false,
          "internalType": "uint256",
          "name": "totalMonths",
          "type": "uint256"
        }
      ],
      "name": "BatchRecurringPaymentCreatedERC20",
      "type": "event"
    },
    {
      "anonymous": false,
      "inputs": [
        {
          "indexed": true,
          "internalType": "address",
          "name": "payer",
          "type": "address"
        },
        {
          "indexed": true,
          "internalType": "address",
          "name": "payee",
          "type": "address"
        },
        {
          "indexed": true,
          "internalType": "address",
          "name": "tokenAddress",
          "type": "address"
        },
        {
          "indexed": false,
          "internalType": "address",
          "name": "paymentContract",
          "type": "address"
        },
        {
          "indexed": false,
          "internalType": "uint256",
          "name": "monthlyAmount",
          "type": "uint256"
        },
        {
          "indexed": false,
          "internalType": "uint256",
          "name": "protocolFeePerMonth",
          "type": "uint256"
        },
        {
          "indexed": false,
          "internalType": "uint256",
          "name": "startDate",
          "type": "uint256"
        },
        {
          "indexed": false,
          "internalType": "uint256",
          "name": "totalMonths",
          "type": "uint256"
        }
      ],
      "name": "RecurringPaymentCreatedERC20",
      "type": "event"
    },
    {
      "inputs": [],
      "name": "BASIS_POINTS_DENOMINATOR",
      "outputs": [
        {
          "internalType": "uint256",
          "name": "",
          "type": "uint256"
        }
      ],
      "stateMutability": "view",
      "type": "function"
    },
    {
      "inputs": [],
      "name": "FACTORY_OWNER",
      "outputs": [
        {
          "internalType": "address",
          "name": "",
          "type": "address"
        }
      ],
      "stateMutability": "view",
      "type": "function"
    },
    {
      "inputs": [],
      "name": "FEE_BASIS_POINTS",
      "outputs": [
        {
          "internalType": "uint256",
          "name": "",
          "type": "uint256"
        }
      ],
      "stateMutability": "view",
      "type": "function"
    },
    {
      "inputs": [],
      "name": "PROTOCOL_WALLET",
      "outputs": [
        {
          "internalType": "address",
          "name": "",
          "type": "address"
        }
      ],
      "stateMutability": "view",
      "type": "function"
    },
    {
      "inputs": [
        {
          "internalType": "address",
          "name": "paymentContract",
          "type": "address"
        }
      ],
      "name": "adminCancel",
      "outputs": [
        {
          "internalType": "bool",
          "name": "success",
          "type": "bool"
        }
      ],
      "stateMutability": "nonpayable",
      "type": "function"
    },
    {
      "inputs": [
        {
          "internalType": "address",
          "name": "paymentContract",
          "type": "address"
        }
      ],
      "name": "adminExecutePayment",
      "outputs": [],
      "stateMutability": "nonpayable",
      "type": "function"
    },
    {
      "inputs": [
        {
          "internalType": "address",
          "name": "_tokenAddress",
          "type": "address"
        },
        {
          "internalType": "address[]",
          "name": "_payees",
          "type": "address[]"
        },
        {
          "internalType": "uint256[]",
          "name": "_monthlyAmounts",
          "type": "uint256[]"
        },
        {
          "internalType": "uint256",
          "name": "_startDate",
          "type": "uint256"
        },
        {
          "internalType": "uint256",
          "name": "_totalMonths",
          "type": "uint256"
        },
        {
          "internalType": "uint256",
          "name": "_dayOfMonth",
          "type": "uint256"
        }
      ],
      "name": "createBatchRecurringPaymentERC20",
      "outputs": [
        {
          "internalType": "address[]",
          "name": "",
          "type": "address[]"
        }
      ],
      "stateMutability": "nonpayable",
      "type": "function"
    },
    {
      "inputs": [
        {
          "internalType": "address",
          "name": "_payee",
          "type": "address"
        },
        {
          "internalType": "address",
          "name": "_tokenAddress",
          "type": "address"
        },
        {
          "internalType": "uint256",
          "name": "_monthlyAmount",
          "type": "uint256"
        },
        {
          "internalType": "uint256",
          "name": "_startDate",
          "type": "uint256"
        },
        {
          "internalType": "uint256",
          "name": "_totalMonths",
          "type": "uint256"
        },
        {
          "internalType": "uint256",
          "name": "_dayOfMonth",
          "type": "uint256"
        }
      ],
      "name": "createRecurringPaymentERC20",
      "outputs": [
        {
          "internalType": "address",
          "name": "",
          "type": "address"
        }
      ],
      "stateMutability": "nonpayable",
      "type": "function"
    },
    {
      "inputs": [
        {
          "internalType": "address",
          "name": "_payee",
          "type": "address"
        },
        {
          "internalType": "address",
          "name": "_tokenAddress",
          "type": "address"
        },
        {
          "internalType": "uint256",
          "name": "_monthlyAmount",
          "type": "uint256"
        },
        {
          "internalType": "uint256",
          "name": "_firstMonthAmount",
          "type": "uint256"
        },
        {
          "internalType": "uint256",
          "name": "_startDate",
          "type": "uint256"
        },
        {
          "internalType": "uint256",
          "name": "_totalMonths",
          "type": "uint256"
        },
        {
          "internalType": "uint256",
          "name": "_dayOfMonth",
          "type": "uint256"
        }
      ],
      "name": "createRecurringPaymentERC20_V2",
      "outputs": [
        {
          "internalType": "address",
          "name": "",
          "type": "address"
        }
      ],
      "stateMutability": "nonpayable",
      "type": "function"
    },
    {
      "inputs": [
        {
          "internalType": "uint256",
          "name": "monthlyAmount",
          "type": "uint256"
        }
      ],
      "name": "previewFeePerMonth",
      "outputs": [
        {
          "internalType": "uint256",
          "name": "",
          "type": "uint256"
        }
      ],
      "stateMutability": "pure",
      "type": "function"
    }
  ],
  "bytecode": "0x60a060405234801561001057600080fd5b503360805260805161313d61003e60003960008181610101015281816101db0152610827015261313d6000f3fe60806040523480156200001157600080fd5b50600436106200009a5760003560e01c8063242402ec146200009f5780633c3670f414620000cb5780635935cbfe14620000fb5780636ebf178f1462000123578063767edb63146200014957806383233efd1462000165578063a525ad3c146200017c578063b57ce9331462000185578063cfa498a3146200019e578063dff9436314620001a8575b600080fd5b620000b6620000b036600462000e41565b620001ce565b60405190151581526020015b60405180910390f35b620000e2620000dc36600462000e66565b620003ed565b6040516001600160a01b039091168152602001620000c2565b620000e27f000000000000000000000000000000000000000000000000000000000000000081565b6200013a6200013436600462000ec9565b6200061f565b604051908152602001620000c2565b620000e273a34edf91cc494450000eef08e6563062b2f115a981565b620000e26200017636600462000ee3565b62000643565b6200013a60b381565b6200019c6200019636600462000e41565b6200081c565b005b6200013a61271081565b620001bf620001b936600462000f8b565b620009a4565b604051620000c291906200102b565b6000336001600160a01b037f00000000000000000000000000000000000000000000000000000000000000001614620002245760405162461bcd60e51b81526004016200021b906200107a565b60405180910390fd5b6001600160a01b0382166200024d5760405162461bcd60e51b81526004016200021b906200109d565b60408051600481526024810182526020810180516001600160e01b03166303c5566360e31b17905290516000916001600160a01b03851691620002919190620010c6565b6000604051808303816000865af19150503d8060008114620002d0576040519150601f19603f3d011682016040523d82523d6000602084013e620002d5565b606091505b5050905080156200031957604051600181526001600160a01b038416903390600080516020620031118339815191529060200160405180910390a350600192915050565b60408051600481526024810182526020810180516001600160e01b0316630ea8a1af60e41b17905290516000916001600160a01b038616916200035d9190620010c6565b6000604051808303816000865af19150503d80600081146200039c576040519150601f19603f3d011682016040523d82523d6000602084013e620003a1565b606091505b50509050836001600160a01b0316336001600160a01b03166000805160206200311183398151915283604051620003dc911515815260200190565b60405180910390a39150505b919050565b60006001600160a01b038816620004185760405162461bcd60e51b81526004016200021b90620010f7565b6001600160a01b038716620004415760405162461bcd60e51b81526004016200021b906200111e565b60008611620004645760405162461bcd60e51b81526004016200021b9062001145565b428411620004865760405162461bcd60e51b81526004016200021b9062001179565b60018310158015620004995750600c8311155b620004b85760405162461bcd60e51b81526004016200021b90620011af565b60018210158015620004cb5750601c8211155b620004ea5760405162461bcd60e51b81526004016200021b90620011e2565b8415620005435760008511620005435760405162461bcd60e51b815260206004820152601e60248201527f4669727374206d6f6e746820616d6f756e74206d757374206265203e2030000060448201526064016200021b565b60006127106200055560b3896200122b565b62000561919062001245565b90506000338a8a8a8a8a8a8a73a34edf91cc494450000eef08e6563062b2f115a9604051620005909062000e1b565b620005a49998979695949392919062001268565b604051809103906000f080158015620005c1573d6000803e3d6000fd5b509050886001600160a01b03168a6001600160a01b0316336001600160a01b0316600080516020620030f1833981519152848c878c8c6040516200060a959493929190620012b4565b60405180910390a49998505050505050505050565b60006127106200063160b3846200122b565b6200063d919062001245565b92915050565b60006001600160a01b0387166200066e5760405162461bcd60e51b81526004016200021b90620010f7565b6001600160a01b038616620006975760405162461bcd60e51b81526004016200021b906200111e565b60008511620006ba5760405162461bcd60e51b81526004016200021b9062001145565b428411620006dc5760405162461bcd60e51b81526004016200021b9062001179565b60018310158015620006ef5750600c8311155b6200070e5760405162461bcd60e51b81526004016200021b90620011af565b60018210158015620007215750601c8211155b620007405760405162461bcd60e51b81526004016200021b90620011e2565b60006127106200075260b3886200122b565b6200075e919062001245565b905060003389898960008a8a8a73a34edf91cc494450000eef08e6563062b2f115a96040516200078e9062000e1b565b620007a29998979695949392919062001268565b604051809103906000f080158015620007bf573d6000803e3d6000fd5b509050876001600160a01b0316896001600160a01b0316336001600160a01b0316600080516020620030f1833981519152848b878c8c60405162000808959493929190620012b4565b60405180910390a498975050505050505050565b336001600160a01b037f00000000000000000000000000000000000000000000000000000000000000001614620008675760405162461bcd60e51b81526004016200021b906200107a565b6001600160a01b038116620008905760405162461bcd60e51b81526004016200021b906200109d565b60408051600481526024810182526020810180516001600160e01b03166311f4337360e21b17905290516000916001600160a01b03841691620008d49190620010c6565b6000604051808303816000865af19150503d806000811462000913576040519150601f19603f3d011682016040523d82523d6000602084013e62000918565b606091505b50509050806200096a5760405162461bcd60e51b815260206004820152601c60248201527b195e1958dd5d19535bdb9d1a1b1e54185e5b595b9d0819985a5b195960221b60448201526064016200021b565b6040516001600160a01b0383169033907fce0ff9f85d25f25d3dafbbfd9039a8f27845cca7ef6a277639e66edf4fe7bc0090600090a35050565b60606001600160a01b038916620009cf5760405162461bcd60e51b81526004016200021b906200111e565b8662000a0a5760405162461bcd60e51b81526020600482015260096024820152684e6f2070617965657360b81b60448201526064016200021b565b603287111562000a4d5760405162461bcd60e51b815260206004820152600d60248201526c4d61782035302070617965657360981b60448201526064016200021b565b86851462000a905760405162461bcd60e51b815260206004820152600f60248201526e098cadccee8d040dad2e6dac2e8c6d608b1b60448201526064016200021b565b42841162000ab25760405162461bcd60e51b81526004016200021b9062001179565b6001831015801562000ac55750600c8311155b62000ae45760405162461bcd60e51b81526004016200021b90620011af565b6001821015801562000af75750601c8211155b62000b165760405162461bcd60e51b81526004016200021b90620011e2565b6000876001600160401b0381111562000b335762000b33620012e2565b60405190808252806020026020018201604052801562000b5d578160200160208202803683370190505b50905060005b8881101562000dbf5760008a8a8381811062000b835762000b83620012f8565b905060200201602081019062000b9a919062000e41565b6001600160a01b03160362000bc35760405162461bcd60e51b81526004016200021b90620010f7565b600088888381811062000bda5762000bda620012f8565b905060200201351162000c015760405162461bcd60e51b81526004016200021b9062001145565b6000338b8b8481811062000c195762000c19620012f8565b905060200201602081019062000c30919062000e41565b8d8b8b8681811062000c465762000c46620012f8565b9050602002013560008b8b8b73a34edf91cc494450000eef08e6563062b2f115a960405162000c759062000e1b565b62000c899998979695949392919062001268565b604051809103906000f08015801562000ca6573d6000803e3d6000fd5b5090508083838151811062000cbf5762000cbf620012f8565b60200260200101906001600160a01b031690816001600160a01b031681525050600061271060b38b8b8681811062000cfb5762000cfb620012f8565b9050602002013562000d0e91906200122b565b62000d1a919062001245565b90508c6001600160a01b03168c8c8581811062000d3b5762000d3b620012f8565b905060200201602081019062000d52919062000e41565b6001600160a01b031633600080516020620030f1833981519152858e8e8981811062000d825762000d82620012f8565b90506020020135868e8e60405162000d9f959493929190620012b4565b60405180910390a45050808062000db6906200130e565b91505062000b63565b5060408051898152602081018790529081018590526001600160a01b038b169033907f622474ac9bff1023a7d3d001dff3ad2998d648469a0770949275a139c433bede9060600160405180910390a39998505050505050505050565b611dc6806200132b83390190565b80356001600160a01b0381168114620003e857600080fd5b60006020828403121562000e5457600080fd5b62000e5f8262000e29565b9392505050565b600080600080600080600060e0888a03121562000e8257600080fd5b62000e8d8862000e29565b965062000e9d6020890162000e29565b96999698505050506040850135946060810135946080820135945060a0820135935060c0909101359150565b60006020828403121562000edc57600080fd5b5035919050565b60008060008060008060c0878903121562000efd57600080fd5b62000f088762000e29565b955062000f186020880162000e29565b95989597505050506040840135936060810135936080820135935060a0909101359150565b60008083601f84011262000f5057600080fd5b5081356001600160401b0381111562000f6857600080fd5b6020830191508360208260051b850101111562000f8457600080fd5b9250929050565b60008060008060008060008060c0898b03121562000fa857600080fd5b62000fb38962000e29565b975060208901356001600160401b038082111562000fd057600080fd5b62000fde8c838d0162000f3d565b909950975060408b013591508082111562000ff857600080fd5b50620010078b828c0162000f3d565b999c989b5096999698976060880135976080810135975060a0013595509350505050565b6020808252825182820181905260009190848201906040850190845b818110156200106e5783516001600160a01b03168352928401929184019160010162001047565b50909695505050505050565b6020808252600990820152682737ba1037bbb732b960b91b604082015260600190565b6020808252600f908201526e125b9d985b1a59081c185e5b595b9d608a1b604082015260600190565b6000825160005b81811015620010e95760208186018101518583015201620010cd565b506000920191825250919050565b6020808252600d908201526c496e76616c696420706179656560981b604082015260600190565b6020808252600d908201526c24b73b30b634b2103a37b5b2b760991b604082015260600190565b6020808252601a908201527904d6f6e74686c7920616d6f756e74206d757374206265203e20360341b604082015260600190565b6020808252601c908201527b53746172742064617465206d75737420626520696e2066757475726560201b604082015260600190565b6020808252601990820152782a37ba30b61036b7b73a34399036bab9ba103132901896989960391b604082015260600190565b602080825260199082015278088c2f240decc40dadedce8d040daeae6e840c4ca40625a647603b1b604082015260600190565b634e487b7160e01b600052601160045260246000fd5b80820281158282048414176200063d576200063d62001215565b6000826200126357634e487b7160e01b600052601260045260246000fd5b500490565b6001600160a01b03998a168152978916602089015295881660408801526060870194909452608086019290925260a085015260c084015260e08301529091166101008201526101200190565b6001600160a01b03959095168552602085019390935260408401919091526060830152608082015260a00190565b634e487b7160e01b600052604160045260246000fd5b634e487b7160e01b600052603260045260246000fd5b60006001820162001323576200132362001215565b506001019056fe60a06040523480156200001157600080fd5b5060405162001dc638038062001dc6833981016040819052620000349162000428565b60016000556001600160a01b038916620000855760405162461bcd60e51b815260206004820152600d60248201526c24b73b30b634b2103830bcb2b960991b60448201526064015b60405180910390fd5b6001600160a01b038816620000cd5760405162461bcd60e51b815260206004820152600d60248201526c496e76616c696420706179656560981b60448201526064016200007c565b6001600160a01b038716620001155760405162461bcd60e51b815260206004820152600d60248201526c24b73b30b634b2103a37b5b2b760991b60448201526064016200007c565b60008611620001675760405162461bcd60e51b815260206004820152601a60248201527f4d6f6e74686c7920616d6f756e74206d757374206265203e203000000000000060448201526064016200007c565b428411620001b85760405162461bcd60e51b815260206004820152601c60248201527f53746172742064617465206d75737420626520696e206675747572650000000060448201526064016200007c565b60018310158015620001cb5750600c8311155b620002195760405162461bcd60e51b815260206004820152601960248201527f546f74616c206d6f6e746873206d75737420626520312d31320000000000000060448201526064016200007c565b600182101580156200022c5750601c8211155b6200027a5760405162461bcd60e51b815260206004820152601960248201527f446179206f66206d6f6e7468206d75737420626520312d32380000000000000060448201526064016200007c565b6001600160a01b038116620002d25760405162461bcd60e51b815260206004820152601660248201527f496e76616c69642070726f746f636f6c206f776e65720000000000000000000060448201526064016200007c565b600180546001600160a01b03808c166001600160a01b031992831617909255600280548b841690831617905560038054928a169290911691909117905560048690556127106200032460b388620004b6565b620003309190620004e2565b6006556005859055841562000364576127106200034f60b387620004b6565b6200035b9190620004e2565b6007556200036b565b6006546007555b60088490556009839055600a8290556001600160a01b0381811660809081526000600f819055600c5560035460025460015460045460065460408051928352602083019190915281018a90526060810189905293840187905291841693908116929116907fccba8aa02e1aee0ff839b5d136f5b254a570d25e1c7c3fc0c4956ef90baa15839060a00160405180910390a450505050505050505062000505565b80516001600160a01b03811681146200042357600080fd5b919050565b60008060008060008060008060006101208a8c0312156200044857600080fd5b620004538a6200040b565b98506200046360208b016200040b565b97506200047360408b016200040b565b965060608a0151955060808a0151945060a08a0151935060c08a0151925060e08a01519150620004a76101008b016200040b565b90509295985092959850929598565b8082028115828204841417620004dc57634e487b7160e01b600052601160045260246000fd5b92915050565b6000826200050057634e487b7160e01b600052601260045260246000fd5b500490565b60805161189e62000528600039600081816103060152610466015261189e6000f3fe608060405234801561001057600080fd5b506004361061016a5760003560e01c806303f7a68c1461016f5780630b97bc861461018a5780630d3e50fc1461019357806310786deb1461019d578063123119cd146101a7578063247b76f1146101c757806326446c92146101d057806328603738146101d95780633974eb80146101e25780633fb0d6ff146101f557806347d0cdcc146102285780634a85ed20146102305780634e69d560146102525780636588439c1461026b578063767edb63146102745780638d47b6201461028f5780639a82a09a146102b45780639d76ea58146102c1578063a525ad3c146102d4578063ae90b213146102dc578063b2077152146102ef578063bfcb3cb7146102f8578063c1d6ba6914610301578063c3cd31c714610328578063c92ae95914610331578063cfa498a3146103b0578063e2025b20146103b9578063e7b0f666146103c1578063ea8a1af0146103ca578063eed85390146103d2575b600080fd5b6101776103db565b6040519081526020015b60405180910390f35b61017760085481565b61019b61045b565b005b61017762278d0081565b6001546101ba906001600160a01b031681565b6040516101819190611500565b610177600f5481565b61017760055481565b610177600a5481565b61019b6101f0366004611530565b6104d1565b610218610203366004611572565b600e6020526000908152604090205460ff1681565b6040519015158152602001610181565b61019b61055a565b61024361023e36600461158b565b610d76565b604051610181939291906115ad565b61025a610db3565b604051610181959493929190611613565b61017760045481565b6101ba73a34edf91cc494450000eef08e6563062b2f115a981565b610297610f2a565b604080519315158452602084019290925290820152606001610181565b600d546102189060ff1681565b6003546101ba906001600160a01b031681565b61017760b381565b6002546101ba906001600160a01b031681565b61017760065481565b61017760075481565b6101ba7f000000000000000000000000000000000000000000000000000000000000000081565b61017760095481565b610339610fff565b604080516001600160a01b039e8f1681529c8e1660208e01529a909c16998b019990995260608a0197909752608089019590955260a088019390935260c087019190915260e0860152610100850152151561012084015261014083015215156101608201529015156101808201526101a001610181565b61017761271081565b610177611131565b610177600c5481565b61019b611197565b610177600b5481565b600354600154604051636eb1769f60e11b81526000926001600160a01b039081169263dd62ed3e926104159290911690309060040161164a565b602060405180830381865afa158015610432573d6000803e3d6000fd5b505050506040513d601f19601f820116820180604052508101906104569190611664565b905090565b336001600160a01b037f000000000000000000000000000000000000000000000000000000000000000016146104c75760405162461bcd60e51b815260206004820152600c60248201526b139bdd081c1c9bdd1bd8dbdb60a21b60448201526064015b60405180910390fd5b6104cf61055a565b565b33301461050c5760405162461bcd60e51b815260206004820152600960248201526827b7363c9039b2b63360b91b60448201526064016104be565b6003546001600160a01b0316610524818686866112ff565b8115610553576105536001600160a01b0382168673a34edf91cc494450000eef08e6563062b2f115a9856112ff565b5050505050565b61056261135f565b600d5460ff16156105a95760405162461bcd60e51b815260206004820152601160248201527014185e5b595b9d0818d85b98d95b1b1959607a1b60448201526064016104be565b6008544210156105f55760405162461bcd60e51b815260206004820152601760248201527614185e5b595b9d081b9bdd081cdd185c9d1959081e595d604a1b60448201526064016104be565b600954600f54106106485760405162461bcd60e51b815260206004820152601d60248201527f416c6c207061796d656e7420706572696f647320636f6d706c6574656400000060448201526064016104be565b600f546000818152600e602052604090205460ff16156106a85760405162461bcd60e51b815260206004820152601b60248201527a151a1a5cc81b5bdb9d1a08185b1c9958591e48195e1958dd5d1959602a1b60448201526064016104be565b60006106b762278d0083611693565b6008546106c491906116b0565b9050804210156107135760405162461bcd60e51b815260206004820152601a602482015279151bdbc819585c9b1e48199bdc881d1a1a5cc81c185e5b595b9d60321b60448201526064016104be565b60008215801561072557506000600554115b61073157600454610735565b6005545b905060008315801561074957506000600554115b61075557600654610759565b6007545b9050600061076782846116b0565b6003546001546040516370a0823160e01b815292935083926001600160a01b03928316926370a08231926107a092911690600401611500565b602060405180830381865afa1580156107bd573d6000803e3d6000fd5b505050506040513d601f19601f820116820180604052508101906107e19190611664565b101561091357600180546001600160a01b0316906108009087906116b0565b60008051602061185283398151915260405161084490602080825260149082015273496e73756666696369656e742062616c616e636560601b604082015260600190565b60405180910390a3846000036108dd576000858152600e60205260409020805460ff1916600190811790915561087b9086906116b0565b600f819055600d805460ff1916600190811790915554600b546009546001600160a01b0390921692600080516020611872833981519152926108bd91906116c3565b6040516108cb9291906116d6565b60405180910390a25050505050610d6c565b6000858152600e60205260408120805460ff19166001179055600f805491610904836116e4565b91905055505050505050610d6c565b600354600154604051636eb1769f60e11b815283926001600160a01b039081169263dd62ed3e9261094c9290911690309060040161164a565b602060405180830381865afa158015610969573d6000803e3d6000fd5b505050506040513d601f19601f8201168201806040525081019061098d9190611664565b10156109f257600180546001600160a01b0316906109ac9087906116b0565b60008051602061185283398151915260405161084490602080825260169082015275496e73756666696369656e7420616c6c6f77616e636560501b604082015260600190565b600354600154604051636eb1769f60e11b815283926001600160a01b039081169263dd62ed3e92610a2b9290911690309060040161164a565b602060405180830381865afa158015610a48573d6000803e3d6000fd5b505050506040513d601f19601f82011682018060405250810190610a6c9190611664565b1015610aae5760405162461bcd60e51b8152602060048201526011602482015270414c4c4f57414e43455f544f4f5f4c4f5760781b60448201526064016104be565b6001546002546040516272e9d760e71b81526001600160a01b0392831660048201529116602482015260448101849052606481018390523090633974eb8090608401600060405180830381600087803b158015610b0a57600080fd5b505af1925050508015610b1b575060015b610d3157610b276116fd565b806308c379a003610c635750610b3b611753565b80610b465750610c65565b600180546001600160a01b031690610b5f9088906116b0565b60008051602061185283398151915283604051602001610b7f91906117dc565b60408051601f1981840301815290829052610b9991611815565b60405180910390a385600003610c33576000868152600e60205260409020805460ff19166001908117909155610bd09087906116b0565b600f819055600d805460ff1916600190811790915554600b546009546001600160a01b039092169260008051602061187283398151915292610c1291906116c3565b604051610c209291906116d6565b60405180910390a2505050505050610d6c565b6000868152600e60205260409020805460ff19166001908117909155610c5a9087906116b0565b600f5550610d66565b505b600180546001600160a01b031690610c7e9087906116b0565b600080516020611852833981519152604051610ccb906020808252601f908201527f5472616e73666572206661696c65642028756e6b6e6f776e206572726f722900604082015260600190565b60405180910390a384600003610d02576000858152600e60205260409020805460ff1916600190811790915561087b9086906116b0565b6000858152600e60205260409020805460ff19166001908117909155610d299086906116b0565b600f55610d66565b6000858152600e60205260409020805460ff19166001908117909155610d589086906116b0565b600f55610d66858484611389565b50505050505b6104cf6001600055565b60008080612710610d8860b387611693565b610d92919061182f565b9250610d9e83866116b0565b9150610daa8483611693565b90509250925092565b600d5460609060009081908190819060ff1615610e4f576000600954600f5410610dde576000610dee565b600f54600954610dee91906116c3565b90506000600b54600f5411610e04576000610e14565b600b54600f54610e1491906116c3565b600b54600c5460408051808201909152600981526818d85b98d95b1b195960ba1b60208201529950909750929550919350909150610f239050565b600954600f5410610eb8576000600b5460095411610e6e576000610e7e565b600b54600954610e7e91906116c3565b600b54600c5460408051808201909152600981526818dbdb5c1b195d195960ba1b602082015298509096506000955093509150610f239050565b6000600f54600954610eca91906116c3565b90506000600b54600f5411610ee0576000610ef0565b600b54600f54610ef091906116c3565b600b54600c5460408051808201909152600681526561637469766560d01b60208201529950909750929550919350909150505b9091929394565b600080600080600954600f5410610f42576000610f52565b600f54600954610f5291906116c3565b9050600081600654600454610f6791906116b0565b610f719190611693565b600354600154604051636eb1769f60e11b81529293506000926001600160a01b039283169263dd62ed3e92610fad92911690309060040161164a565b602060405180830381865afa158015610fca573d6000803e3d6000fd5b505050506040513d601f19601f82011682018060405250810190610fee9190611664565b828110159792965094509092505050565b600080600080600080600080600080600080600080600090506000600d60009054906101000a900460ff1615801561103a5750600954600f54105b156110845762278d00600f546110509190611693565b60085461105d91906116b0565b91508142101580156110815750600f546000908152600e602052604090205460ff16155b90505b600d5460009060ff168061109c5750600954600f5410155b9050600160009054906101000a90046001600160a01b0316600260009054906101000a90046001600160a01b0316600360009054906101000a90046001600160a01b0316600454600654600854600954600a54600b54600d60009054906101000a900460ff168c8c8c9f509f509f509f509f509f509f509f509f509f509f509f509f50505050909192939495969798999a9b9c565b600d5460009060ff16156111455750600090565b600954600f54106111565750600090565b600062278d00600f546111699190611693565b60085461117691906116b0565b905080421061118757600091505090565b61119142826116c3565b91505090565b61119f61135f565b6001546001600160a01b031633146111f15760405162461bcd60e51b815260206004820152601560248201527413db9b1e481c185e595c8818d85b8818d85b98d95b605a1b60448201526064016104be565b600d5460ff16156112385760405162461bcd60e51b8152602060048201526011602482015270105b1c9958591e4818d85b98d95b1b1959607a1b60448201526064016104be565b6000600954600f541061124c57600061125c565b600f5460095461125c91906116c3565b9050600081116112ae5760405162461bcd60e51b815260206004820152601f60248201527f4e6f2072656d61696e696e67207061796d656e747320746f2063616e63656c0060448201526064016104be565b600d805460ff1916600190811790915554600b546040516001600160a01b0390921691600080516020611872833981519152916112ec9185906116d6565b60405180910390a2506104cf6001600055565b604080516001600160a01b0385811660248301528416604482015260648082018490528251808303909101815260849091019091526020810180516001600160e01b03166323b872dd60e01b17905261135990859061149c565b50505050565b60026000540361138257604051633ee5aeb560e01b815260040160405180910390fd5b6002600055565b600b8054906000611399836116e4565b919050555081600c60008282546113b091906116b0565b925050819055506000600954600f54106113cb5760006113e9565b62278d00600f546113dc9190611693565b6008546113e991906116b0565b6002549091506001600160a01b03166114038560016116b0565b7f7b1404bdb91dc49f5ae076071f80af302753bd5d3b299861de66f56a828651be858585604051611436939291906115ad565b60405180910390a3600954600f540361135957600254600b54600c546040516001600160a01b03909316927fb3ca1c952acfaa0ce116b82df50ba6eca680e859f7cca23b684ba04848c6d6d59261148e9290916116d6565b60405180910390a250505050565b600080602060008451602086016000885af1806114bf576040513d6000823e3d81fd5b50506000513d915081156114d75780600114156114e4565b6001600160a01b0384163b155b156113595783604051635274afe760e01b81526004016104be91905b6001600160a01b0391909116815260200190565b80356001600160a01b038116811461152b57600080fd5b919050565b6000806000806080858703121561154657600080fd5b61154f85611514565b935061155d60208601611514565b93969395505050506040820135916060013590565b60006020828403121561158457600080fd5b5035919050565b6000806040838503121561159e57600080fd5b50508035926020909101359150565b9283526020830191909152604082015260600190565b60005b838110156115de5781810151838201526020016115c6565b50506000910152565b600081518084526115ff8160208601602086016115c3565b601f01601f19169290920160200192915050565b60a08152600061162660a08301886115e7565b90508560208301528460408301528360608301528260808301529695505050505050565b6001600160a01b0392831681529116602082015260400190565b60006020828403121561167657600080fd5b5051919050565b634e487b7160e01b600052601160045260246000fd5b80820281158282048414176116aa576116aa61167d565b92915050565b808201808211156116aa576116aa61167d565b818103818111156116aa576116aa61167d565b918252602082015260400190565b6000600182016116f6576116f661167d565b5060010190565b600060033d11156117165760046000803e5060005160e01c5b90565b601f8201601f191681016001600160401b038111828210171561174c57634e487b7160e01b600052604160045260246000fd5b6040525050565b600060443d10156117615790565b6040516003193d81016004833e81513d6001600160401b03808311602484018310171561179057505050505090565b82850191508151818111156117a85750505050505090565b843d87010160208285010111156117c25750505050505090565b6117d160208286010187611719565b509095945050505050565b7002a3930b739b332b9103330b4b632b21d1607d1b8152600082516118088160118501602087016115c3565b9190910160110192915050565b60208152600061182860208301846115e7565b9392505050565b60008261184c57634e487b7160e01b600052601260045260246000fd5b50049056fec57cc88c889ba5082585c741abc3e2081475633a94f4706b2fa9652abb08b58e61b9c33e0e4d02b2162fc16b3687513680c424835fceaec6d62637b8048dd876a164736f6c6343000814000a4d5b5025a40c885cc1ee3d0f90faeb8e37ef123046233e022a75d3193724c134f0e2ef43bebd43456ad90b67b13e894a4d38aecf23cb2c0cb6dbe6819a2c1b9ca164736f6c6343000814000a",
  "linkReferences": {},
  "deployedLinkReferences": {}
}