{
  "_format": "hh-sol-artifact-1",
  "contractName": "RecurringPaymentERC20",
  "sourceName": "contracts-verify-old/RecurringPaymentERC20.sol",
  "abi": [
    {
      "inputs": [
        {
          "internalType": "address",
          "name": "_payer",
          "type": "address"
        },
        {
          "internalType": "address",
          "name": "_payee",
          "type": "address"
        },
        {
          "internalType": "address",
          "name": "_tokenAddress",
          "type": "address"
        },
        {
          "internalType": "uint256",
          "name": "_monthlyAmount",
          "type": "uint256"
        },
        {
          "internalType": "uint256",
          "name": "_firstMonthAmount",
          "type": "uint256"
        },
        {
          "internalType": "uint256",
          "name": "_startDate",
          "type": "uint256"
        },
        {
          "internalType": "uint256",
          "name": "_totalMonths",
          "type": "uint256"
        },
        {
          "internalType": "uint256",
          "name": "_dayOfMonth",
          "type": "uint256"
        },
        {
          "internalType": "address",
          "name": "_protocolOwner",
          "type": "address"
        }
      ],
      "stateMutability": "nonpayable",
      "type": "constructor"
    },
    {
      "inputs": [],
      "name": "ReentrancyGuardReentrantCall",
      "type": "error"
    },
    {
      "inputs": [
        {
          "internalType": "address",
          "name": "token",
          "type": "address"
        }
      ],
      "name": "SafeERC20FailedOperation",
      "type": "error"
    },
    {
      "anonymous": false,
      "inputs": [
        {
          "indexed": true,
          "internalType": "uint256",
          "name": "monthNumber",
          "type": "uint256"
        },
        {
          "indexed": true,
          "internalType": "address",
          "name": "payee",
          "type": "address"
        },
        {
          "indexed": false,
          "internalType": "uint256",
          "name": "amount",
          "type": "uint256"
        },
        {
          "indexed": false,
          "internalType": "uint256",
          "name": "protocolFee",
          "type": "uint256"
        },
        {
          "indexed": false,
          "internalType": "uint256",
          "name": "nextPaymentDate",
          "type": "uint256"
        }
      ],
      "name": "MonthlyPaymentExecuted",
      "type": "event"
    },
    {
      "anonymous": false,
      "inputs": [
        {
          "indexed": true,
          "internalType": "uint256",
          "name": "monthNumber",
          "type": "uint256"
        },
        {
          "indexed": true,
          "internalType": "address",
          "name": "payer",
          "type": "address"
        },
        {
          "indexed": false,
          "internalType": "string",
          "name": "reason",
          "type": "string"
        }
      ],
      "name": "MonthlyPaymentFailed",
      "type": "event"
    },
    {
      "anonymous": false,
      "inputs": [
        {
          "indexed": true,
          "internalType": "address",
          "name": "payer",
          "type": "address"
        },
        {
          "indexed": false,
          "internalType": "uint256",
          "name": "monthsExecuted",
          "type": "uint256"
        },
        {
          "indexed": false,
          "internalType": "uint256",
          "name": "monthsRemaining",
          "type": "uint256"
        }
      ],
      "name": "RecurringPaymentCancelled",
      "type": "event"
    },
    {
      "anonymous": false,
      "inputs": [
        {
          "indexed": true,
          "internalType": "address",
          "name": "payee",
          "type": "address"
        },
        {
          "indexed": false,
          "internalType": "uint256",
          "name": "monthsExecuted",
          "type": "uint256"
        },
        {
          "indexed": false,
          "internalType": "uint256",
          "name": "totalPaid",
          "type": "uint256"
        }
      ],
      "name": "RecurringPaymentCompleted",
      "type": "event"
    },
    {
      "anonymous": false,
      "inputs": [
        {
          "indexed": true,
          "internalType": "address",
          "name": "payer",
          "type": "address"
        },
        {
          "indexed": true,
          "internalType": "address",
          "name": "payee",
          "type": "address"
        },
        {
          "indexed": true,
          "internalType": "address",
          "name": "tokenAddress",
          "type": "address"
        },
        {
          "indexed": false,
          "internalType": "uint256",
          "name": "monthlyAmount",
          "type": "uint256"
        },
        {
          "indexed": false,
          "internalType": "uint256",
          "name": "protocolFeePerMonth",
          "type": "uint256"
        },
        {
          "indexed": false,
          "internalType": "uint256",
          "name": "startDate",
          "type": "uint256"
        },
        {
          "indexed": false,
          "internalType": "uint256",
          "name": "totalMonths",
          "type": "uint256"
        },
        {
          "indexed": false,
          "internalType": "uint256",
          "name": "dayOfMonth",
          "type": "uint256"
        }
      ],
      "name": "RecurringPaymentCreated",
      "type": "event"
    },
    {
      "inputs": [],
      "name": "BASIS_POINTS_DENOMINATOR",
      "outputs": [
        {
          "internalType": "uint256",
          "name": "",
          "type": "uint256"
        }
      ],
      "stateMutability": "view",
      "type": "function"
    },
    {
      "inputs": [],
      "name": "FEE_BASIS_POINTS",
      "outputs": [
        {
          "internalType": "uint256",
          "name": "",
          "type": "uint256"
        }
      ],
      "stateMutability": "view",
      "type": "function"
    },
    {
      "inputs": [],
      "name": "PROTOCOL_WALLET",
      "outputs": [
        {
          "internalType": "address",
          "name": "",
          "type": "address"
        }
      ],
      "stateMutability": "view",
      "type": "function"
    },
    {
      "inputs": [],
      "name": "SECONDS_PER_MONTH",
      "outputs": [
        {
          "internalType": "uint256",
          "name": "",
          "type": "uint256"
        }
      ],
      "stateMutability": "view",
      "type": "function"
    },
    {
      "inputs": [
        {
          "internalType": "address",
          "name": "_payer",
          "type": "address"
        },
        {
          "internalType": "address",
          "name": "_payee",
          "type": "address"
        },
        {
          "internalType": "uint256",
          "name": "_monthlyAmount",
          "type": "uint256"
        },
        {
          "internalType": "uint256",
          "name": "_protocolFeePerMonth",
          "type": "uint256"
        }
      ],
      "name": "_executeTransfers",
      "outputs": [],
      "stateMutability": "nonpayable",
      "type": "function"
    },
    {
      "inputs": [],
      "name": "adminExecutePayment",
      "outputs": [],
      "stateMutability": "nonpayable",
      "type": "function"
    },
    {
      "inputs": [
        {
          "internalType": "uint256",
          "name": "_monthlyAmount",
          "type": "uint256"
        },
        {
          "internalType": "uint256",
          "name": "_totalMonths",
          "type": "uint256"
        }
      ],
      "name": "calculateTotalRequired",
      "outputs": [
        {
          "internalType": "uint256",
          "name": "protocolFeePerMonth_",
          "type": "uint256"
        },
        {
          "internalType": "uint256",
          "name": "totalPerMonth",
          "type": "uint256"
        },
        {
          "internalType": "uint256",
          "name": "totalRequired",
          "type": "uint256"
        }
      ],
      "stateMutability": "pure",
      "type": "function"
    },
    {
      "inputs": [],
      "name": "cancel",
      "outputs": [],
      "stateMutability": "nonpayable",
      "type": "function"
    },
    {
      "inputs": [],
      "name": "cancelled",
      "outputs": [
        {
          "internalType": "bool",
          "name": "",
          "type": "bool"
        }
      ],
      "stateMutability": "view",
      "type": "function"
    },
    {
      "inputs": [],
      "name": "dayOfMonth",
      "outputs": [
        {
          "internalType": "uint256",
          "name": "",
          "type": "uint256"
        }
      ],
      "stateMutability": "view",
      "type": "function"
    },
    {
      "inputs": [],
      "name": "executeMonthlyPayment",
      "outputs": [],
      "stateMutability": "nonpayable",
      "type": "function"
    },
    {
      "inputs": [],
      "name": "executedMonths",
      "outputs": [
        {
          "internalType": "uint256",
          "name": "",
          "type": "uint256"
        }
      ],
      "stateMutability": "view",
      "type": "function"
    },
    {
      "inputs": [],
      "name": "firstMonthAmount",
      "outputs": [
        {
          "internalType": "uint256",
          "name": "",
          "type": "uint256"
        }
      ],
      "stateMutability": "view",
      "type": "function"
    },
    {
      "inputs": [],
      "name": "firstProtocolFee",
      "outputs": [
        {
          "internalType": "uint256",
          "name": "",
          "type": "uint256"
        }
      ],
      "stateMutability": "view",
      "type": "function"
    },
    {
      "inputs": [],
      "name": "getCurrentAllowance",
      "outputs": [
        {
          "internalType": "uint256",
          "name": "",
          "type": "uint256"
        }
      ],
      "stateMutability": "view",
      "type": "function"
    },
    {
      "inputs": [],
      "name": "getPaymentDetails",
      "outputs": [
        {
          "internalType": "address",
          "name": "_payer",
          "type": "address"
        },
        {
          "internalType": "address",
          "name": "_payee",
          "type": "address"
        },
        {
          "internalType": "address",
          "name": "_tokenAddress",
          "type": "address"
        },
        {
          "internalType": "uint256",
          "name": "_monthlyAmount",
          "type": "uint256"
        },
        {
          "internalType": "uint256",
          "name": "_protocolFeePerMonth",
          "type": "uint256"
        },
        {
          "internalType": "uint256",
          "name": "_startDate",
          "type": "uint256"
        },
        {
          "internalType": "uint256",
          "name": "_totalMonths",
          "type": "uint256"
        },
        {
          "internalType": "uint256",
          "name": "_dayOfMonth",
          "type": "uint256"
        },
        {
          "internalType": "uint256",
          "name": "_executedMonths",
          "type": "uint256"
        },
        {
          "internalType": "bool",
          "name": "_cancelled",
          "type": "bool"
        },
        {
          "internalType": "uint256",
          "name": "_nextPaymentDate",
          "type": "uint256"
        },
        {
          "internalType": "bool",
          "name": "_canExecute",
          "type": "bool"
        },
        {
          "internalType": "bool",
          "name": "_isCompleted",
          "type": "bool"
        }
      ],
      "stateMutability": "view",
      "type": "function"
    },
    {
      "inputs": [],
      "name": "getStatus",
      "outputs": [
        {
          "internalType": "string",
          "name": "status",
          "type": "string"
        },
        {
          "internalType": "uint256",
          "name": "monthsExecuted",
          "type": "uint256"
        },
        {
          "internalType": "uint256",
          "name": "monthsRemaining",
          "type": "uint256"
        },
        {
          "internalType": "uint256",
          "name": "amountPaid",
          "type": "uint256"
        },
        {
          "internalType": "uint256",
          "name": "monthsFailed",
          "type": "uint256"
        }
      ],
      "stateMutability": "view",
      "type": "function"
    },
    {
      "inputs": [],
      "name": "isAllowanceSufficient",
      "outputs": [
        {
          "internalType": "bool",
          "name": "sufficient",
          "type": "bool"
        },
        {
          "internalType": "uint256",
          "name": "required",
          "type": "uint256"
        },
        {
          "internalType": "uint256",
          "name": "current",
          "type": "uint256"
        }
      ],
      "stateMutability": "view",
      "type": "function"
    },
    {
      "inputs": [
        {
          "internalType": "uint256",
          "name": "",
          "type": "uint256"
        }
      ],
      "name": "monthExecuted",
      "outputs": [
        {
          "internalType": "bool",
          "name": "",
          "type": "bool"
        }
      ],
      "stateMutability": "view",
      "type": "function"
    },
    {
      "inputs": [],
      "name": "monthlyAmount",
      "outputs": [
        {
          "internalType": "uint256",
          "name": "",
          "type": "uint256"
        }
      ],
      "stateMutability": "view",
      "type": "function"
    },
    {
      "inputs": [],
      "name": "nextMonthToProcess",
      "outputs": [
        {
          "internalType": "uint256",
          "name": "",
          "type": "uint256"
        }
      ],
      "stateMutability": "view",
      "type": "function"
    },
    {
      "inputs": [],
      "name": "payee",
      "outputs": [
        {
          "internalType": "address",
          "name": "",
          "type": "address"
        }
      ],
      "stateMutability": "view",
      "type": "function"
    },
    {
      "inputs": [],
      "name": "payer",
      "outputs": [
        {
          "internalType": "address",
          "name": "",
          "type": "address"
        }
      ],
      "stateMutability": "view",
      "type": "function"
    },
    {
      "inputs": [],
      "name": "protocolFeePerMonth",
      "outputs": [
        {
          "internalType": "uint256",
          "name": "",
          "type": "uint256"
        }
      ],
      "stateMutability": "view",
      "type": "function"
    },
    {
      "inputs": [],
      "name": "protocolOwner",
      "outputs": [
        {
          "internalType": "address",
          "name": "",
          "type": "address"
        }
      ],
      "stateMutability": "view",
      "type": "function"
    },
    {
      "inputs": [],
      "name": "startDate",
      "outputs": [
        {
          "internalType": "uint256",
          "name": "",
          "type": "uint256"
        }
      ],
      "stateMutability": "view",
      "type": "function"
    },
    {
      "inputs": [],
      "name": "timeUntilNextPayment",
      "outputs": [
        {
          "internalType": "uint256",
          "name": "",
          "type": "uint256"
        }
      ],
      "stateMutability": "view",
      "type": "function"
    },
    {
      "inputs": [],
      "name": "tokenAddress",
      "outputs": [
        {
          "internalType": "address",
          "name": "",
          "type": "address"
        }
      ],
      "stateMutability": "view",
      "type": "function"
    },
    {
      "inputs": [],
      "name": "totalMonths",
      "outputs": [
        {
          "internalType": "uint256",
          "name": "",
          "type": "uint256"
        }
      ],
      "stateMutability": "view",
      "type": "function"
    },
    {
      "inputs": [],
      "name": "totalPaid",
      "outputs": [
        {
          "internalType": "uint256",
          "name": "",
          "type": "uint256"
        }
      ],
      "stateMutability": "view",
      "type": "function"
    }
  ],
  "bytecode": "0x60a06040523480156200001157600080fd5b5060405162001e3738038062001e37833981016040819052620000349162000428565b60016000556001600160a01b038916620000855760405162461bcd60e51b815260206004820152600d60248201526c24b73b30b634b2103830bcb2b960991b60448201526064015b60405180910390fd5b6001600160a01b038816620000cd5760405162461bcd60e51b815260206004820152600d60248201526c496e76616c696420706179656560981b60448201526064016200007c565b6001600160a01b038716620001155760405162461bcd60e51b815260206004820152600d60248201526c24b73b30b634b2103a37b5b2b760991b60448201526064016200007c565b60008611620001675760405162461bcd60e51b815260206004820152601a60248201527f4d6f6e74686c7920616d6f756e74206d757374206265203e203000000000000060448201526064016200007c565b428411620001b85760405162461bcd60e51b815260206004820152601c60248201527f53746172742064617465206d75737420626520696e206675747572650000000060448201526064016200007c565b60018310158015620001cb5750600c8311155b620002195760405162461bcd60e51b815260206004820152601960248201527f546f74616c206d6f6e746873206d75737420626520312d31320000000000000060448201526064016200007c565b600182101580156200022c5750601c8211155b6200027a5760405162461bcd60e51b815260206004820152601960248201527f446179206f66206d6f6e7468206d75737420626520312d32380000000000000060448201526064016200007c565b6001600160a01b038116620002d25760405162461bcd60e51b815260206004820152601660248201527f496e76616c69642070726f746f636f6c206f776e65720000000000000000000060448201526064016200007c565b600180546001600160a01b03808c166001600160a01b031992831617909255600280548b841690831617905560038054928a169290911691909117905560048690556127106200032460b388620004b6565b620003309190620004e2565b6006556005859055841562000364576127106200034f60b387620004b6565b6200035b9190620004e2565b6007556200036b565b6006546007555b60088490556009839055600a8290556001600160a01b0381811660809081526000600f819055600c5560035460025460015460045460065460408051928352602083019190915281018a90526060810189905293840187905291841693908116929116907fccba8aa02e1aee0ff839b5d136f5b254a570d25e1c7c3fc0c4956ef90baa15839060a00160405180910390a450505050505050505062000505565b80516001600160a01b03811681146200042357600080fd5b919050565b60008060008060008060008060006101208a8c0312156200044857600080fd5b620004538a6200040b565b98506200046360208b016200040b565b97506200047360408b016200040b565b965060608a0151955060808a0151945060a08a0151935060c08a0151925060e08a01519150620004a76101008b016200040b565b90509295985092959850929598565b8082028115828204841417620004dc57634e487b7160e01b600052601160045260246000fd5b92915050565b6000826200050057634e487b7160e01b600052601260045260246000fd5b500490565b60805161190f620005286000396000818161038d01526104ed015261190f6000f3fe608060405234801561001057600080fd5b50600436106101da5760003560e01c80638d47b62011610104578063c1d6ba69116100a2578063e2025b2011610071578063e2025b2014610440578063e7b0f66614610448578063ea8a1af014610451578063eed853901461045957600080fd5b8063c1d6ba6914610388578063c3cd31c7146103af578063c92ae959146103b8578063cfa498a31461043757600080fd5b8063a525ad3c116100de578063a525ad3c1461035b578063ae90b21314610363578063b207715214610376578063bfcb3cb71461037f57600080fd5b80638d47b620146103165780639a82a09a1461033b5780639d76ea581461034857600080fd5b8063286037381161017c5780634a85ed201161014b5780634a85ed20146102ab5780634e69d560146102d95780636588439c146102f2578063767edb63146102fb57600080fd5b806328603738146102545780633974eb801461025d5780633fb0d6ff1461027057806347d0cdcc146102a357600080fd5b806310786deb116101b857806310786deb1461020d578063123119cd14610217578063247b76f11461024257806326446c921461024b57600080fd5b806303f7a68c146101df5780630b97bc86146101fa5780630d3e50fc14610203575b600080fd5b6101e7610462565b6040519081526020015b60405180910390f35b6101e760085481565b61020b6104e2565b005b6101e762278d0081565b60015461022a906001600160a01b031681565b6040516001600160a01b0390911681526020016101f1565b6101e7600f5481565b6101e760055481565b6101e7600a5481565b61020b61026b3660046115fd565b610558565b61029361027e36600461163f565b600e6020526000908152604090205460ff1681565b60405190151581526020016101f1565b61020b6105e1565b6102be6102b9366004611658565b610e2b565b604080519384526020840192909252908201526060016101f1565b6102e1610e68565b6040516101f19594939291906116ca565b6101e760045481565b61022a73a34edf91cc494450000eef08e6563062b2f115a981565b61031e610fdf565b6040805193151584526020840192909252908201526060016101f1565b600d546102939060ff1681565b60035461022a906001600160a01b031681565b6101e760b381565b60025461022a906001600160a01b031681565b6101e760065481565b6101e760075481565b61022a7f000000000000000000000000000000000000000000000000000000000000000081565b6101e760095481565b6103c06110b3565b604080516001600160a01b039e8f1681529c8e1660208e01529a909c16998b019990995260608a0197909752608089019590955260a088019390935260c087019190915260e0860152610100850152151561012084015261014083015215156101608201529015156101808201526101a0016101f1565b6101e761271081565b6101e76111e5565b6101e7600c5481565b61020b61124b565b6101e7600b5481565b600354600154604051636eb1769f60e11b81526001600160a01b039182166004820152306024820152600092919091169063dd62ed3e90604401602060405180830381865afa1580156104b9573d6000803e3d6000fd5b505050506040513d601f19601f820116820180604052508101906104dd9190611701565b905090565b336001600160a01b037f0000000000000000000000000000000000000000000000000000000000000000161461054e5760405162461bcd60e51b815260206004820152600c60248201526b139bdd081c1c9bdd1bd8dbdb60a21b60448201526064015b60405180910390fd5b6105566105e1565b565b3330146105935760405162461bcd60e51b815260206004820152600960248201526827b7363c9039b2b63360b91b6044820152606401610545565b6003546001600160a01b03166105ab818686866113c6565b81156105da576105da6001600160a01b0382168673a34edf91cc494450000eef08e6563062b2f115a9856113c6565b5050505050565b6105e9611426565b600d5460ff16156106305760405162461bcd60e51b815260206004820152601160248201527014185e5b595b9d0818d85b98d95b1b1959607a1b6044820152606401610545565b6008544210156106825760405162461bcd60e51b815260206004820152601760248201527f5061796d656e74206e6f742073746172746564207965740000000000000000006044820152606401610545565b600954600f54106106d55760405162461bcd60e51b815260206004820152601d60248201527f416c6c207061796d656e7420706572696f647320636f6d706c657465640000006044820152606401610545565b600f546000818152600e602052604090205460ff16156107375760405162461bcd60e51b815260206004820152601b60248201527f54686973206d6f6e746820616c726561647920657865637574656400000000006044820152606401610545565b600061074662278d0083611730565b600854610753919061174d565b9050804210156107a55760405162461bcd60e51b815260206004820152601a60248201527f546f6f206561726c7920666f722074686973207061796d656e740000000000006044820152606401610545565b6000821580156107b757506000600554115b6107c3576004546107c7565b6005545b90506000831580156107db57506000600554115b6107e7576006546107eb565b6007545b905060006107f9828461174d565b6003546001546040516370a0823160e01b81526001600160a01b03918216600482015292935083929116906370a0823190602401602060405180830381865afa15801561084a573d6000803e3d6000fd5b505050506040513d601f19601f8201168201806040525081019061086e9190611701565b10156109b457600180546001600160a01b03169061088d90879061174d565b6000805160206118e38339815191526040516108d190602080825260149082015273496e73756666696369656e742062616c616e636560601b604082015260600190565b60405180910390a38460000361097e576000858152600e60205260409020805460ff1916600190811790915561090890869061174d565b600f819055600d805460ff1916600190811790915554600b546009546001600160a01b03909216927f61b9c33e0e4d02b2162fc16b3687513680c424835fceaec6d62637b8048dd8769261095c9190611760565b6040805192835260208301919091520160405180910390a25050505050610e21565b6000858152600e60205260408120805460ff19166001179055600f8054916109a583611773565b91905055505050505050610e21565b600354600154604051636eb1769f60e11b81526001600160a01b0391821660048201523060248201528392919091169063dd62ed3e90604401602060405180830381865afa158015610a0a573d6000803e3d6000fd5b505050506040513d601f19601f82011682018060405250810190610a2e9190611701565b1015610a9357600180546001600160a01b031690610a4d90879061174d565b6000805160206118e38339815191526040516108d190602080825260169082015275496e73756666696369656e7420616c6c6f77616e636560501b604082015260600190565b600354600154604051636eb1769f60e11b81526001600160a01b0391821660048201523060248201528392919091169063dd62ed3e90604401602060405180830381865afa158015610ae9573d6000803e3d6000fd5b505050506040513d601f19601f82011682018060405250810190610b0d9190611701565b1015610b4f5760405162461bcd60e51b8152602060048201526011602482015270414c4c4f57414e43455f544f4f5f4c4f5760781b6044820152606401610545565b6001546002546040516272e9d760e71b81526001600160a01b0392831660048201529116602482015260448101849052606481018390523090633974eb8090608401600060405180830381600087803b158015610bab57600080fd5b505af1925050508015610bbc575060015b610de657610bc861178c565b806308c379a003610d185750610bdc6117e3565b80610be75750610d1a565b600180546001600160a01b031690610c0090889061174d565b6000805160206118e383398151915283604051602001610c20919061186d565b60408051601f1981840301815290829052610c3a916118a6565b60405180910390a385600003610ce8576000868152600e60205260409020805460ff19166001908117909155610c7190879061174d565b600f819055600d805460ff1916600190811790915554600b546009546001600160a01b03909216927f61b9c33e0e4d02b2162fc16b3687513680c424835fceaec6d62637b8048dd87692610cc59190611760565b6040805192835260208301919091520160405180910390a2505050505050610e21565b6000868152600e60205260409020805460ff19166001908117909155610d0f90879061174d565b600f5550610e1b565b505b600180546001600160a01b031690610d3390879061174d565b6000805160206118e3833981519152604051610d80906020808252601f908201527f5472616e73666572206661696c65642028756e6b6e6f776e206572726f722900604082015260600190565b60405180910390a384600003610db7576000858152600e60205260409020805460ff1916600190811790915561090890869061174d565b6000858152600e60205260409020805460ff19166001908117909155610dde90869061174d565b600f55610e1b565b6000858152600e60205260409020805460ff19166001908117909155610e0d90869061174d565b600f55610e1b858484611450565b50505050505b6105566001600055565b60008080612710610e3d60b387611730565b610e4791906118c0565b9250610e53838661174d565b9150610e5f8483611730565b90509250925092565b600d5460609060009081908190819060ff1615610f04576000600954600f5410610e93576000610ea3565b600f54600954610ea39190611760565b90506000600b54600f5411610eb9576000610ec9565b600b54600f54610ec99190611760565b600b54600c5460408051808201909152600981526818d85b98d95b1b195960ba1b60208201529950909750929550919350909150610fd89050565b600954600f5410610f6d576000600b5460095411610f23576000610f33565b600b54600954610f339190611760565b600b54600c5460408051808201909152600981526818dbdb5c1b195d195960ba1b602082015298509096506000955093509150610fd89050565b6000600f54600954610f7f9190611760565b90506000600b54600f5411610f95576000610fa5565b600b54600f54610fa59190611760565b600b54600c5460408051808201909152600681526561637469766560d01b60208201529950909750929550919350909150505b9091929394565b600080600080600954600f5410610ff7576000611007565b600f546009546110079190611760565b905060008160065460045461101c919061174d565b6110269190611730565b600354600154604051636eb1769f60e11b81526001600160a01b03918216600482015230602482015292935060009291169063dd62ed3e90604401602060405180830381865afa15801561107e573d6000803e3d6000fd5b505050506040513d601f19601f820116820180604052508101906110a29190611701565b828110159792965094509092505050565b600080600080600080600080600080600080600080600090506000600d60009054906101000a900460ff161580156110ee5750600954600f54105b156111385762278d00600f546111049190611730565b600854611111919061174d565b91508142101580156111355750600f546000908152600e602052604090205460ff16155b90505b600d5460009060ff16806111505750600954600f5410155b9050600160009054906101000a90046001600160a01b0316600260009054906101000a90046001600160a01b0316600360009054906101000a90046001600160a01b0316600454600654600854600954600a54600b54600d60009054906101000a900460ff168c8c8c9f509f509f509f509f509f509f509f509f509f509f509f509f50505050909192939495969798999a9b9c565b600d5460009060ff16156111f95750600090565b600954600f541061120a5750600090565b600062278d00600f5461121d9190611730565b60085461122a919061174d565b905080421061123b57600091505090565b6112454282611760565b91505090565b611253611426565b6001546001600160a01b031633146112a55760405162461bcd60e51b815260206004820152601560248201527413db9b1e481c185e595c8818d85b8818d85b98d95b605a1b6044820152606401610545565b600d5460ff16156112ec5760405162461bcd60e51b8152602060048201526011602482015270105b1c9958591e4818d85b98d95b1b1959607a1b6044820152606401610545565b6000600954600f5410611300576000611310565b600f546009546113109190611760565b9050600081116113625760405162461bcd60e51b815260206004820152601f60248201527f4e6f2072656d61696e696e67207061796d656e747320746f2063616e63656c006044820152606401610545565b600d805460ff1916600190811790915554600b5460408051918252602082018490526001600160a01b03909216917f61b9c33e0e4d02b2162fc16b3687513680c424835fceaec6d62637b8048dd876910160405180910390a2506105566001600055565b604080516001600160a01b0385811660248301528416604482015260648082018490528251808303909101815260849091019091526020810180516001600160e01b03166323b872dd60e01b179052611420908590611570565b50505050565b60026000540361144957604051633ee5aeb560e01b815260040160405180910390fd5b6002600055565b600b805490600061146083611773565b919050555081600c6000828254611477919061174d565b925050819055506000600954600f54106114925760006114b0565b62278d00600f546114a39190611730565b6008546114b0919061174d565b6002549091506001600160a01b03166114ca85600161174d565b60408051868152602081018690529081018490527f7b1404bdb91dc49f5ae076071f80af302753bd5d3b299861de66f56a828651be9060600160405180910390a3600954600f540361142057600254600b54600c546040516001600160a01b03909316927fb3ca1c952acfaa0ce116b82df50ba6eca680e859f7cca23b684ba04848c6d6d59261156292908252602082015260400190565b60405180910390a250505050565b600080602060008451602086016000885af180611593576040513d6000823e3d81fd5b50506000513d915081156115ab5780600114156115b8565b6001600160a01b0384163b155b1561142057604051635274afe760e01b81526001600160a01b0385166004820152602401610545565b80356001600160a01b03811681146115f857600080fd5b919050565b6000806000806080858703121561161357600080fd5b61161c856115e1565b935061162a602086016115e1565b93969395505050506040820135916060013590565b60006020828403121561165157600080fd5b5035919050565b6000806040838503121561166b57600080fd5b50508035926020909101359150565b60005b8381101561169557818101518382015260200161167d565b50506000910152565b600081518084526116b681602086016020860161167a565b601f01601f19169290920160200192915050565b60a0815260006116dd60a083018861169e565b90508560208301528460408301528360608301528260808301529695505050505050565b60006020828403121561171357600080fd5b5051919050565b634e487b7160e01b600052601160045260246000fd5b80820281158282048414176117475761174761171a565b92915050565b808201808211156117475761174761171a565b818103818111156117475761174761171a565b6000600182016117855761178561171a565b5060010190565b600060033d11156117a55760046000803e5060005160e01c5b90565b601f8201601f1916810167ffffffffffffffff811182821017156117dc57634e487b7160e01b600052604160045260246000fd5b6040525050565b600060443d10156117f15790565b6040516003193d81016004833e81513d67ffffffffffffffff816024840111818411171561182157505050505090565b82850191508151818111156118395750505050505090565b843d87010160208285010111156118535750505050505090565b611862602082860101876117a8565b509095945050505050565b7002a3930b739b332b9103330b4b632b21d1607d1b81526000825161189981601185016020870161167a565b9190910160110192915050565b6020815260006118b9602083018461169e565b9392505050565b6000826118dd57634e487b7160e01b600052601260045260246000fd5b50049056fec57cc88c889ba5082585c741abc3e2081475633a94f4706b2fa9652abb08b58ea164736f6c6343000814000a",
  "linkReferences": {},
  "deployedLinkReferences": {}
}