{
  "_format": "hh-sol-artifact-1",
  "contractName": "PaymentFactory_Recurring",
  "sourceName": "contracts/PaymentFactory_Recurring.sol",
  "abi": [
    {
      "inputs": [],
      "stateMutability": "nonpayable",
      "type": "constructor"
    },
    {
      "anonymous": false,
      "inputs": [
        {
          "indexed": true,
          "internalType": "address",
          "name": "admin",
          "type": "address"
        },
        {
          "indexed": true,
          "internalType": "address",
          "name": "paymentContract",
          "type": "address"
        },
        {
          "indexed": false,
          "internalType": "bool",
          "name": "success",
          "type": "bool"
        }
      ],
      "name": "AdminCancelAttempt",
      "type": "event"
    },
    {
      "anonymous": false,
      "inputs": [
        {
          "indexed": true,
          "internalType": "address",
          "name": "admin",
          "type": "address"
        },
        {
          "indexed": true,
          "internalType": "address",
          "name": "paymentContract",
          "type": "address"
        }
      ],
      "name": "AdminExecuted",
      "type": "event"
    },
    {
      "anonymous": false,
      "inputs": [
        {
          "indexed": true,
          "internalType": "address",
          "name": "payer",
          "type": "address"
        },
        {
          "indexed": true,
          "internalType": "address",
          "name": "tokenAddress",
          "type": "address"
        },
        {
          "indexed": false,
          "internalType": "uint256",
          "name": "count",
          "type": "uint256"
        },
        {
          "indexed": false,
          "internalType": "uint256",
          "name": "startDate",
          "type": "uint256"
        },
        {
          "indexed": false,
          "internalType": "uint256",
          "name": "totalMonths",
          "type": "uint256"
        }
      ],
      "name": "BatchRecurringPaymentCreatedERC20",
      "type": "event"
    },
    {
      "anonymous": false,
      "inputs": [
        {
          "indexed": true,
          "internalType": "address",
          "name": "wallet",
          "type": "address"
        },
        {
          "indexed": false,
          "internalType": "bool",
          "name": "isPro",
          "type": "bool"
        }
      ],
      "name": "ProWalletUpdated",
      "type": "event"
    },
    {
      "anonymous": false,
      "inputs": [
        {
          "indexed": true,
          "internalType": "address",
          "name": "payer",
          "type": "address"
        },
        {
          "indexed": true,
          "internalType": "address",
          "name": "payee",
          "type": "address"
        },
        {
          "indexed": true,
          "internalType": "address",
          "name": "tokenAddress",
          "type": "address"
        },
        {
          "indexed": false,
          "internalType": "address",
          "name": "paymentContract",
          "type": "address"
        },
        {
          "indexed": false,
          "internalType": "uint256",
          "name": "monthlyAmount",
          "type": "uint256"
        },
        {
          "indexed": false,
          "internalType": "uint256",
          "name": "protocolFeePerMonth",
          "type": "uint256"
        },
        {
          "indexed": false,
          "internalType": "uint256",
          "name": "startDate",
          "type": "uint256"
        },
        {
          "indexed": false,
          "internalType": "uint256",
          "name": "totalMonths",
          "type": "uint256"
        }
      ],
      "name": "RecurringPaymentCreatedERC20",
      "type": "event"
    },
    {
      "inputs": [],
      "name": "BASIS_POINTS_DENOMINATOR",
      "outputs": [
        {
          "internalType": "uint256",
          "name": "",
          "type": "uint256"
        }
      ],
      "stateMutability": "view",
      "type": "function"
    },
    {
      "inputs": [],
      "name": "FACTORY_OWNER",
      "outputs": [
        {
          "internalType": "address",
          "name": "",
          "type": "address"
        }
      ],
      "stateMutability": "view",
      "type": "function"
    },
    {
      "inputs": [],
      "name": "FEE_BPS_PARTICULAR",
      "outputs": [
        {
          "internalType": "uint256",
          "name": "",
          "type": "uint256"
        }
      ],
      "stateMutability": "view",
      "type": "function"
    },
    {
      "inputs": [],
      "name": "FEE_BPS_PRO",
      "outputs": [
        {
          "internalType": "uint256",
          "name": "",
          "type": "uint256"
        }
      ],
      "stateMutability": "view",
      "type": "function"
    },
    {
      "inputs": [],
      "name": "PROTOCOL_WALLET",
      "outputs": [
        {
          "internalType": "address",
          "name": "",
          "type": "address"
        }
      ],
      "stateMutability": "view",
      "type": "function"
    },
    {
      "inputs": [
        {
          "internalType": "address",
          "name": "paymentContract",
          "type": "address"
        }
      ],
      "name": "adminCancel",
      "outputs": [
        {
          "internalType": "bool",
          "name": "success",
          "type": "bool"
        }
      ],
      "stateMutability": "nonpayable",
      "type": "function"
    },
    {
      "inputs": [
        {
          "internalType": "address",
          "name": "paymentContract",
          "type": "address"
        }
      ],
      "name": "adminExecutePayment",
      "outputs": [],
      "stateMutability": "nonpayable",
      "type": "function"
    },
    {
      "inputs": [
        {
          "internalType": "address",
          "name": "_tokenAddress",
          "type": "address"
        },
        {
          "internalType": "address[]",
          "name": "_payees",
          "type": "address[]"
        },
        {
          "internalType": "uint256[]",
          "name": "_monthlyAmounts",
          "type": "uint256[]"
        },
        {
          "internalType": "uint256",
          "name": "_startDate",
          "type": "uint256"
        },
        {
          "internalType": "uint256",
          "name": "_totalMonths",
          "type": "uint256"
        },
        {
          "internalType": "uint256",
          "name": "_dayOfMonth",
          "type": "uint256"
        }
      ],
      "name": "createBatchRecurringPaymentERC20",
      "outputs": [
        {
          "internalType": "address[]",
          "name": "",
          "type": "address[]"
        }
      ],
      "stateMutability": "nonpayable",
      "type": "function"
    },
    {
      "inputs": [
        {
          "internalType": "address",
          "name": "_payee",
          "type": "address"
        },
        {
          "internalType": "address",
          "name": "_tokenAddress",
          "type": "address"
        },
        {
          "internalType": "uint256",
          "name": "_monthlyAmount",
          "type": "uint256"
        },
        {
          "internalType": "uint256",
          "name": "_startDate",
          "type": "uint256"
        },
        {
          "internalType": "uint256",
          "name": "_totalMonths",
          "type": "uint256"
        },
        {
          "internalType": "uint256",
          "name": "_dayOfMonth",
          "type": "uint256"
        }
      ],
      "name": "createRecurringPaymentERC20",
      "outputs": [
        {
          "internalType": "address",
          "name": "",
          "type": "address"
        }
      ],
      "stateMutability": "nonpayable",
      "type": "function"
    },
    {
      "inputs": [
        {
          "internalType": "address",
          "name": "_payee",
          "type": "address"
        },
        {
          "internalType": "address",
          "name": "_tokenAddress",
          "type": "address"
        },
        {
          "internalType": "uint256",
          "name": "_monthlyAmount",
          "type": "uint256"
        },
        {
          "internalType": "uint256",
          "name": "_firstMonthAmount",
          "type": "uint256"
        },
        {
          "internalType": "uint256",
          "name": "_startDate",
          "type": "uint256"
        },
        {
          "internalType": "uint256",
          "name": "_totalMonths",
          "type": "uint256"
        },
        {
          "internalType": "uint256",
          "name": "_dayOfMonth",
          "type": "uint256"
        }
      ],
      "name": "createRecurringPaymentERC20_V2",
      "outputs": [
        {
          "internalType": "address",
          "name": "",
          "type": "address"
        }
      ],
      "stateMutability": "nonpayable",
      "type": "function"
    },
    {
      "inputs": [
        {
          "internalType": "address",
          "name": "",
          "type": "address"
        }
      ],
      "name": "isProWallet",
      "outputs": [
        {
          "internalType": "bool",
          "name": "",
          "type": "bool"
        }
      ],
      "stateMutability": "view",
      "type": "function"
    },
    {
      "inputs": [
        {
          "internalType": "uint256",
          "name": "monthlyAmount",
          "type": "uint256"
        },
        {
          "internalType": "address",
          "name": "payer",
          "type": "address"
        }
      ],
      "name": "previewFeePerMonth",
      "outputs": [
        {
          "internalType": "uint256",
          "name": "",
          "type": "uint256"
        }
      ],
      "stateMutability": "view",
      "type": "function"
    },
    {
      "inputs": [
        {
          "internalType": "address",
          "name": "wallet",
          "type": "address"
        },
        {
          "internalType": "bool",
          "name": "isPro",
          "type": "bool"
        }
      ],
      "name": "setProWallet",
      "outputs": [],
      "stateMutability": "nonpayable",
      "type": "function"
    },
    {
      "inputs": [
        {
          "internalType": "address[]",
          "name": "wallets",
          "type": "address[]"
        },
        {
          "internalType": "bool",
          "name": "isPro",
          "type": "bool"
        }
      ],
      "name": "setProWallets",
      "outputs": [],
      "stateMutability": "nonpayable",
      "type": "function"
    }
  ],
  "bytecode": "0x60a0806040523461003f5733608052612f86908161004582396080518181816105630152818161068f01528181610929015281816109f50152610cb50152f35b600080fdfe608060405260043610156200001357600080fd5b60003560e01c806302443c2c1462000cf4578063242402ec1462000c8b5780632ee79b881462000c485780633c3670f41462000a245780635935cbfe14620009dd5780636e0e7b4914620009bf578063767edb63146200098e5780638179b61d14620008ce57806383233efd14620007465780638fe5a1bb146200063f578063b57ce9331462000534578063cfa498a31462000515578063d175a13714620004f75763dff9436314620000c557600080fd5b34620004f25760c0366003190112620004f257620000e262000d4d565b60243567ffffffffffffffff8111620004f2576200010590369060040162000d74565b909160443567ffffffffffffffff8111620004f2576200012a90369060040162000d74565b909390620001436001600160a01b038416151562000ea8565b8315620004c157603284116200048c5780840362000455576200016a426064351162000f32565b600160843510158062000447575b620001839062000f7f565b600160a43510158062000439575b6200019c9062000fcc565b620001a784620010ff565b94620001b76040519687620010dc565b848652601f19620001c886620010ff565b01366020880137620001da3362001094565b60005b8681106200027d578787876040519182526064356020830152608435604083015260018060a01b0316907f622474ac9bff1023a7d3d001dff3ad2998d648469a0770949275a139c433bede60603392a360405180916020820160208352815180915260206040840192019060005b8181106200025a575050500390f35b82516001600160a01b03168452859450602093840193909201916001016200024b565b620002a96001600160a01b03620002a06200029a848b8a62000e45565b62000e56565b16151562000e6b565b620002c3620002ba82868662000e45565b35151562000ee5565b620002d46200029a82898862000e45565b620002e182868662000e45565b356040519182611cee81011067ffffffffffffffff611cee850111176200042357846200032c918493611cee6200128c863960a43591608435918d6064359233611cee8a016200102d565b03906000f0908115620004175788518110156200040157620003fb9160018060a01b03168060208360051b8c010152612710620003778562000370858a8a62000e45565b3562001019565b04906200038a6200029a848c8b62000e45565b917f4d5b5025a40c885cc1ee3d0f90faeb8e37ef123046233e022a75d3193724c134620003b9858a8a62000e45565b604080516001600160a01b03958616815291356020830152810192909252606435606083015260843560808301528a83169390921691339160a090a462000e1f565b620001dd565b634e487b7160e01b600052603260045260246000fd5b6040513d6000823e3d90fd5b634e487b7160e01b600052604160045260246000fd5b50601c60a435111562000191565b50600c608435111562000178565b60405162461bcd60e51b815260206004820152600f60248201526e098cadccee8d040dad2e6dac2e8c6d608b1b6044820152606490fd5b60405162461bcd60e51b815260206004820152600d60248201526c4d61782035302070617965657360981b6044820152606490fd5b60405162461bcd60e51b81526020600482015260096024820152684e6f2070617965657360b81b6044820152606490fd5b600080fd5b34620004f2576000366003190112620004f2576020604051609c8152f35b34620004f2576000366003190112620004f25760206040516127108152f35b34620004f2576020366003190112620004f2576200055162000d4d565b6000806001600160a01b036200058b337f000000000000000000000000000000000000000000000000000000000000000083161462000da8565b8316926200059b84151562001118565b6040518260208201916311f4337360e21b835260048152620005bd81620010bf565b51925af1620005cb62001157565b5015620005fa57337fce0ff9f85d25f25d3dafbbfd9039a8f27845cca7ef6a277639e66edf4fe7bc00600080a3005b60405162461bcd60e51b815260206004820152601c60248201527f657865637574654d6f6e74686c795061796d656e74206661696c6564000000006044820152606490fd5b34620004f2576040366003190112620004f25760043567ffffffffffffffff8111620004f2576200067590369060040162000d74565b6200067f62000d64565b6001600160a01b0391620006b7337f000000000000000000000000000000000000000000000000000000000000000085161462000da8565b8115159160005b828110620006c857005b8085620006df6200029a6200074094878b62000e45565b16620006ed81151562000de1565b806000527f641712e629a3027d9c666be58a842c7c82b8eb4faad3473f1f98a3395c1a55d3602060008152620007338660406000209060ff801983541691151516179055565b604051888152a262000e1f565b620006be565b34620004f25760c0366003190112620004f2576200076362000d4d565b6200076d62000d36565b90608435906001600160a01b03808216906044359060643560a4356200079585151562000e6b565b82881695620007a687151562000ea8565b620007b385151562000ee5565b620007c042841162000f32565b600188101580620008c2575b620007d79062000f7f565b600182101580620008b6575b620007ee9062000fcc565b620007f93362001094565b98612710620008098b8862001019565b049960405193611cee9384860186811067ffffffffffffffff82111762000423578962000844958e938a938a996200128c8b3933906200102d565b03906000f09687156200041757604080516001600160a01b0399909416988916845260208481019590955283015260608201526080810194909452939233907f4d5b5025a40c885cc1ee3d0f90faeb8e37ef123046233e022a75d3193724c134908060a081015b0390a4604051908152f35b50601c821115620007e3565b50600c881115620007cc565b34620004f2576040366003190112620004f257620008eb62000d4d565b7f641712e629a3027d9c666be58a842c7c82b8eb4faad3473f1f98a3395c1a55d360206200091862000d64565b926001600160a01b039062000951337f000000000000000000000000000000000000000000000000000000000000000084161462000da8565b16926200096084151562000de1565b8360005260008252620009838160406000209060ff801983541691151516179055565b6040519015158152a2005b34620004f2576000366003190112620004f257602060405173a34edf91cc494450000eef08e6563062b2f115a98152f35b34620004f2576000366003190112620004f257602060405160b38152f35b34620004f2576000366003190112620004f2576040517f00000000000000000000000000000000000000000000000000000000000000006001600160a01b03168152602090f35b34620004f25760e0366003190112620004f25762000a4162000d4d565b62000a4b62000d36565b6064359160a4359160c435916001600160a01b0390811691604435919060843590829062000a7b86151562000e6b565b169462000a8a86151562000ea8565b62000a9784151562000ee5565b62000aa442831162000f32565b60018710158062000c3c575b62000abb9062000f7f565b60018110158062000c30575b62000ad29062000fcc565b8715801562000bdf575b5062000ae83362001094565b9761271062000af88a8762001019565b049860405192611cee918285019185831067ffffffffffffffff84111762000423576101409486946200128c86393384528a60208501528b604085015289606085015260808401528660a08401528b60c084015260e083015273a34edf91cc494450000eef08e6563062b2f115a96101008301526101208201520301906000f09687156200041757604080516001600160a01b0399909416988916845260208481019590955283015260608201526080810194909452939233907f4d5b5025a40c885cc1ee3d0f90faeb8e37ef123046233e022a75d3193724c134908060a08101620008ab565b62000beb578862000adc565b60405162461bcd60e51b815260206004820152601e60248201527f4669727374206d6f6e746820616d6f756e74206d757374206265203e203000006044820152606490fd5b50601c81111562000ac7565b50600c87111562000ab0565b34620004f2576020366003190112620004f2576001600160a01b0362000c6d62000d4d565b166000526000602052602060ff604060002054166040519015158152f35b34620004f2576020366003190112620004f257602062000cea62000cae62000d4d565b62000ce4337f00000000000000000000000000000000000000000000000000000000000000006001600160a01b03161462000da8565b6200119b565b6040519015158152f35b34620004f2576040366003190112620004f257602061271062000d2d62000d2462000d1e62000d36565b62001094565b60043562001019565b04604051908152f35b602435906001600160a01b0382168203620004f257565b600435906001600160a01b0382168203620004f257565b602435908115158203620004f257565b9181601f84011215620004f25782359167ffffffffffffffff8311620004f2576020808501948460051b010111620004f257565b1562000db057565b60405162461bcd60e51b81526020600482015260096024820152682737ba1037bbb732b960b91b6044820152606490fd5b1562000de957565b60405162461bcd60e51b815260206004820152600e60248201526d125b9d985b1a59081dd85b1b195d60921b6044820152606490fd5b600019811462000e2f5760010190565b634e487b7160e01b600052601160045260246000fd5b9190811015620004015760051b0190565b356001600160a01b0381168103620004f25790565b1562000e7357565b60405162461bcd60e51b815260206004820152600d60248201526c496e76616c696420706179656560981b6044820152606490fd5b1562000eb057565b60405162461bcd60e51b815260206004820152600d60248201526c24b73b30b634b2103a37b5b2b760991b6044820152606490fd5b1562000eed57565b60405162461bcd60e51b815260206004820152601a60248201527f4d6f6e74686c7920616d6f756e74206d757374206265203e20300000000000006044820152606490fd5b1562000f3a57565b60405162461bcd60e51b815260206004820152601c60248201527f53746172742064617465206d75737420626520696e20667574757265000000006044820152606490fd5b1562000f8757565b60405162461bcd60e51b815260206004820152601960248201527f546f74616c206d6f6e746873206d75737420626520312d3132000000000000006044820152606490fd5b1562000fd457565b60405162461bcd60e51b815260206004820152601960248201527f446179206f66206d6f6e7468206d75737420626520312d3238000000000000006044820152606490fd5b8181029291811591840414171562000e2f57565b9491610120969399989794919961014087019a60018060a01b039283809216895216602088015216604086015260608501526000608085015260a084015260c083015260e082015273a34edf91cc494450000eef08e6563062b2f115a96101008201520152565b6001600160a01b031660009081526020819052604090205460ff1615620010ba57609c90565b60b390565b6040810190811067ffffffffffffffff8211176200042357604052565b90601f8019910116810190811067ffffffffffffffff8211176200042357604052565b67ffffffffffffffff8111620004235760051b60200190565b156200112057565b60405162461bcd60e51b815260206004820152600f60248201526e125b9d985b1a59081c185e5b595b9d608a1b6044820152606490fd5b3d1562001196573d9067ffffffffffffffff82116200042357604051916200118a601f8201601f191660200184620010dc565b82523d6000602084013e565b606090565b6001600160a01b03811690620011b382151562001118565b6040516303c5566360e31b60208201908152600482529190620011d681620010bf565b600080938192519082855af1620011ec62001157565b5062001257578190604051826020820191630ea8a1af60e41b8352600481526200121681620010bf565b51925af1906200122562001157565b5060405182151581527ff0e2ef43bebd43456ad90b67b13e894a4d38aecf23cb2c0cb6dbe6819a2c1b9c60203392a390565b5050604051600181527ff0e2ef43bebd43456ad90b67b13e894a4d38aecf23cb2c0cb6dbe6819a2c1b9c60203392a360019056fe60a0346200044c57601f62001cee38819003918201601f191683019291906001600160401b0384118385101762000451578161014092849260409687528339810103126200044c57620000528162000467565b60206200006181840162000467565b906200006f85850162000467565b9160608501519060808601519360a08701519660c08101519560e082015194610120620000a0610100850162000467565b930151936001958660005560018060a01b03809b1690811562000418578b16918215620003e4578b16918215620003b05783156200036c57428d11156200032857878b1015806200031c575b15620002d8578789101580620002cc575b1562000288578b861615620002445760018060a01b031991828954161788558160025416176002556003541617600355612710908185116200020e57927fccba8aa02e1aee0ff839b5d136f5b254a570d25e1c7c3fc0c4956ef90baa1583979592828680946200017660a09b998f99806004556200047c565b04600681905560058490559280156200020257620001969293506200047c565b046007555b8a6008558860095584600a556080526010556000600f556000600c55541694866002541696600354169760045493600654908b519586528501528984015260608301526080820152a4516118479081620004a782396080518181816104bb0152610a490152f35b5050506007556200019b565b8b5162461bcd60e51b815260048101899052600f60248201526e496e76616c6964206665652062707360881b6044820152606490fd5b8d5162461bcd60e51b8152600481018b9052601660248201527f496e76616c69642070726f746f636f6c206f776e6572000000000000000000006044820152606490fd5b8d5162461bcd60e51b8152600481018b9052601960248201527f446179206f66206d6f6e7468206d75737420626520312d3238000000000000006044820152606490fd5b50601c891115620000fd565b8d5162461bcd60e51b8152600481018b9052601960248201527f546f74616c206d6f6e746873206d75737420626520312d3132000000000000006044820152606490fd5b50600c8b1115620000ec565b8d5162461bcd60e51b8152600481018b9052601c60248201527f53746172742064617465206d75737420626520696e20667574757265000000006044820152606490fd5b8d5162461bcd60e51b8152600481018b9052601a60248201527f4d6f6e74686c7920616d6f756e74206d757374206265203e20300000000000006044820152606490fd5b8d5162461bcd60e51b8152600481018b9052600d60248201526c24b73b30b634b2103a37b5b2b760991b6044820152606490fd5b8d5162461bcd60e51b8152600481018b9052600d60248201526c496e76616c696420706179656560981b6044820152606490fd5b8d5162461bcd60e51b8152600481018b9052600d60248201526c24b73b30b634b2103830bcb2b960991b6044820152606490fd5b600080fd5b634e487b7160e01b600052604160045260246000fd5b51906001600160a01b03821682036200044c57565b818102929181159184041417156200049057565b634e487b7160e01b600052601160045260246000fdfe608060408181526004918236101561001657600080fd5b600092833560e01c91826303f7a68c14610ad1575081630b97bc8614610ab25781630d3e50fc14610a3457816310786deb14610a16578163123119cd146109ed578163247b76f1146109ce57816324a9d853146109af57816326446c921461099057816328603738146109715781633974eb80146107ef5781633fb0d6ff146107c257816347d0cdcc1461079a5781634a85ed201461073b5781634e69d560146106ed5781636588439c146106cf578163767edb63146106a05781638d47b6201461059e5781639a82a09a1461057a5781639d76ea5814610551578163ae90b21314610528578163b207715214610509578163bfcb3cb7146104ea578163c1d6ba69146104a6578163c3cd31c714610487578163c92ae9591461033f578163cfa498a314610322578163e2025b20146102fe578163e7b0f666146102df578163ea8a1af014610190575063eed853901461016f57600080fd5b3461018c578160031936011261018c57602090600b549051908152f35b5080fd5b919050346102db57826003193601126102db576101ab611644565b6001546001600160a01b031691338390036102a157600d5460ff811661026a57600f546009549081811015610261576101e391610c66565b915b821561021e575090600160008051602061181b833981519152939260ff191617600d55600b549082519182526020820152a26001815580f35b606490602085519162461bcd60e51b8352820152601f60248201527f4e6f2072656d61696e696e67207061796d656e747320746f2063616e63656c006044820152fd5b505084916101e5565b506020606492519162461bcd60e51b83528201526011602482015270105b1c9958591e4818d85b98d95b1b1959607a1b6044820152fd5b6020606492519162461bcd60e51b8352820152601560248201527413db9b1e481c185e595c8818d85b8818d85b98d95b605a1b6044820152fd5b8280fd5b50503461018c578160031936011261018c57602090600c549051908152f35b50503461018c578160031936011261018c5760209061031b611667565b9051908152f35b50503461018c578160031936011261018c57602090516127108152f35b905082346104845780600319360112610484578092819060ff600d5416801593848095610477575b610402575b506101a095918491946103f3575b60018060a01b03908160015416968260025416926003541690546006546008549160095493600a5495600b5497602082519e8f90815201528c015260608b015260808a015260a089015260c088015260e08701526101008601521561012085015261014084015215156101608301521515610180820152f35b600f546009541115945061037a565b95509150600854600f549062278d00908183029183830414831517156104645791836104346101a09995938895610be9565b9485421015928361044d575b505050939150919561036c565b60ff93508152600e60205220541615818980610440565b634e487b7160e01b885260118752602488fd5b50600f5460095411610367565b80fd5b50503461018c578160031936011261018c576020906009549051908152f35b50503461018c578160031936011261018c57517f00000000000000000000000000000000000000000000000000000000000000006001600160a01b03168152602090f35b50503461018c578160031936011261018c576020906007549051908152f35b50503461018c578160031936011261018c576020906006549051908152f35b50503461018c578160031936011261018c5760025490516001600160a01b039091168152602090f35b50503461018c578160031936011261018c5760035490516001600160a01b039091168152602090f35b50503461018c578160031936011261018c5760209060ff600d541690519015158152f35b919050346102db57826003193601126102db57600f54600954610624929181811015610693576105d36105e691602093610c66565b6105e1865460065490610be9565b610bc0565b6003546001548451636eb1769f60e11b81526001600160a01b0391821697810197885230602089015292969295869392909116918391829160400190565b03915afa91821561068957849261064e575b50606093508051928083101584526020840152820152f35b9091506020813d8211610681575b8161066960209383610c44565b8101031261067d5760609350519038610636565b8380fd5b3d915061065c565b81513d86823e3d90fd5b505060206105e6856105d3565b50503461018c578160031936011261018c576020905173a34edf91cc494450000eef08e6563062b2f115a98152f35b9050346102db57826003193601126102db5760209250549051908152f35b50503461018c578160031936011261018c576107249061070b6116be565b929394809291925196879660a0885260a0880190610b9b565b946020870152850152606084015260808301520390f35b90508234610484578260031936011261048457503561079661076d61271061076560105485610bc0565b048093610be9565b9261077a60243585610bc0565b9051938493846040919493926060820195825260208201520152565b0390f35b83346104845780600319360112610484576107b3611644565b6107bb610cf4565b6001815580f35b9050346102db5760203660031901126102db578160209360ff92358152600e855220541690519015158152f35b9050346102db5760803660031901126102db576001600160a01b03918135838116919082900361096d5760249384358181168091036109695760649384359230330361093c5760035416946020898651828101906323b872dd60e01b96878352868d83015260448201526044358582015284815261086c81610bf6565b5190828a5af1156109325788513d6109295750853b155b610914579088929184610894578380f35b6020948651928684019485528a84015273a34edf91cc494450000eef08e6563062b2f115a960448401528183015281526108cd81610bf6565b519082865af11561090b5784513d6109025750813b155b6108f15780858180808380f35b51635274afe760e01b815291820152fd5b600114156108e4565b513d85823e3d90fd5b505050505191635274afe760e01b8352820152fd5b60011415610883565b84513d8a823e3d90fd5b845162461bcd60e51b81526020818901526009818a01526827b7363c9039b2b63360b91b60448201528690fd5b8680fd5b8480fd5b50503461018c578160031936011261018c57602090600a549051908152f35b50503461018c578160031936011261018c576020906005549051908152f35b50503461018c578160031936011261018c576020906010549051908152f35b50503461018c578160031936011261018c57602090600f549051908152f35b50503461018c578160031936011261018c5760015490516001600160a01b039091168152602090f35b50503461018c578160031936011261018c576020905162278d008152f35b919050346102db57826003193601126102db577f00000000000000000000000000000000000000000000000000000000000000006001600160a01b03163303610a8057826107b3611644565b906020606492519162461bcd60e51b8352820152600c60248201526b139bdd081c1c9bdd1bd8dbdb60a21b6044820152fd5b50503461018c578160031936011261018c576020906008549051908152f35b9291503461067d578360031936011261067d57600354600154636eb1769f60e11b85526001600160a01b039081169285019283523060208085019190915292859290839003604001918391165afa918215610b6e578392610b37575b6020838351908152f35b9091506020813d8211610b66575b81610b5260209383610c44565b810103126102db5760209250519038610b2d565b3d9150610b45565b81513d85823e3d90fd5b60005b838110610b8b5750506000910152565b8181015183820152602001610b7b565b90602091610bb481518092818552858086019101610b78565b601f01601f1916010190565b81810292918115918404141715610bd357565b634e487b7160e01b600052601160045260246000fd5b91908201809211610bd357565b60a0810190811067ffffffffffffffff821117610c1257604052565b634e487b7160e01b600052604160045260246000fd5b6040810190811067ffffffffffffffff821117610c1257604052565b90601f8019910116810190811067ffffffffffffffff821117610c1257604052565b91908203918211610bd357565b6000198114610bd35760010190565b600060443d10610ce057604051600319913d83016004833e815167ffffffffffffffff918282113d602484011117610ce357818401948551938411610ceb573d85010160208487010111610ce35750610ce092910160200190610c44565b90565b949350505050565b50949350505050565b600d5460ff6000911661160b576008548042106115c657600f549060095482101561158157818352600e60205260ff60408420541661153c5762278d0082029082820462278d0014831517156115285790610d4e91610be9565b42106114e3578015806114d8575b156114d0576005545b8115806114c5575b156114bc57600754905b610d818282610be9565b6003546001546040516370a0823160e01b81526001600160a01b039182166004820181905292909160209183916024918391165afa9081156112ea579083918891611487575b501061140f5750600354600154604051636eb1769f60e11b81526001600160a01b039182166004820181905230602483015292909160209183916044918391165afa9081156112ea5790839188916113da575b50106112f55750600354600154604051636eb1769f60e11b81526001600160a01b03918216600482018190523060248301529392909160209183916044918391165afa9081156112ea5787916112b8575b501061127f576002546001600160a01b0316303b1561127b57604051916272e9d760e71b835260048301526024820152816044820152826064820152848160848183305af1908161124b575b5061110d57505060018260033d116110fd575b6308c379a014610fcf575b610edd575050565b6001810191828211610fbb5760018060a01b0360015416836000805160206117fb833981519152606060405160208152601f60208201527f5472616e73666572206661696c65642028756e6b6e6f776e206572726f7229006040820152a38115610f5c576040918152600e60205220600160ff19825416179055600f55565b8060019260409252600e6020522060ff1990828282541617905582600f55600d541617600d5560008051602061181b833981519152604060018060a01b036001541692610fae600b5491600954610c66565b82519182526020820152a2565b634e487b7160e01b81526011600452602490fd5b610fd7610c82565b80610fe3575b50610ed5565b83915060018301908184116110e957816000805160206117fb83398151915261106c60018060a01b036001541693611058603160405180937002a3930b739b332b9103330b4b632b21d1607d1b60208301526110488151809260208686019101610b78565b8101036011810184520182610c44565b604051918291602083526020830190610b9b565b0390a3821561109557828452600e60205260408420805460ff19166001179055600f5538610fdd565b92604091506001928152600e6020522060ff1990828282541617905582600f55600d541617600d5560008051602061181b833981519152604060018060a01b036001541692610fae600b5491600954610c66565b634e487b7160e01b85526011600452602485fd5b50600483803e825160e01c610eca565b909392828152600e60205260408120600160ff1982541617905560018301809311610fbb5782600f55611141600b54610c73565b9283600b5561115283600c54610be9565b9283600c556009549283831060001461121d5760085462278d0084029184830462278d001485151715610fbb57506111de97986111b185937f7b1404bdb91dc49f5ae076071f80af302753bd5d3b299861de66f56a828651be93610be9565b935b60018060a01b0360025416998a95604051938493846040919493926060820195825260208201520152565b0390a3146111eb57505050565b7fb3ca1c952acfaa0ce116b82df50ba6eca680e859f7cca23b684ba04848c6d6d59160409182519182526020820152a2565b7f7b1404bdb91dc49f5ae076071f80af302753bd5d3b299861de66f56a828651be6111de97988492936111b3565b67ffffffffffffffff8196929611611267576040529338610eb7565b634e487b7160e01b82526041600452602482fd5b8580fd5b60405162461bcd60e51b8152602060048201526011602482015270414c4c4f57414e43455f544f4f5f4c4f5760781b6044820152606490fd5b90506020813d6020116112e2575b816112d360209383610c44565b81010312610969575138610e6b565b3d91506112c6565b6040513d89823e3d90fd5b94939250505060018101928382116113c657836000805160206117fb8339815191526060604051602081526016602082015275496e73756666696369656e7420616c6c6f77616e636560501b6040820152a3801561137457604092508152600e60205220600160ff1982541617905561136f600f54610c73565b600f55565b8160409160019352600e6020522060ff1990828282541617905582600f55600d541617600d5560008051602061181b833981519152604060018060a01b036001541692610fae600b5491600954610c66565b634e487b7160e01b83526011600452602483fd5b9150506020813d602011611407575b816113f660209383610c44565b810103126109695782905138610e1a565b3d91506113e9565b94939250505060018101928382116113c657836000805160206117fb8339815191526060604051602081526014602082015273496e73756666696369656e742062616c616e636560601b6040820152a3801561137457604092508152600e60205220600160ff1982541617905561136f600f54610c73565b9150506020813d6020116114b4575b816114a360209383610c44565b810103126109695782905138610dc7565b3d9150611496565b60065490610d77565b506005541515610d6d565b600454610d65565b506005541515610d5c565b60405162461bcd60e51b815260206004820152601a60248201527f546f6f206561726c7920666f722074686973207061796d656e740000000000006044820152606490fd5b634e487b7160e01b84526011600452602484fd5b60405162461bcd60e51b815260206004820152601b60248201527f54686973206d6f6e746820616c726561647920657865637574656400000000006044820152606490fd5b60405162461bcd60e51b815260206004820152601d60248201527f416c6c207061796d656e7420706572696f647320636f6d706c657465640000006044820152606490fd5b60405162461bcd60e51b815260206004820152601760248201527f5061796d656e74206e6f742073746172746564207965740000000000000000006044820152606490fd5b60405162461bcd60e51b815260206004820152601160248201527014185e5b595b9d0818d85b98d95b1b1959607a1b6044820152606490fd5b600260005414611655576002600055565b604051633ee5aeb560e01b8152600490fd5b60ff600d54166116b957600f546009548110156116b3576008549062278d0090818102918183041490151715610bd3576116a091610be9565b804210156116b357610ce0904290610c66565b50600090565b600090565b60ff600d541661178157600f54906009548083101561172f57826116e191610c66565b90600b549283600091818111600014611728576116fe9250610c66565b600c549160405161170e81610c28565b600681526561637469766560d01b60208201529493929190565b50506116fe565b600b54925060009083908181111561177a5761174b9250610c66565b600c549060405161175b81610c28565b600981526818dbdb5c1b195d195960ba1b602082015293926000929190565b505061174b565b600f5490600954826000918082106000146117f2576117a09250610c66565b905b600b5492836000918181116000146117eb576117be9250610c66565b600c54916040516117ce81610c28565b600981526818d85b98d95b1b195960ba1b60208201529493929190565b50506117be565b5050906117a256fec57cc88c889ba5082585c741abc3e2081475633a94f4706b2fa9652abb08b58e61b9c33e0e4d02b2162fc16b3687513680c424835fceaec6d62637b8048dd876a164736f6c6343000814000aa164736f6c6343000814000a",
  "linkReferences": {},
  "deployedLinkReferences": {}
}