{
  "_format": "hh-sol-artifact-1",
  "contractName": "PaymentFactory_Recurring",
  "sourceName": "contracts-verify-old/PaymentFactory_Recurring.sol",
  "abi": [
    {
      "inputs": [],
      "stateMutability": "nonpayable",
      "type": "constructor"
    },
    {
      "anonymous": false,
      "inputs": [
        {
          "indexed": true,
          "internalType": "address",
          "name": "admin",
          "type": "address"
        },
        {
          "indexed": true,
          "internalType": "address",
          "name": "paymentContract",
          "type": "address"
        },
        {
          "indexed": false,
          "internalType": "bool",
          "name": "success",
          "type": "bool"
        }
      ],
      "name": "AdminCancelAttempt",
      "type": "event"
    },
    {
      "anonymous": false,
      "inputs": [
        {
          "indexed": true,
          "internalType": "address",
          "name": "admin",
          "type": "address"
        },
        {
          "indexed": true,
          "internalType": "address",
          "name": "paymentContract",
          "type": "address"
        }
      ],
      "name": "AdminExecuted",
      "type": "event"
    },
    {
      "anonymous": false,
      "inputs": [
        {
          "indexed": true,
          "internalType": "address",
          "name": "payer",
          "type": "address"
        },
        {
          "indexed": true,
          "internalType": "address",
          "name": "tokenAddress",
          "type": "address"
        },
        {
          "indexed": false,
          "internalType": "uint256",
          "name": "count",
          "type": "uint256"
        },
        {
          "indexed": false,
          "internalType": "uint256",
          "name": "startDate",
          "type": "uint256"
        },
        {
          "indexed": false,
          "internalType": "uint256",
          "name": "totalMonths",
          "type": "uint256"
        }
      ],
      "name": "BatchRecurringPaymentCreatedERC20",
      "type": "event"
    },
    {
      "anonymous": false,
      "inputs": [
        {
          "indexed": true,
          "internalType": "address",
          "name": "payer",
          "type": "address"
        },
        {
          "indexed": true,
          "internalType": "address",
          "name": "payee",
          "type": "address"
        },
        {
          "indexed": true,
          "internalType": "address",
          "name": "tokenAddress",
          "type": "address"
        },
        {
          "indexed": false,
          "internalType": "address",
          "name": "paymentContract",
          "type": "address"
        },
        {
          "indexed": false,
          "internalType": "uint256",
          "name": "monthlyAmount",
          "type": "uint256"
        },
        {
          "indexed": false,
          "internalType": "uint256",
          "name": "protocolFeePerMonth",
          "type": "uint256"
        },
        {
          "indexed": false,
          "internalType": "uint256",
          "name": "startDate",
          "type": "uint256"
        },
        {
          "indexed": false,
          "internalType": "uint256",
          "name": "totalMonths",
          "type": "uint256"
        }
      ],
      "name": "RecurringPaymentCreatedERC20",
      "type": "event"
    },
    {
      "inputs": [],
      "name": "BASIS_POINTS_DENOMINATOR",
      "outputs": [
        {
          "internalType": "uint256",
          "name": "",
          "type": "uint256"
        }
      ],
      "stateMutability": "view",
      "type": "function"
    },
    {
      "inputs": [],
      "name": "FACTORY_OWNER",
      "outputs": [
        {
          "internalType": "address",
          "name": "",
          "type": "address"
        }
      ],
      "stateMutability": "view",
      "type": "function"
    },
    {
      "inputs": [],
      "name": "FEE_BASIS_POINTS",
      "outputs": [
        {
          "internalType": "uint256",
          "name": "",
          "type": "uint256"
        }
      ],
      "stateMutability": "view",
      "type": "function"
    },
    {
      "inputs": [],
      "name": "PROTOCOL_WALLET",
      "outputs": [
        {
          "internalType": "address",
          "name": "",
          "type": "address"
        }
      ],
      "stateMutability": "view",
      "type": "function"
    },
    {
      "inputs": [
        {
          "internalType": "address",
          "name": "paymentContract",
          "type": "address"
        }
      ],
      "name": "adminCancel",
      "outputs": [
        {
          "internalType": "bool",
          "name": "success",
          "type": "bool"
        }
      ],
      "stateMutability": "nonpayable",
      "type": "function"
    },
    {
      "inputs": [
        {
          "internalType": "address",
          "name": "paymentContract",
          "type": "address"
        }
      ],
      "name": "adminExecutePayment",
      "outputs": [],
      "stateMutability": "nonpayable",
      "type": "function"
    },
    {
      "inputs": [
        {
          "internalType": "address",
          "name": "_tokenAddress",
          "type": "address"
        },
        {
          "internalType": "address[]",
          "name": "_payees",
          "type": "address[]"
        },
        {
          "internalType": "uint256[]",
          "name": "_monthlyAmounts",
          "type": "uint256[]"
        },
        {
          "internalType": "uint256",
          "name": "_startDate",
          "type": "uint256"
        },
        {
          "internalType": "uint256",
          "name": "_totalMonths",
          "type": "uint256"
        },
        {
          "internalType": "uint256",
          "name": "_dayOfMonth",
          "type": "uint256"
        }
      ],
      "name": "createBatchRecurringPaymentERC20",
      "outputs": [
        {
          "internalType": "address[]",
          "name": "",
          "type": "address[]"
        }
      ],
      "stateMutability": "nonpayable",
      "type": "function"
    },
    {
      "inputs": [
        {
          "internalType": "address",
          "name": "_payee",
          "type": "address"
        },
        {
          "internalType": "address",
          "name": "_tokenAddress",
          "type": "address"
        },
        {
          "internalType": "uint256",
          "name": "_monthlyAmount",
          "type": "uint256"
        },
        {
          "internalType": "uint256",
          "name": "_startDate",
          "type": "uint256"
        },
        {
          "internalType": "uint256",
          "name": "_totalMonths",
          "type": "uint256"
        },
        {
          "internalType": "uint256",
          "name": "_dayOfMonth",
          "type": "uint256"
        }
      ],
      "name": "createRecurringPaymentERC20",
      "outputs": [
        {
          "internalType": "address",
          "name": "",
          "type": "address"
        }
      ],
      "stateMutability": "nonpayable",
      "type": "function"
    },
    {
      "inputs": [
        {
          "internalType": "address",
          "name": "_payee",
          "type": "address"
        },
        {
          "internalType": "address",
          "name": "_tokenAddress",
          "type": "address"
        },
        {
          "internalType": "uint256",
          "name": "_monthlyAmount",
          "type": "uint256"
        },
        {
          "internalType": "uint256",
          "name": "_firstMonthAmount",
          "type": "uint256"
        },
        {
          "internalType": "uint256",
          "name": "_startDate",
          "type": "uint256"
        },
        {
          "internalType": "uint256",
          "name": "_totalMonths",
          "type": "uint256"
        },
        {
          "internalType": "uint256",
          "name": "_dayOfMonth",
          "type": "uint256"
        }
      ],
      "name": "createRecurringPaymentERC20_V2",
      "outputs": [
        {
          "internalType": "address",
          "name": "",
          "type": "address"
        }
      ],
      "stateMutability": "nonpayable",
      "type": "function"
    },
    {
      "inputs": [
        {
          "internalType": "uint256",
          "name": "monthlyAmount",
          "type": "uint256"
        }
      ],
      "name": "previewFeePerMonth",
      "outputs": [
        {
          "internalType": "uint256",
          "name": "",
          "type": "uint256"
        }
      ],
      "stateMutability": "pure",
      "type": "function"
    }
  ],
  "bytecode": "0x60a080604052346100315733608052612c0590816100378239608051818181610516015281816107e40152610a210152f35b600080fdfe608060405260043610156200001357600080fd5b60003560e01c8063242402ec14620009f75780633c3670f414620008135780635935cbfe14620007cc5780636ebf178f1462000793578063767edb63146200076257806383233efd146200060f578063a525ad3c14620005f1578063b57ce93314620004e7578063cfa498a314620004c85763dff94363146200009557600080fd5b34620004c35760c0366003190112620004c357620000b262000a60565b6024356001600160401b038111620004c357620000d490369060040162000a8e565b90916044356001600160401b038111620004c357620000f890369060040162000a8e565b906200010f6001600160a01b038416151562000afe565b83156200049257603284116200045d57818403620004265762000136426064351162000b85565b600160843510158062000418575b6200014f9062000bd1565b600160a4351015806200040a575b620001689062000c1a565b620001738462000d2e565b9462000183604051968762000d0a565b848652601f19620001948662000d2e565b0136602088013760005b858110620002425750506040805194855260643560208601526084359085015250506001600160a01b03169033907f622474ac9bff1023a7d3d001dff3ad2998d648469a0770949275a139c433bede90606090a360405180916020820160208352815180915260206040840192019060005b8181106200021f575050500390f35b82516001600160a01b031684528594506020938401939092019160010162000210565b6200026e6001600160a01b03620002656200025f848a8762000d46565b62000d57565b16151562000ac1565b620002886200027f82868662000d46565b35151562000b3b565b620002996200025f82888562000d46565b620002a682868662000d46565b6040519190356001600160401b03611cc3840190811190841117620003f4578291620002ee91611cc362000ef6853960a43591608435918b6064359233611cc3890162000c63565b03906000f08015620003e8578751821015620003d2576001600160a01b038116600583901b8901602001526200032682868662000d46565b359060b3918083810204831481151715620003bc5760008051602062002bb98339815191526200035c6200025f868c8962000d46565b936200036a868a8a62000d46565b6040516001600160a01b03808d1697811696339692948594620003a6946084359460643594612710949092029390930492913591168662000cc2565b0390a46000198114620003bc576001016200019e565b634e487b7160e01b600052601160045260246000fd5b634e487b7160e01b600052603260045260246000fd5b6040513d6000823e3d90fd5b634e487b7160e01b600052604160045260246000fd5b50601c60a43511156200015d565b50600c608435111562000144565b60405162461bcd60e51b815260206004820152600f60248201526e098cadccee8d040dad2e6dac2e8c6d608b1b6044820152606490fd5b60405162461bcd60e51b815260206004820152600d60248201526c4d61782035302070617965657360981b6044820152606490fd5b60405162461bcd60e51b81526020600482015260096024820152684e6f2070617965657360b81b6044820152606490fd5b600080fd5b34620004c3576000366003190112620004c35760206040516127108152f35b34620004c3576020366003190112620004c3576200050462000a60565b6000806001600160a01b036200053e337f000000000000000000000000000000000000000000000000000000000000000083161462000d6c565b8316926200054e84151562000da5565b6040518260208201916311f4337360e21b835260048152620005708162000cee565b51925af16200057e62000de4565b5015620005ad57337fce0ff9f85d25f25d3dafbbfd9039a8f27845cca7ef6a277639e66edf4fe7bc00600080a3005b60405162461bcd60e51b815260206004820152601c60248201527b195e1958dd5d19535bdb9d1a1b1e54185e5b595b9d0819985a5b195960221b6044820152606490fd5b34620004c3576000366003190112620004c357602060405160b38152f35b34620004c35760c0366003190112620004c3576200062c62000a60565b6200063662000a77565b60443591608435916001600160a01b03808316919060643560a4356200065e85151562000ac1565b828416956200066f87151562000afe565b8815946200067e861562000b3b565b6200068b42851162000b85565b60018910158062000756575b620006a29062000bd1565b6001831015806200074a575b620006b99062000c1a565b60b38a02958a870460b3141715620003bc5760405192611cc3928385016001600160401b03811186821017620003f4578c62000703948d938993899862000ef68a39339062000c63565b03906000f0968715620003e8576200073f60008051602062002bb9833981519152936020991697604051938493612710339804908b8662000cc2565b0390a4604051908152f35b50601c831115620006ae565b50600c89111562000697565b34620004c3576000366003190112620004c357602060405173a34edf91cc494450000eef08e6563062b2f115a98152f35b34620004c3576020366003190112620004c35760043560b381029080820460b31490151715620003bc5760209061271060405191048152f35b34620004c3576000366003190112620004c3576040517f00000000000000000000000000000000000000000000000000000000000000006001600160a01b03168152602090f35b34620004c35760e0366003190112620004c3576200083062000a60565b6200083a62000a77565b6044359160a4359160c435916001600160a01b039081169160643591906084359082906200086a86151562000ac1565b16946200087986151562000afe565b87159362000888851562000b3b565b6200089542841162000b85565b600188101580620009eb575b620008ac9062000bd1565b600182101580620009df575b620008c39062000c1a565b801580156200098e575b5060b389029489860460b3141715620003bc5760405191611cc390818401906001600160401b03821185831017620003f45761012093859362000ef685393383528960208401528a60408401528c606084015260808301528560a08301528a60c083015260e082015273a34edf91cc494450000eef08e6563062b2f115a96101008201520301906000f0968715620003e8576200073f60008051602062002bb9833981519152936020991697604051938493612710339804908b8662000cc2565b6200099a5789620008cd565b60405162461bcd60e51b815260206004820152601e60248201527f4669727374206d6f6e746820616d6f756e74206d757374206265203e203000006044820152606490fd5b50601c821115620008b8565b50600c881115620008a1565b34620004c3576020366003190112620004c357602062000a5662000a1a62000a60565b62000a50337f00000000000000000000000000000000000000000000000000000000000000006001600160a01b03161462000d6c565b62000e27565b6040519015158152f35b600435906001600160a01b0382168203620004c357565b602435906001600160a01b0382168203620004c357565b9181601f84011215620004c3578235916001600160401b038311620004c3576020808501948460051b010111620004c357565b1562000ac957565b60405162461bcd60e51b815260206004820152600d60248201526c496e76616c696420706179656560981b6044820152606490fd5b1562000b0657565b60405162461bcd60e51b815260206004820152600d60248201526c24b73b30b634b2103a37b5b2b760991b6044820152606490fd5b1562000b4357565b60405162461bcd60e51b815260206004820152601a60248201527904d6f6e74686c7920616d6f756e74206d757374206265203e20360341b6044820152606490fd5b1562000b8d57565b60405162461bcd60e51b815260206004820152601c60248201527b53746172742064617465206d75737420626520696e2066757475726560201b6044820152606490fd5b1562000bd957565b60405162461bcd60e51b81526020600482015260196024820152782a37ba30b61036b7b73a34399036bab9ba103132901896989960391b6044820152606490fd5b1562000c2257565b60405162461bcd60e51b8152602060048201526019602482015278088c2f240decc40dadedce8d040daeae6e840c4ca40625a647603b1b6044820152606490fd5b9373a34edf91cc494450000eef08e6563062b2f115a99692610100969299989461012087019a60018060a01b039283809216895216602088015216604086015260608501526000608085015260a084015260c083015260e08201520152565b9192608093969594919660a084019760018060a01b031684526020840152604083015260608201520152565b604081019081106001600160401b03821117620003f457604052565b601f909101601f19168101906001600160401b03821190821017620003f457604052565b6001600160401b038111620003f45760051b60200190565b9190811015620003d25760051b0190565b356001600160a01b0381168103620004c35790565b1562000d7457565b60405162461bcd60e51b81526020600482015260096024820152682737ba1037bbb732b960b91b6044820152606490fd5b1562000dad57565b60405162461bcd60e51b815260206004820152600f60248201526e125b9d985b1a59081c185e5b595b9d608a1b6044820152606490fd5b3d1562000e22573d906001600160401b038211620003f4576040519162000e16601f8201601f19166020018462000d0a565b82523d6000602084013e565b606090565b6001600160a01b0381169062000e3f82151562000da5565b6040516303c5566360e31b6020820190815260048252919062000e628162000cee565b600080938192519082855af162000e7862000de4565b5062000ed2578190604051826020820191630ea8a1af60e41b83526004815262000ea28162000cee565b51925af19062000eb162000de4565b50604051821515815260008051602062002bd983398151915260203392a390565b50506040516001815260008051602062002bd983398151915260203392a360019056fe60a0346200042e57601f62001cc338819003918201601f191683019291906001600160401b0384118385101762000433578161012092849260409687528339810103126200042e57620000528162000449565b6020916200006283820162000449565b926200007085830162000449565b9160608101519260808201519560a08301519660c0840151956200009d61010060e0870151960162000449565b9160019460009486865560018060a01b03809b16908115620003fa578b16918215620003c6578b16918215620003925784156200034e57428d11156200030a57878b101580620002fe575b15620002ba578789101580620002ae575b156200026a578b861615620002265760018060a01b0319918289541617885581600254161760025560035416176003558160045560b3820291820460b303620001eb576127108092048060065581600555898215918215600014620001ff57505060b3820291820460b3141715620001eb5792889260008051602062001ca383398151915297959260a09795046007555b8a6008558860095584600a5560805280600f55600c55541694866002541696600354169760045493600654908b519586528501528984015260608301526080820152a45161184490816200045f82396080518181816104bb0152610a420152f35b634e487b7160e01b84526011600452602484fd5b9094915060008051602062001ca38339815191529896935060a0979592506007556200018a565b8d5162461bcd60e51b8152600481018b9052601660248201527f496e76616c69642070726f746f636f6c206f776e6572000000000000000000006044820152606490fd5b8d5162461bcd60e51b8152600481018b9052601960248201527f446179206f66206d6f6e7468206d75737420626520312d3238000000000000006044820152606490fd5b50601c891115620000f9565b8d5162461bcd60e51b8152600481018b9052601960248201527f546f74616c206d6f6e746873206d75737420626520312d3132000000000000006044820152606490fd5b50600c8b1115620000e8565b8d5162461bcd60e51b8152600481018b9052601c60248201527f53746172742064617465206d75737420626520696e20667574757265000000006044820152606490fd5b8d5162461bcd60e51b8152600481018b9052601a60248201527f4d6f6e74686c7920616d6f756e74206d757374206265203e20300000000000006044820152606490fd5b8d5162461bcd60e51b8152600481018b9052600d60248201526c24b73b30b634b2103a37b5b2b760991b6044820152606490fd5b8d5162461bcd60e51b8152600481018b9052600d60248201526c496e76616c696420706179656560981b6044820152606490fd5b8d5162461bcd60e51b8152600481018b9052600d60248201526c24b73b30b634b2103830bcb2b960991b6044820152606490fd5b600080fd5b634e487b7160e01b600052604160045260246000fd5b51906001600160a01b03821682036200042e5756fe608060408181526004918236101561001657600080fd5b600092833560e01c91826303f7a68c14610aca575081630b97bc8614610aab5781630d3e50fc14610a2d57816310786deb14610a0f578163123119cd146109e6578163247b76f1146109c757816326446c92146109a857816328603738146109895781633974eb80146108075781633fb0d6ff146107da57816347d0cdcc146107b25781634a85ed20146107465781634e69d560146106f85781636588439c146106da578163767edb63146106ab5781638d47b620146105ba5781639a82a09a146105965781639d76ea581461056d578163a525ad3c14610551578163ae90b21314610528578163b207715214610509578163bfcb3cb7146104ea578163c1d6ba69146104a6578163c3cd31c714610487578163c92ae9591461033f578163cfa498a314610322578163e2025b20146102fe578163e7b0f666146102df578163ea8a1af014610190575063eed853901461016f57600080fd5b3461018c578160031936011261018c57602090600b549051908152f35b5080fd5b919050346102db57826003193601126102db576101ab611621565b6001546001600160a01b031691338390036102a157600d5460ff811661026a57600f546009549081811015610261576101e391610c6b565b915b821561021e5750906001600080516020611818833981519152939260ff191617600d55600b549082519182526020820152a26001815580f35b606490602085519162461bcd60e51b8352820152601f60248201527f4e6f2072656d61696e696e67207061796d656e747320746f2063616e63656c006044820152fd5b505084916101e5565b506020606492519162461bcd60e51b83528201526011602482015270105b1c9958591e4818d85b98d95b1b1959607a1b6044820152fd5b6020606492519162461bcd60e51b8352820152601560248201527413db9b1e481c185e595c8818d85b8818d85b98d95b605a1b6044820152fd5b8280fd5b50503461018c578160031936011261018c57602090600c549051908152f35b50503461018c578160031936011261018c5760209061031b611644565b9051908152f35b50503461018c578160031936011261018c57602090516127108152f35b905082346104845780600319360112610484578092819060ff600d5416801593848095610477575b610402575b506101a095918491946103f3575b60018060a01b03908160015416968260025416926003541690546006546008549160095493600a5495600b5497602082519e8f90815201528c015260608b015260808a015260a089015260c088015260e08701526101008601521561012085015261014084015215156101608301521515610180820152f35b600f546009541115945061037a565b95509150600854600f549062278d00908183029183830414831517156104645791836104346101a09995938895610bef565b9485421015928361044d575b505050939150919561036c565b60ff93508152600e60205220541615818980610440565b634e487b7160e01b885260118752602488fd5b50600f5460095411610367565b80fd5b50503461018c578160031936011261018c576020906009549051908152f35b50503461018c578160031936011261018c57517f00000000000000000000000000000000000000000000000000000000000000006001600160a01b03168152602090f35b50503461018c578160031936011261018c576020906007549051908152f35b50503461018c578160031936011261018c576020906006549051908152f35b50503461018c578160031936011261018c5760025490516001600160a01b039091168152602090f35b50503461018c578160031936011261018c576020905160b38152f35b50503461018c578160031936011261018c5760035490516001600160a01b039091168152602090f35b50503461018c578160031936011261018c5760209060ff600d541690519015158152f35b919050346102db57826003193601126102db57600f5460095461062f92918181101561069e576105ef61060291602093610c6b565b6105fd865460065490610bef565b610bc6565b9360018060a01b03806003541690600154168451809681948293636eb1769f60e11b845230918401610c87565b03915afa918215610694578492610659575b50606093508051928083101584526020840152820152f35b9091506020813d821161068c575b8161067460209383610c48565b810103126106885760609350519038610641565b8380fd5b3d9150610667565b81513d86823e3d90fd5b50506020610602856105ef565b50503461018c578160031936011261018c576020905173a34edf91cc494450000eef08e6563062b2f115a98152f35b9050346102db57826003193601126102db5760209250549051908152f35b50503461018c578160031936011261018c5761072f9061071661169b565b929394809291925196879660a0885260a0880190610ba1565b946020870152850152606084015260808301520390f35b8391503461018c578260031936011261018c5780359160b383029183830460b3148415171561079f57505061078361271061079b92048093610bef565b9261079060243585610bc6565b905193849384610b68565b0390f35b634e487b7160e01b825260119052602490fd5b83346104845780600319360112610484576107cb611621565b6107d3610d12565b6001815580f35b9050346102db5760203660031901126102db578160209360ff92358152600e855220541690519015158152f35b9050346102db5760803660031901126102db576001600160a01b039181358381169190829003610985576024938435818116809103610981576064938435923033036109545760035416946020898651828101906323b872dd60e01b96878352868d83015260448201526044358582015284815261088481610bfc565b5190828a5af11561094a5788513d6109415750853b155b61092c5790889291846108ac578380f35b6020948651928684019485528a84015273a34edf91cc494450000eef08e6563062b2f115a960448401528183015281526108e581610bfc565b519082865af1156109235784513d61091a5750813b155b6109095780858180808380f35b51635274afe760e01b815291820152fd5b600114156108fc565b513d85823e3d90fd5b505050505191635274afe760e01b8352820152fd5b6001141561089b565b84513d8a823e3d90fd5b845162461bcd60e51b81526020818901526009818a01526827b7363c9039b2b63360b91b60448201528690fd5b8680fd5b8480fd5b50503461018c578160031936011261018c57602090600a549051908152f35b50503461018c578160031936011261018c576020906005549051908152f35b50503461018c578160031936011261018c57602090600f549051908152f35b50503461018c578160031936011261018c5760015490516001600160a01b039091168152602090f35b50503461018c578160031936011261018c576020905162278d008152f35b919050346102db57826003193601126102db577f00000000000000000000000000000000000000000000000000000000000000006001600160a01b03163303610a7957826107cb611621565b906020606492519162461bcd60e51b8352820152600c60248201526b139bdd081c1c9bdd1bd8dbdb60a21b6044820152fd5b50503461018c578160031936011261018c576020906008549051908152f35b92915034610688578360031936011261068857826020918180610b0b60018060a01b039384600354169460015416636eb1769f60e11b845230918401610c87565b03915afa918215610b5e578392610b27575b6020838351908152f35b9091506020813d8211610b56575b81610b4260209383610c48565b810103126102db5760209250519038610b1d565b3d9150610b35565b81513d85823e3d90fd5b6040919493926060820195825260208201520152565b60005b838110610b915750506000910152565b8181015183820152602001610b81565b90602091610bba81518092818552858086019101610b7e565b601f01601f1916010190565b81810292918115918404141715610bd957565b634e487b7160e01b600052601160045260246000fd5b91908201809211610bd957565b60a081019081106001600160401b03821117610c1757604052565b634e487b7160e01b600052604160045260246000fd5b604081019081106001600160401b03821117610c1757604052565b601f909101601f19168101906001600160401b03821190821017610c1757604052565b91908203918211610bd957565b6000198114610bd95760010190565b6001600160a01b0391821681529116602082015260400190565b600060443d10610cfe57604051600319913d83016004833e81516001600160401b03918282113d602484011117610d0157818401948551938411610d09573d85010160208487010111610d015750610cfe92910160200190610c48565b90565b949350505050565b50949350505050565b600d5460ff600091166115e8576008548042106115a957600f549060095482101561156457818352600e60205260ff6040842054166115215762278d0082029082820462278d00148315171561150d5790610d6c91610bef565b42106114cb578015806114c0575b156114b8576005545b8115806114ad575b156114a457600754905b610d9f8282610bef565b6003546001546040516370a0823160e01b81526001600160a01b039182166004820181905292909160209183916024918391165afa9081156112d257908391889161146f575b50106113f75750600354600154604051636eb1769f60e11b81526001600160a01b039182169290916020918391168180610e23308860048401610c87565b03915afa9081156112d25790839188916113c2575b50106112dd5750600354600154604051636eb1769f60e11b81526001600160a01b03918216939290916020918391168180610e77308960048401610c87565b03915afa9081156112d25787916112a0575b5010611267576002546001600160a01b0316303b1561126357604051916272e9d760e71b835260048301526024820152816044820152826064820152848160848183305af19081611234575b5061112b57505060018260033d1161111b575b6308c379a014610fed575b610efb575050565b6001810191828211610fd95760018060a01b0360015416836000805160206117f8833981519152606060405160208152601f60208201527f5472616e73666572206661696c65642028756e6b6e6f776e206572726f7229006040820152a38115610f7a576040918152600e60205220600160ff19825416179055600f55565b8060019260409252600e6020522060ff1990828282541617905582600f55600d541617600d55600080516020611818833981519152604060018060a01b036001541692610fcc600b5491600954610c6b565b82519182526020820152a2565b634e487b7160e01b81526011600452602490fd5b610ff5610ca1565b80611001575b50610ef3565b839150600183019081841161110757816000805160206117f883398151915261108a60018060a01b036001541693611076603160405180937002a3930b739b332b9103330b4b632b21d1607d1b60208301526110668151809260208686019101610b7e565b8101036011810184520182610c48565b604051918291602083526020830190610ba1565b0390a382156110b357828452600e60205260408420805460ff19166001179055600f5538610ffb565b92604091506001928152600e6020522060ff1990828282541617905582600f55600d541617600d55600080516020611818833981519152604060018060a01b036001541692610fcc600b5491600954610c6b565b634e487b7160e01b85526011600452602485fd5b50600483803e825160e01c610ee8565b909392828152600e60205260408120600160ff1982541617905560018301809311610fd95782600f5561115f600b54610c78565b9283600b5561117083600c54610bef565b9283600c55600954928383106000146112185760085462278d0084029184830462278d001485151715610fd957506111d997986111bd85936000805160206117d883398151915293610bef565b935b60018060a01b0360025416998a9560405193849384610b68565b0390a3146111e657505050565b7fb3ca1c952acfaa0ce116b82df50ba6eca680e859f7cca23b684ba04848c6d6d59160409182519182526020820152a2565b6000805160206117d88339815191526111d997988492936111bf565b9094906001600160401b03811161124f576040529338610ed5565b634e487b7160e01b82526041600452602482fd5b8580fd5b60405162461bcd60e51b8152602060048201526011602482015270414c4c4f57414e43455f544f4f5f4c4f5760781b6044820152606490fd5b90506020813d6020116112ca575b816112bb60209383610c48565b81010312610981575138610e89565b3d91506112ae565b6040513d89823e3d90fd5b94939250505060018101928382116113ae57836000805160206117f88339815191526060604051602081526016602082015275496e73756666696369656e7420616c6c6f77616e636560501b6040820152a3801561135c57604092508152600e60205220600160ff19825416179055611357600f54610c78565b600f55565b8160409160019352600e6020522060ff1990828282541617905582600f55600d541617600d55600080516020611818833981519152604060018060a01b036001541692610fcc600b5491600954610c6b565b634e487b7160e01b83526011600452602483fd5b9150506020813d6020116113ef575b816113de60209383610c48565b810103126109815782905138610e38565b3d91506113d1565b94939250505060018101928382116113ae57836000805160206117f88339815191526060604051602081526014602082015273496e73756666696369656e742062616c616e636560601b6040820152a3801561135c57604092508152600e60205220600160ff19825416179055611357600f54610c78565b9150506020813d60201161149c575b8161148b60209383610c48565b810103126109815782905138610de5565b3d915061147e565b60065490610d95565b506005541515610d8b565b600454610d83565b506005541515610d7a565b60405162461bcd60e51b815260206004820152601a602482015279151bdbc819585c9b1e48199bdc881d1a1a5cc81c185e5b595b9d60321b6044820152606490fd5b634e487b7160e01b84526011600452602484fd5b60405162461bcd60e51b815260206004820152601b60248201527a151a1a5cc81b5bdb9d1a08185b1c9958591e48195e1958dd5d1959602a1b6044820152606490fd5b60405162461bcd60e51b815260206004820152601d60248201527f416c6c207061796d656e7420706572696f647320636f6d706c657465640000006044820152606490fd5b60405162461bcd60e51b815260206004820152601760248201527614185e5b595b9d081b9bdd081cdd185c9d1959081e595d604a1b6044820152606490fd5b60405162461bcd60e51b815260206004820152601160248201527014185e5b595b9d0818d85b98d95b1b1959607a1b6044820152606490fd5b600260005414611632576002600055565b604051633ee5aeb560e01b8152600490fd5b60ff600d541661169657600f54600954811015611690576008549062278d0090818102918183041490151715610bd95761167d91610bef565b8042101561169057610cfe904290610c6b565b50600090565b600090565b60ff600d541661175e57600f54906009548083101561170c57826116be91610c6b565b90600b549283600091818111600014611705576116db9250610c6b565b600c54916040516116eb81610c2d565b600681526561637469766560d01b60208201529493929190565b50506116db565b600b549250600090839081811115611757576117289250610c6b565b600c549060405161173881610c2d565b600981526818dbdb5c1b195d195960ba1b602082015293926000929190565b5050611728565b600f5490600954826000918082106000146117cf5761177d9250610c6b565b905b600b5492836000918181116000146117c85761179b9250610c6b565b600c54916040516117ab81610c2d565b600981526818d85b98d95b1b195960ba1b60208201529493929190565b505061179b565b50509061177f56fe7b1404bdb91dc49f5ae076071f80af302753bd5d3b299861de66f56a828651bec57cc88c889ba5082585c741abc3e2081475633a94f4706b2fa9652abb08b58e61b9c33e0e4d02b2162fc16b3687513680c424835fceaec6d62637b8048dd876a164736f6c6343000814000accba8aa02e1aee0ff839b5d136f5b254a570d25e1c7c3fc0c4956ef90baa15834d5b5025a40c885cc1ee3d0f90faeb8e37ef123046233e022a75d3193724c134f0e2ef43bebd43456ad90b67b13e894a4d38aecf23cb2c0cb6dbe6819a2c1b9ca164736f6c6343000814000a",
  "linkReferences": {},
  "deployedLinkReferences": {}
}