{"contracts-verify-old/PaymentFactory_Recurring.sol":{"PaymentFactory_Recurring":{"abi":[{"inputs":[],"stateMutability":"nonpayable","type":"constructor"},{"anonymous":false,"inputs":[{"indexed":true,"internalType":"address","name":"admin","type":"address"},{"indexed":true,"internalType":"address","name":"paymentContract","type":"address"},{"indexed":false,"internalType":"bool","name":"success","type":"bool"}],"name":"AdminCancelAttempt","type":"event"},{"anonymous":false,"inputs":[{"indexed":true,"internalType":"address","name":"admin","type":"address"},{"indexed":true,"internalType":"address","name":"paymentContract","type":"address"}],"name":"AdminExecuted","type":"event"},{"anonymous":false,"inputs":[{"indexed":true,"internalType":"address","name":"payer","type":"address"},{"indexed":true,"internalType":"address","name":"tokenAddress","type":"address"},{"indexed":false,"internalType":"uint256","name":"count","type":"uint256"},{"indexed":false,"internalType":"uint256","name":"startDate","type":"uint256"},{"indexed":false,"internalType":"uint256","name":"totalMonths","type":"uint256"}],"name":"BatchRecurringPaymentCreatedERC20","type":"event"},{"anonymous":false,"inputs":[{"indexed":true,"internalType":"address","name":"payer","type":"address"},{"indexed":true,"internalType":"address","name":"payee","type":"address"},{"indexed":true,"internalType":"address","name":"tokenAddress","type":"address"},{"indexed":false,"internalType":"address","name":"paymentContract","type":"address"},{"indexed":false,"internalType":"uint256","name":"monthlyAmount","type":"uint256"},{"indexed":false,"internalType":"uint256","name":"protocolFeePerMonth","type":"uint256"},{"indexed":false,"internalType":"uint256","name":"startDate","type":"uint256"},{"indexed":false,"internalType":"uint256","name":"totalMonths","type":"uint256"}],"name":"RecurringPaymentCreatedERC20","type":"event"},{"inputs":[],"name":"BASIS_POINTS_DENOMINATOR","outputs":[{"internalType":"uint256","name":"","type":"uint256"}],"stateMutability":"view","type":"function"},{"inputs":[],"name":"FACTORY_OWNER","outputs":[{"internalType":"address","name":"","type":"address"}],"stateMutability":"view","type":"function"},{"inputs":[],"name":"FEE_BASIS_POINTS","outputs":[{"internalType":"uint256","name":"","type":"uint256"}],"stateMutability":"view","type":"function"},{"inputs":[],"name":"PROTOCOL_WALLET","outputs":[{"internalType":"address","name":"","type":"address"}],"stateMutability":"view","type":"function"},{"inputs":[{"internalType":"address","name":"paymentContract","type":"address"}],"name":"adminCancel","outputs":[{"internalType":"bool","name":"success","type":"bool"}],"stateMutability":"nonpayable","type":"function"},{"inputs":[{"internalType":"address","name":"paymentContract","type":"address"}],"name":"adminExecutePayment","outputs":[],"stateMutability":"nonpayable","type":"function"},{"inputs":[{"internalType":"address","name":"_tokenAddress","type":"address"},{"internalType":"address[]","name":"_payees","type":"address[]"},{"internalType":"uint256[]","name":"_monthlyAmounts","type":"uint256[]"},{"internalType":"uint256","name":"_startDate","type":"uint256"},{"internalType":"uint256","name":"_totalMonths","type":"uint256"},{"internalType":"uint256","name":"_dayOfMonth","type":"uint256"}],"name":"createBatchRecurringPaymentERC20","outputs":[{"internalType":"address[]","name":"","type":"address[]"}],"stateMutability":"nonpayable","type":"function"},{"inputs":[{"internalType":"address","name":"_payee","type":"address"},{"internalType":"address","name":"_tokenAddress","type":"address"},{"internalType":"uint256","name":"_monthlyAmount","type":"uint256"},{"internalType":"uint256","name":"_startDate","type":"uint256"},{"internalType":"uint256","name":"_totalMonths","type":"uint256"},{"internalType":"uint256","name":"_dayOfMonth","type":"uint256"}],"name":"createRecurringPaymentERC20","outputs":[{"internalType":"address","name":"","type":"address"}],"stateMutability":"nonpayable","type":"function"},{"inputs":[{"internalType":"address","name":"_payee","type":"address"},{"internalType":"address","name":"_tokenAddress","type":"address"},{"internalType":"uint256","name":"_monthlyAmount","type":"uint256"},{"internalType":"uint256","name":"_firstMonthAmount","type":"uint256"},{"internalType":"uint256","name":"_startDate","type":"uint256"},{"internalType":"uint256","name":"_totalMonths","type":"uint256"},{"internalType":"uint256","name":"_dayOfMonth","type":"uint256"}],"name":"createRecurringPaymentERC20_V2","outputs":[{"internalType":"address","name":"","type":"address"}],"stateMutability":"nonpayable","type":"function"},{"inputs":[{"internalType":"uint256","name":"monthlyAmount","type":"uint256"}],"name":"previewFeePerMonth","outputs":[{"internalType":"uint256","name":"","type":"uint256"}],"stateMutability":"pure","type":"function"}],"evm":{"bytecode":{"linkReferences":{},"object":"60a080604052346100315733608052612c0590816100378239608051818181610516015281816107e40152610a210152f35b600080fdfe608060405260043610156200001357600080fd5b60003560e01c8063242402ec14620009f75780633c3670f414620008135780635935cbfe14620007cc5780636ebf178f1462000793578063767edb63146200076257806383233efd146200060f578063a525ad3c14620005f1578063b57ce93314620004e7578063cfa498a314620004c85763dff94363146200009557600080fd5b34620004c35760c0366003190112620004c357620000b262000a60565b6024356001600160401b038111620004c357620000d490369060040162000a8e565b90916044356001600160401b038111620004c357620000f890369060040162000a8e565b906200010f6001600160a01b038416151562000afe565b83156200049257603284116200045d57818403620004265762000136426064351162000b85565b600160843510158062000418575b6200014f9062000bd1565b600160a4351015806200040a575b620001689062000c1a565b620001738462000d2e565b9462000183604051968762000d0a565b848652601f19620001948662000d2e565b0136602088013760005b858110620002425750506040805194855260643560208601526084359085015250506001600160a01b03169033907f622474ac9bff1023a7d3d001dff3ad2998d648469a0770949275a139c433bede90606090a360405180916020820160208352815180915260206040840192019060005b8181106200021f575050500390f35b82516001600160a01b031684528594506020938401939092019160010162000210565b6200026e6001600160a01b03620002656200025f848a8762000d46565b62000d57565b16151562000ac1565b620002886200027f82868662000d46565b35151562000b3b565b620002996200025f82888562000d46565b620002a682868662000d46565b6040519190356001600160401b03611cc3840190811190841117620003f4578291620002ee91611cc362000ef6853960a43591608435918b6064359233611cc3890162000c63565b03906000f08015620003e8578751821015620003d2576001600160a01b038116600583901b8901602001526200032682868662000d46565b359060b3918083810204831481151715620003bc5760008051602062002bb98339815191526200035c6200025f868c8962000d46565b936200036a868a8a62000d46565b6040516001600160a01b03808d1697811696339692948594620003a6946084359460643594612710949092029390930492913591168662000cc2565b0390a46000198114620003bc576001016200019e565b634e487b7160e01b600052601160045260246000fd5b634e487b7160e01b600052603260045260246000fd5b6040513d6000823e3d90fd5b634e487b7160e01b600052604160045260246000fd5b50601c60a43511156200015d565b50600c608435111562000144565b60405162461bcd60e51b815260206004820152600f60248201526e098cadccee8d040dad2e6dac2e8c6d608b1b6044820152606490fd5b60405162461bcd60e51b815260206004820152600d60248201526c4d61782035302070617965657360981b6044820152606490fd5b60405162461bcd60e51b81526020600482015260096024820152684e6f2070617965657360b81b6044820152606490fd5b600080fd5b34620004c3576000366003190112620004c35760206040516127108152f35b34620004c3576020366003190112620004c3576200050462000a60565b6000806001600160a01b036200053e337f000000000000000000000000000000000000000000000000000000000000000083161462000d6c565b8316926200054e84151562000da5565b6040518260208201916311f4337360e21b835260048152620005708162000cee565b51925af16200057e62000de4565b5015620005ad57337fce0ff9f85d25f25d3dafbbfd9039a8f27845cca7ef6a277639e66edf4fe7bc00600080a3005b60405162461bcd60e51b815260206004820152601c60248201527b195e1958dd5d19535bdb9d1a1b1e54185e5b595b9d0819985a5b195960221b6044820152606490fd5b34620004c3576000366003190112620004c357602060405160b38152f35b34620004c35760c0366003190112620004c3576200062c62000a60565b6200063662000a77565b60443591608435916001600160a01b03808316919060643560a4356200065e85151562000ac1565b828416956200066f87151562000afe565b8815946200067e861562000b3b565b6200068b42851162000b85565b60018910158062000756575b620006a29062000bd1565b6001831015806200074a575b620006b99062000c1a565b60b38a02958a870460b3141715620003bc5760405192611cc3928385016001600160401b03811186821017620003f4578c62000703948d938993899862000ef68a39339062000c63565b03906000f0968715620003e8576200073f60008051602062002bb9833981519152936020991697604051938493612710339804908b8662000cc2565b0390a4604051908152f35b50601c831115620006ae565b50600c89111562000697565b34620004c3576000366003190112620004c357602060405173a34edf91cc494450000eef08e6563062b2f115a98152f35b34620004c3576020366003190112620004c35760043560b381029080820460b31490151715620003bc5760209061271060405191048152f35b34620004c3576000366003190112620004c3576040517f00000000000000000000000000000000000000000000000000000000000000006001600160a01b03168152602090f35b34620004c35760e0366003190112620004c3576200083062000a60565b6200083a62000a77565b6044359160a4359160c435916001600160a01b039081169160643591906084359082906200086a86151562000ac1565b16946200087986151562000afe565b87159362000888851562000b3b565b6200089542841162000b85565b600188101580620009eb575b620008ac9062000bd1565b600182101580620009df575b620008c39062000c1a565b801580156200098e575b5060b389029489860460b3141715620003bc5760405191611cc390818401906001600160401b03821185831017620003f45761012093859362000ef685393383528960208401528a60408401528c606084015260808301528560a08301528a60c083015260e082015273a34edf91cc494450000eef08e6563062b2f115a96101008201520301906000f0968715620003e8576200073f60008051602062002bb9833981519152936020991697604051938493612710339804908b8662000cc2565b6200099a5789620008cd565b60405162461bcd60e51b815260206004820152601e60248201527f4669727374206d6f6e746820616d6f756e74206d757374206265203e203000006044820152606490fd5b50601c821115620008b8565b50600c881115620008a1565b34620004c3576020366003190112620004c357602062000a5662000a1a62000a60565b62000a50337f00000000000000000000000000000000000000000000000000000000000000006001600160a01b03161462000d6c565b62000e27565b6040519015158152f35b600435906001600160a01b0382168203620004c357565b602435906001600160a01b0382168203620004c357565b9181601f84011215620004c3578235916001600160401b038311620004c3576020808501948460051b010111620004c357565b1562000ac957565b60405162461bcd60e51b815260206004820152600d60248201526c496e76616c696420706179656560981b6044820152606490fd5b1562000b0657565b60405162461bcd60e51b815260206004820152600d60248201526c24b73b30b634b2103a37b5b2b760991b6044820152606490fd5b1562000b4357565b60405162461bcd60e51b815260206004820152601a60248201527904d6f6e74686c7920616d6f756e74206d757374206265203e20360341b6044820152606490fd5b1562000b8d57565b60405162461bcd60e51b815260206004820152601c60248201527b53746172742064617465206d75737420626520696e2066757475726560201b6044820152606490fd5b1562000bd957565b60405162461bcd60e51b81526020600482015260196024820152782a37ba30b61036b7b73a34399036bab9ba103132901896989960391b6044820152606490fd5b1562000c2257565b60405162461bcd60e51b8152602060048201526019602482015278088c2f240decc40dadedce8d040daeae6e840c4ca40625a647603b1b6044820152606490fd5b9373a34edf91cc494450000eef08e6563062b2f115a99692610100969299989461012087019a60018060a01b039283809216895216602088015216604086015260608501526000608085015260a084015260c083015260e08201520152565b9192608093969594919660a084019760018060a01b031684526020840152604083015260608201520152565b604081019081106001600160401b03821117620003f457604052565b601f909101601f19168101906001600160401b03821190821017620003f457604052565b6001600160401b038111620003f45760051b60200190565b9190811015620003d25760051b0190565b356001600160a01b0381168103620004c35790565b1562000d7457565b60405162461bcd60e51b81526020600482015260096024820152682737ba1037bbb732b960b91b6044820152606490fd5b1562000dad57565b60405162461bcd60e51b815260206004820152600f60248201526e125b9d985b1a59081c185e5b595b9d608a1b6044820152606490fd5b3d1562000e22573d906001600160401b038211620003f4576040519162000e16601f8201601f19166020018462000d0a565b82523d6000602084013e565b606090565b6001600160a01b0381169062000e3f82151562000da5565b6040516303c5566360e31b6020820190815260048252919062000e628162000cee565b600080938192519082855af162000e7862000de4565b5062000ed2578190604051826020820191630ea8a1af60e41b83526004815262000ea28162000cee565b51925af19062000eb162000de4565b50604051821515815260008051602062002bd983398151915260203392a390565b50506040516001815260008051602062002bd983398151915260203392a360019056fe60a0346200042e57601f62001cc338819003918201601f191683019291906001600160401b0384118385101762000433578161012092849260409687528339810103126200042e57620000528162000449565b6020916200006283820162000449565b926200007085830162000449565b9160608101519260808201519560a08301519660c0840151956200009d61010060e0870151960162000449565b9160019460009486865560018060a01b03809b16908115620003fa578b16918215620003c6578b16918215620003925784156200034e57428d11156200030a57878b101580620002fe575b15620002ba578789101580620002ae575b156200026a578b861615620002265760018060a01b0319918289541617885581600254161760025560035416176003558160045560b3820291820460b303620001eb576127108092048060065581600555898215918215600014620001ff57505060b3820291820460b3141715620001eb5792889260008051602062001ca383398151915297959260a09795046007555b8a6008558860095584600a5560805280600f55600c55541694866002541696600354169760045493600654908b519586528501528984015260608301526080820152a45161184490816200045f82396080518181816104bb0152610a420152f35b634e487b7160e01b84526011600452602484fd5b9094915060008051602062001ca38339815191529896935060a0979592506007556200018a565b8d5162461bcd60e51b8152600481018b9052601660248201527f496e76616c69642070726f746f636f6c206f776e6572000000000000000000006044820152606490fd5b8d5162461bcd60e51b8152600481018b9052601960248201527f446179206f66206d6f6e7468206d75737420626520312d3238000000000000006044820152606490fd5b50601c891115620000f9565b8d5162461bcd60e51b8152600481018b9052601960248201527f546f74616c206d6f6e746873206d75737420626520312d3132000000000000006044820152606490fd5b50600c8b1115620000e8565b8d5162461bcd60e51b8152600481018b9052601c60248201527f53746172742064617465206d75737420626520696e20667574757265000000006044820152606490fd5b8d5162461bcd60e51b8152600481018b9052601a60248201527f4d6f6e74686c7920616d6f756e74206d757374206265203e20300000000000006044820152606490fd5b8d5162461bcd60e51b8152600481018b9052600d60248201526c24b73b30b634b2103a37b5b2b760991b6044820152606490fd5b8d5162461bcd60e51b8152600481018b9052600d60248201526c496e76616c696420706179656560981b6044820152606490fd5b8d5162461bcd60e51b8152600481018b9052600d60248201526c24b73b30b634b2103830bcb2b960991b6044820152606490fd5b600080fd5b634e487b7160e01b600052604160045260246000fd5b51906001600160a01b03821682036200042e5756fe608060408181526004918236101561001657600080fd5b600092833560e01c91826303f7a68c14610aca575081630b97bc8614610aab5781630d3e50fc14610a2d57816310786deb14610a0f578163123119cd146109e6578163247b76f1146109c757816326446c92146109a857816328603738146109895781633974eb80146108075781633fb0d6ff146107da57816347d0cdcc146107b25781634a85ed20146107465781634e69d560146106f85781636588439c146106da578163767edb63146106ab5781638d47b620146105ba5781639a82a09a146105965781639d76ea581461056d578163a525ad3c14610551578163ae90b21314610528578163b207715214610509578163bfcb3cb7146104ea578163c1d6ba69146104a6578163c3cd31c714610487578163c92ae9591461033f578163cfa498a314610322578163e2025b20146102fe578163e7b0f666146102df578163ea8a1af014610190575063eed853901461016f57600080fd5b3461018c578160031936011261018c57602090600b549051908152f35b5080fd5b919050346102db57826003193601126102db576101ab611621565b6001546001600160a01b031691338390036102a157600d5460ff811661026a57600f546009549081811015610261576101e391610c6b565b915b821561021e5750906001600080516020611818833981519152939260ff191617600d55600b549082519182526020820152a26001815580f35b606490602085519162461bcd60e51b8352820152601f60248201527f4e6f2072656d61696e696e67207061796d656e747320746f2063616e63656c006044820152fd5b505084916101e5565b506020606492519162461bcd60e51b83528201526011602482015270105b1c9958591e4818d85b98d95b1b1959607a1b6044820152fd5b6020606492519162461bcd60e51b8352820152601560248201527413db9b1e481c185e595c8818d85b8818d85b98d95b605a1b6044820152fd5b8280fd5b50503461018c578160031936011261018c57602090600c549051908152f35b50503461018c578160031936011261018c5760209061031b611644565b9051908152f35b50503461018c578160031936011261018c57602090516127108152f35b905082346104845780600319360112610484578092819060ff600d5416801593848095610477575b610402575b506101a095918491946103f3575b60018060a01b03908160015416968260025416926003541690546006546008549160095493600a5495600b5497602082519e8f90815201528c015260608b015260808a015260a089015260c088015260e08701526101008601521561012085015261014084015215156101608301521515610180820152f35b600f546009541115945061037a565b95509150600854600f549062278d00908183029183830414831517156104645791836104346101a09995938895610bef565b9485421015928361044d575b505050939150919561036c565b60ff93508152600e60205220541615818980610440565b634e487b7160e01b885260118752602488fd5b50600f5460095411610367565b80fd5b50503461018c578160031936011261018c576020906009549051908152f35b50503461018c578160031936011261018c57517f00000000000000000000000000000000000000000000000000000000000000006001600160a01b03168152602090f35b50503461018c578160031936011261018c576020906007549051908152f35b50503461018c578160031936011261018c576020906006549051908152f35b50503461018c578160031936011261018c5760025490516001600160a01b039091168152602090f35b50503461018c578160031936011261018c576020905160b38152f35b50503461018c578160031936011261018c5760035490516001600160a01b039091168152602090f35b50503461018c578160031936011261018c5760209060ff600d541690519015158152f35b919050346102db57826003193601126102db57600f5460095461062f92918181101561069e576105ef61060291602093610c6b565b6105fd865460065490610bef565b610bc6565b9360018060a01b03806003541690600154168451809681948293636eb1769f60e11b845230918401610c87565b03915afa918215610694578492610659575b50606093508051928083101584526020840152820152f35b9091506020813d821161068c575b8161067460209383610c48565b810103126106885760609350519038610641565b8380fd5b3d9150610667565b81513d86823e3d90fd5b50506020610602856105ef565b50503461018c578160031936011261018c576020905173a34edf91cc494450000eef08e6563062b2f115a98152f35b9050346102db57826003193601126102db5760209250549051908152f35b50503461018c578160031936011261018c5761072f9061071661169b565b929394809291925196879660a0885260a0880190610ba1565b946020870152850152606084015260808301520390f35b8391503461018c578260031936011261018c5780359160b383029183830460b3148415171561079f57505061078361271061079b92048093610bef565b9261079060243585610bc6565b905193849384610b68565b0390f35b634e487b7160e01b825260119052602490fd5b83346104845780600319360112610484576107cb611621565b6107d3610d12565b6001815580f35b9050346102db5760203660031901126102db578160209360ff92358152600e855220541690519015158152f35b9050346102db5760803660031901126102db576001600160a01b039181358381169190829003610985576024938435818116809103610981576064938435923033036109545760035416946020898651828101906323b872dd60e01b96878352868d83015260448201526044358582015284815261088481610bfc565b5190828a5af11561094a5788513d6109415750853b155b61092c5790889291846108ac578380f35b6020948651928684019485528a84015273a34edf91cc494450000eef08e6563062b2f115a960448401528183015281526108e581610bfc565b519082865af1156109235784513d61091a5750813b155b6109095780858180808380f35b51635274afe760e01b815291820152fd5b600114156108fc565b513d85823e3d90fd5b505050505191635274afe760e01b8352820152fd5b6001141561089b565b84513d8a823e3d90fd5b845162461bcd60e51b81526020818901526009818a01526827b7363c9039b2b63360b91b60448201528690fd5b8680fd5b8480fd5b50503461018c578160031936011261018c57602090600a549051908152f35b50503461018c578160031936011261018c576020906005549051908152f35b50503461018c578160031936011261018c57602090600f549051908152f35b50503461018c578160031936011261018c5760015490516001600160a01b039091168152602090f35b50503461018c578160031936011261018c576020905162278d008152f35b919050346102db57826003193601126102db577f00000000000000000000000000000000000000000000000000000000000000006001600160a01b03163303610a7957826107cb611621565b906020606492519162461bcd60e51b8352820152600c60248201526b139bdd081c1c9bdd1bd8dbdb60a21b6044820152fd5b50503461018c578160031936011261018c576020906008549051908152f35b92915034610688578360031936011261068857826020918180610b0b60018060a01b039384600354169460015416636eb1769f60e11b845230918401610c87565b03915afa918215610b5e578392610b27575b6020838351908152f35b9091506020813d8211610b56575b81610b4260209383610c48565b810103126102db5760209250519038610b1d565b3d9150610b35565b81513d85823e3d90fd5b6040919493926060820195825260208201520152565b60005b838110610b915750506000910152565b8181015183820152602001610b81565b90602091610bba81518092818552858086019101610b7e565b601f01601f1916010190565b81810292918115918404141715610bd957565b634e487b7160e01b600052601160045260246000fd5b91908201809211610bd957565b60a081019081106001600160401b03821117610c1757604052565b634e487b7160e01b600052604160045260246000fd5b604081019081106001600160401b03821117610c1757604052565b601f909101601f19168101906001600160401b03821190821017610c1757604052565b91908203918211610bd957565b6000198114610bd95760010190565b6001600160a01b0391821681529116602082015260400190565b600060443d10610cfe57604051600319913d83016004833e81516001600160401b03918282113d602484011117610d0157818401948551938411610d09573d85010160208487010111610d015750610cfe92910160200190610c48565b90565b949350505050565b50949350505050565b600d5460ff600091166115e8576008548042106115a957600f549060095482101561156457818352600e60205260ff6040842054166115215762278d0082029082820462278d00148315171561150d5790610d6c91610bef565b42106114cb578015806114c0575b156114b8576005545b8115806114ad575b156114a457600754905b610d9f8282610bef565b6003546001546040516370a0823160e01b81526001600160a01b039182166004820181905292909160209183916024918391165afa9081156112d257908391889161146f575b50106113f75750600354600154604051636eb1769f60e11b81526001600160a01b039182169290916020918391168180610e23308860048401610c87565b03915afa9081156112d25790839188916113c2575b50106112dd5750600354600154604051636eb1769f60e11b81526001600160a01b03918216939290916020918391168180610e77308960048401610c87565b03915afa9081156112d25787916112a0575b5010611267576002546001600160a01b0316303b1561126357604051916272e9d760e71b835260048301526024820152816044820152826064820152848160848183305af19081611234575b5061112b57505060018260033d1161111b575b6308c379a014610fed575b610efb575050565b6001810191828211610fd95760018060a01b0360015416836000805160206117f8833981519152606060405160208152601f60208201527f5472616e73666572206661696c65642028756e6b6e6f776e206572726f7229006040820152a38115610f7a576040918152600e60205220600160ff19825416179055600f55565b8060019260409252600e6020522060ff1990828282541617905582600f55600d541617600d55600080516020611818833981519152604060018060a01b036001541692610fcc600b5491600954610c6b565b82519182526020820152a2565b634e487b7160e01b81526011600452602490fd5b610ff5610ca1565b80611001575b50610ef3565b839150600183019081841161110757816000805160206117f883398151915261108a60018060a01b036001541693611076603160405180937002a3930b739b332b9103330b4b632b21d1607d1b60208301526110668151809260208686019101610b7e565b8101036011810184520182610c48565b604051918291602083526020830190610ba1565b0390a382156110b357828452600e60205260408420805460ff19166001179055600f5538610ffb565b92604091506001928152600e6020522060ff1990828282541617905582600f55600d541617600d55600080516020611818833981519152604060018060a01b036001541692610fcc600b5491600954610c6b565b634e487b7160e01b85526011600452602485fd5b50600483803e825160e01c610ee8565b909392828152600e60205260408120600160ff1982541617905560018301809311610fd95782600f5561115f600b54610c78565b9283600b5561117083600c54610bef565b9283600c55600954928383106000146112185760085462278d0084029184830462278d001485151715610fd957506111d997986111bd85936000805160206117d883398151915293610bef565b935b60018060a01b0360025416998a9560405193849384610b68565b0390a3146111e657505050565b7fb3ca1c952acfaa0ce116b82df50ba6eca680e859f7cca23b684ba04848c6d6d59160409182519182526020820152a2565b6000805160206117d88339815191526111d997988492936111bf565b9094906001600160401b03811161124f576040529338610ed5565b634e487b7160e01b82526041600452602482fd5b8580fd5b60405162461bcd60e51b8152602060048201526011602482015270414c4c4f57414e43455f544f4f5f4c4f5760781b6044820152606490fd5b90506020813d6020116112ca575b816112bb60209383610c48565b81010312610981575138610e89565b3d91506112ae565b6040513d89823e3d90fd5b94939250505060018101928382116113ae57836000805160206117f88339815191526060604051602081526016602082015275496e73756666696369656e7420616c6c6f77616e636560501b6040820152a3801561135c57604092508152600e60205220600160ff19825416179055611357600f54610c78565b600f55565b8160409160019352600e6020522060ff1990828282541617905582600f55600d541617600d55600080516020611818833981519152604060018060a01b036001541692610fcc600b5491600954610c6b565b634e487b7160e01b83526011600452602483fd5b9150506020813d6020116113ef575b816113de60209383610c48565b810103126109815782905138610e38565b3d91506113d1565b94939250505060018101928382116113ae57836000805160206117f88339815191526060604051602081526014602082015273496e73756666696369656e742062616c616e636560601b6040820152a3801561135c57604092508152600e60205220600160ff19825416179055611357600f54610c78565b9150506020813d60201161149c575b8161148b60209383610c48565b810103126109815782905138610de5565b3d915061147e565b60065490610d95565b506005541515610d8b565b600454610d83565b506005541515610d7a565b60405162461bcd60e51b815260206004820152601a602482015279151bdbc819585c9b1e48199bdc881d1a1a5cc81c185e5b595b9d60321b6044820152606490fd5b634e487b7160e01b84526011600452602484fd5b60405162461bcd60e51b815260206004820152601b60248201527a151a1a5cc81b5bdb9d1a08185b1c9958591e48195e1958dd5d1959602a1b6044820152606490fd5b60405162461bcd60e51b815260206004820152601d60248201527f416c6c207061796d656e7420706572696f647320636f6d706c657465640000006044820152606490fd5b60405162461bcd60e51b815260206004820152601760248201527614185e5b595b9d081b9bdd081cdd185c9d1959081e595d604a1b6044820152606490fd5b60405162461bcd60e51b815260206004820152601160248201527014185e5b595b9d0818d85b98d95b1b1959607a1b6044820152606490fd5b600260005414611632576002600055565b604051633ee5aeb560e01b8152600490fd5b60ff600d541661169657600f54600954811015611690576008549062278d0090818102918183041490151715610bd95761167d91610bef565b8042101561169057610cfe904290610c6b565b50600090565b600090565b60ff600d541661175e57600f54906009548083101561170c57826116be91610c6b565b90600b549283600091818111600014611705576116db9250610c6b565b600c54916040516116eb81610c2d565b600681526561637469766560d01b60208201529493929190565b50506116db565b600b549250600090839081811115611757576117289250610c6b565b600c549060405161173881610c2d565b600981526818dbdb5c1b195d195960ba1b602082015293926000929190565b5050611728565b600f5490600954826000918082106000146117cf5761177d9250610c6b565b905b600b5492836000918181116000146117c85761179b9250610c6b565b600c54916040516117ab81610c2d565b600981526818d85b98d95b1b195960ba1b60208201529493929190565b505061179b565b50509061177f56fe7b1404bdb91dc49f5ae076071f80af302753bd5d3b299861de66f56a828651bec57cc88c889ba5082585c741abc3e2081475633a94f4706b2fa9652abb08b58e61b9c33e0e4d02b2162fc16b3687513680c424835fceaec6d62637b8048dd876a164736f6c6343000814000accba8aa02e1aee0ff839b5d136f5b254a570d25e1c7c3fc0c4956ef90baa15834d5b5025a40c885cc1ee3d0f90faeb8e37ef123046233e022a75d3193724c134f0e2ef43bebd43456ad90b67b13e894a4d38aecf23cb2c0cb6dbe6819a2c1b9ca164736f6c6343000814000a","opcodes":"PUSH1 0xA0 DUP1 PUSH1 0x40 MSTORE CALLVALUE PUSH2 0x31 JUMPI CALLER PUSH1 0x80 MSTORE PUSH2 0x2C05 SWAP1 DUP2 PUSH2 0x37 DUP3 CODECOPY PUSH1 0x80 MLOAD DUP2 DUP2 DUP2 PUSH2 0x516 ADD MSTORE DUP2 DUP2 PUSH2 0x7E4 ADD MSTORE PUSH2 0xA21 ADD MSTORE RETURN JUMPDEST PUSH1 0x0 DUP1 REVERT INVALID PUSH1 0x80 PUSH1 0x40 MSTORE PUSH1 0x4 CALLDATASIZE LT ISZERO PUSH3 0x13 JUMPI PUSH1 0x0 DUP1 REVERT JUMPDEST PUSH1 0x0 CALLDATALOAD PUSH1 0xE0 SHR DUP1 PUSH4 0x242402EC EQ PUSH3 0x9F7 JUMPI DUP1 PUSH4 0x3C3670F4 EQ PUSH3 0x813 JUMPI DUP1 PUSH4 0x5935CBFE EQ PUSH3 0x7CC JUMPI DUP1 PUSH4 0x6EBF178F EQ PUSH3 0x793 JUMPI DUP1 PUSH4 0x767EDB63 EQ PUSH3 0x762 JUMPI DUP1 PUSH4 0x83233EFD EQ PUSH3 0x60F JUMPI DUP1 PUSH4 0xA525AD3C EQ PUSH3 0x5F1 JUMPI DUP1 PUSH4 0xB57CE933 EQ PUSH3 0x4E7 JUMPI DUP1 PUSH4 0xCFA498A3 EQ PUSH3 0x4C8 JUMPI PUSH4 0xDFF94363 EQ PUSH3 0x95 JUMPI PUSH1 0x0 DUP1 REVERT JUMPDEST CALLVALUE PUSH3 0x4C3 JUMPI PUSH1 0xC0 CALLDATASIZE PUSH1 0x3 NOT ADD SLT PUSH3 0x4C3 JUMPI PUSH3 0xB2 PUSH3 0xA60 JUMP JUMPDEST PUSH1 0x24 CALLDATALOAD PUSH1 0x1 PUSH1 0x1 PUSH1 0x40 SHL SUB DUP2 GT PUSH3 0x4C3 JUMPI PUSH3 0xD4 SWAP1 CALLDATASIZE SWAP1 PUSH1 0x4 ADD PUSH3 0xA8E JUMP JUMPDEST SWAP1 SWAP2 PUSH1 0x44 CALLDATALOAD PUSH1 0x1 PUSH1 0x1 PUSH1 0x40 SHL SUB DUP2 GT PUSH3 0x4C3 JUMPI PUSH3 0xF8 SWAP1 CALLDATASIZE SWAP1 PUSH1 0x4 ADD PUSH3 0xA8E JUMP JUMPDEST SWAP1 PUSH3 0x10F PUSH1 0x1 PUSH1 0x1 PUSH1 0xA0 SHL SUB DUP5 AND ISZERO ISZERO PUSH3 0xAFE JUMP JUMPDEST DUP4 ISZERO PUSH3 0x492 JUMPI PUSH1 0x32 DUP5 GT PUSH3 0x45D JUMPI DUP2 DUP5 SUB PUSH3 0x426 JUMPI PUSH3 0x136 TIMESTAMP PUSH1 0x64 CALLDATALOAD GT PUSH3 0xB85 JUMP JUMPDEST PUSH1 0x1 PUSH1 0x84 CALLDATALOAD LT ISZERO DUP1 PUSH3 0x418 JUMPI JUMPDEST PUSH3 0x14F SWAP1 PUSH3 0xBD1 JUMP JUMPDEST PUSH1 0x1 PUSH1 0xA4 CALLDATALOAD LT ISZERO DUP1 PUSH3 0x40A JUMPI JUMPDEST PUSH3 0x168 SWAP1 PUSH3 0xC1A JUMP JUMPDEST PUSH3 0x173 DUP5 PUSH3 0xD2E JUMP JUMPDEST SWAP5 PUSH3 0x183 PUSH1 0x40 MLOAD SWAP7 DUP8 PUSH3 0xD0A JUMP JUMPDEST DUP5 DUP7 MSTORE PUSH1 0x1F NOT PUSH3 0x194 DUP7 PUSH3 0xD2E JUMP JUMPDEST ADD CALLDATASIZE PUSH1 0x20 DUP9 ADD CALLDATACOPY PUSH1 0x0 JUMPDEST DUP6 DUP2 LT PUSH3 0x242 JUMPI POP POP PUSH1 0x40 DUP1 MLOAD SWAP5 DUP6 MSTORE PUSH1 0x64 CALLDATALOAD PUSH1 0x20 DUP7 ADD MSTORE PUSH1 0x84 CALLDATALOAD SWAP1 DUP6 ADD MSTORE POP POP PUSH1 0x1 PUSH1 0x1 PUSH1 0xA0 SHL SUB AND SWAP1 CALLER SWAP1 PUSH32 0x622474AC9BFF1023A7D3D001DFF3AD2998D648469A0770949275A139C433BEDE SWAP1 PUSH1 0x60 SWAP1 LOG3 PUSH1 0x40 MLOAD DUP1 SWAP2 PUSH1 0x20 DUP3 ADD PUSH1 0x20 DUP4 MSTORE DUP2 MLOAD DUP1 SWAP2 MSTORE PUSH1 0x20 PUSH1 0x40 DUP5 ADD SWAP3 ADD SWAP1 PUSH1 0x0 JUMPDEST DUP2 DUP2 LT PUSH3 0x21F JUMPI POP POP POP SUB SWAP1 RETURN JUMPDEST DUP3 MLOAD PUSH1 0x1 PUSH1 0x1 PUSH1 0xA0 SHL SUB AND DUP5 MSTORE DUP6 SWAP5 POP PUSH1 0x20 SWAP4 DUP5 ADD SWAP4 SWAP1 SWAP3 ADD SWAP2 PUSH1 0x1 ADD PUSH3 0x210 JUMP JUMPDEST PUSH3 0x26E PUSH1 0x1 PUSH1 0x1 PUSH1 0xA0 SHL SUB PUSH3 0x265 PUSH3 0x25F DUP5 DUP11 DUP8 PUSH3 0xD46 JUMP JUMPDEST PUSH3 0xD57 JUMP JUMPDEST AND ISZERO ISZERO PUSH3 0xAC1 JUMP JUMPDEST PUSH3 0x288 PUSH3 0x27F DUP3 DUP7 DUP7 PUSH3 0xD46 JUMP JUMPDEST CALLDATALOAD ISZERO ISZERO PUSH3 0xB3B JUMP JUMPDEST PUSH3 0x299 PUSH3 0x25F DUP3 DUP9 DUP6 PUSH3 0xD46 JUMP JUMPDEST PUSH3 0x2A6 DUP3 DUP7 DUP7 PUSH3 0xD46 JUMP JUMPDEST PUSH1 0x40 MLOAD SWAP2 SWAP1 CALLDATALOAD PUSH1 0x1 PUSH1 0x1 PUSH1 0x40 SHL SUB PUSH2 0x1CC3 DUP5 ADD SWAP1 DUP2 GT SWAP1 DUP5 GT OR PUSH3 0x3F4 JUMPI DUP3 SWAP2 PUSH3 0x2EE SWAP2 PUSH2 0x1CC3 PUSH3 0xEF6 DUP6 CODECOPY PUSH1 0xA4 CALLDATALOAD SWAP2 PUSH1 0x84 CALLDATALOAD SWAP2 DUP12 PUSH1 0x64 CALLDATALOAD SWAP3 CALLER PUSH2 0x1CC3 DUP10 ADD PUSH3 0xC63 JUMP JUMPDEST SUB SWAP1 PUSH1 0x0 CREATE DUP1 ISZERO PUSH3 0x3E8 JUMPI DUP8 MLOAD DUP3 LT ISZERO PUSH3 0x3D2 JUMPI PUSH1 0x1 PUSH1 0x1 PUSH1 0xA0 SHL SUB DUP2 AND PUSH1 0x5 DUP4 SWAP1 SHL DUP10 ADD PUSH1 0x20 ADD MSTORE PUSH3 0x326 DUP3 DUP7 DUP7 PUSH3 0xD46 JUMP JUMPDEST CALLDATALOAD SWAP1 PUSH1 0xB3 SWAP2 DUP1 DUP4 DUP2 MUL DIV DUP4 EQ DUP2 ISZERO OR ISZERO PUSH3 0x3BC JUMPI PUSH1 0x0 DUP1 MLOAD PUSH1 0x20 PUSH3 0x2BB9 DUP4 CODECOPY DUP2 MLOAD SWAP2 MSTORE PUSH3 0x35C PUSH3 0x25F DUP7 DUP13 DUP10 PUSH3 0xD46 JUMP JUMPDEST SWAP4 PUSH3 0x36A DUP7 DUP11 DUP11 PUSH3 0xD46 JUMP JUMPDEST PUSH1 0x40 MLOAD PUSH1 0x1 PUSH1 0x1 PUSH1 0xA0 SHL SUB DUP1 DUP14 AND SWAP8 DUP2 AND SWAP7 CALLER SWAP7 SWAP3 SWAP5 DUP6 SWAP5 PUSH3 0x3A6 SWAP5 PUSH1 0x84 CALLDATALOAD SWAP5 PUSH1 0x64 CALLDATALOAD SWAP5 PUSH2 0x2710 SWAP5 SWAP1 SWAP3 MUL SWAP4 SWAP1 SWAP4 DIV SWAP3 SWAP2 CALLDATALOAD SWAP2 AND DUP7 PUSH3 0xCC2 JUMP JUMPDEST SUB SWAP1 LOG4 PUSH1 0x0 NOT DUP2 EQ PUSH3 0x3BC JUMPI PUSH1 0x1 ADD PUSH3 0x19E JUMP JUMPDEST PUSH4 0x4E487B71 PUSH1 0xE0 SHL PUSH1 0x0 MSTORE PUSH1 0x11 PUSH1 0x4 MSTORE PUSH1 0x24 PUSH1 0x0 REVERT JUMPDEST PUSH4 0x4E487B71 PUSH1 0xE0 SHL PUSH1 0x0 MSTORE PUSH1 0x32 PUSH1 0x4 MSTORE PUSH1 0x24 PUSH1 0x0 REVERT JUMPDEST PUSH1 0x40 MLOAD RETURNDATASIZE PUSH1 0x0 DUP3 RETURNDATACOPY RETURNDATASIZE SWAP1 REVERT JUMPDEST PUSH4 0x4E487B71 PUSH1 0xE0 SHL PUSH1 0x0 MSTORE PUSH1 0x41 PUSH1 0x4 MSTORE PUSH1 0x24 PUSH1 0x0 REVERT JUMPDEST POP PUSH1 0x1C PUSH1 0xA4 CALLDATALOAD GT ISZERO PUSH3 0x15D JUMP JUMPDEST POP PUSH1 0xC PUSH1 0x84 CALLDATALOAD GT ISZERO PUSH3 0x144 JUMP JUMPDEST PUSH1 0x40 MLOAD PUSH3 0x461BCD PUSH1 0xE5 SHL DUP2 MSTORE PUSH1 0x20 PUSH1 0x4 DUP3 ADD MSTORE PUSH1 0xF PUSH1 0x24 DUP3 ADD MSTORE PUSH15 0x98CADCCEE8D040DAD2E6DAC2E8C6D PUSH1 0x8B SHL PUSH1 0x44 DUP3 ADD MSTORE PUSH1 0x64 SWAP1 REVERT JUMPDEST PUSH1 0x40 MLOAD PUSH3 0x461BCD PUSH1 0xE5 SHL DUP2 MSTORE PUSH1 0x20 PUSH1 0x4 DUP3 ADD MSTORE PUSH1 0xD PUSH1 0x24 DUP3 ADD MSTORE PUSH13 0x4D617820353020706179656573 PUSH1 0x98 SHL PUSH1 0x44 DUP3 ADD MSTORE PUSH1 0x64 SWAP1 REVERT JUMPDEST PUSH1 0x40 MLOAD PUSH3 0x461BCD PUSH1 0xE5 SHL DUP2 MSTORE PUSH1 0x20 PUSH1 0x4 DUP3 ADD MSTORE PUSH1 0x9 PUSH1 0x24 DUP3 ADD MSTORE PUSH9 0x4E6F20706179656573 PUSH1 0xB8 SHL PUSH1 0x44 DUP3 ADD MSTORE PUSH1 0x64 SWAP1 REVERT JUMPDEST PUSH1 0x0 DUP1 REVERT JUMPDEST CALLVALUE PUSH3 0x4C3 JUMPI PUSH1 0x0 CALLDATASIZE PUSH1 0x3 NOT ADD SLT PUSH3 0x4C3 JUMPI PUSH1 0x20 PUSH1 0x40 MLOAD PUSH2 0x2710 DUP2 MSTORE RETURN JUMPDEST CALLVALUE PUSH3 0x4C3 JUMPI PUSH1 0x20 CALLDATASIZE PUSH1 0x3 NOT ADD SLT PUSH3 0x4C3 JUMPI PUSH3 0x504 PUSH3 0xA60 JUMP JUMPDEST PUSH1 0x0 DUP1 PUSH1 0x1 PUSH1 0x1 PUSH1 0xA0 SHL SUB PUSH3 0x53E CALLER PUSH32 0x0 DUP4 AND EQ PUSH3 0xD6C JUMP JUMPDEST DUP4 AND SWAP3 PUSH3 0x54E DUP5 ISZERO ISZERO PUSH3 0xDA5 JUMP JUMPDEST PUSH1 0x40 MLOAD DUP3 PUSH1 0x20 DUP3 ADD SWAP2 PUSH4 0x11F43373 PUSH1 0xE2 SHL DUP4 MSTORE PUSH1 0x4 DUP2 MSTORE PUSH3 0x570 DUP2 PUSH3 0xCEE JUMP JUMPDEST MLOAD SWAP3 GAS CALL PUSH3 0x57E PUSH3 0xDE4 JUMP JUMPDEST POP ISZERO PUSH3 0x5AD JUMPI CALLER PUSH32 0xCE0FF9F85D25F25D3DAFBBFD9039A8F27845CCA7EF6A277639E66EDF4FE7BC00 PUSH1 0x0 DUP1 LOG3 STOP JUMPDEST PUSH1 0x40 MLOAD PUSH3 0x461BCD PUSH1 0xE5 SHL DUP2 MSTORE PUSH1 0x20 PUSH1 0x4 DUP3 ADD MSTORE PUSH1 0x1C PUSH1 0x24 DUP3 ADD MSTORE PUSH28 0x195E1958DD5D19535BDB9D1A1B1E54185E5B595B9D0819985A5B1959 PUSH1 0x22 SHL PUSH1 0x44 DUP3 ADD MSTORE PUSH1 0x64 SWAP1 REVERT JUMPDEST CALLVALUE PUSH3 0x4C3 JUMPI PUSH1 0x0 CALLDATASIZE PUSH1 0x3 NOT ADD SLT PUSH3 0x4C3 JUMPI PUSH1 0x20 PUSH1 0x40 MLOAD PUSH1 0xB3 DUP2 MSTORE RETURN JUMPDEST CALLVALUE PUSH3 0x4C3 JUMPI PUSH1 0xC0 CALLDATASIZE PUSH1 0x3 NOT ADD SLT PUSH3 0x4C3 JUMPI PUSH3 0x62C PUSH3 0xA60 JUMP JUMPDEST PUSH3 0x636 PUSH3 0xA77 JUMP JUMPDEST PUSH1 0x44 CALLDATALOAD SWAP2 PUSH1 0x84 CALLDATALOAD SWAP2 PUSH1 0x1 PUSH1 0x1 PUSH1 0xA0 SHL SUB DUP1 DUP4 AND SWAP2 SWAP1 PUSH1 0x64 CALLDATALOAD PUSH1 0xA4 CALLDATALOAD PUSH3 0x65E DUP6 ISZERO ISZERO PUSH3 0xAC1 JUMP JUMPDEST DUP3 DUP5 AND SWAP6 PUSH3 0x66F DUP8 ISZERO ISZERO PUSH3 0xAFE JUMP JUMPDEST DUP9 ISZERO SWAP5 PUSH3 0x67E DUP7 ISZERO PUSH3 0xB3B JUMP JUMPDEST PUSH3 0x68B TIMESTAMP DUP6 GT PUSH3 0xB85 JUMP JUMPDEST PUSH1 0x1 DUP10 LT ISZERO DUP1 PUSH3 0x756 JUMPI JUMPDEST PUSH3 0x6A2 SWAP1 PUSH3 0xBD1 JUMP JUMPDEST PUSH1 0x1 DUP4 LT ISZERO DUP1 PUSH3 0x74A JUMPI JUMPDEST PUSH3 0x6B9 SWAP1 PUSH3 0xC1A JUMP JUMPDEST PUSH1 0xB3 DUP11 MUL SWAP6 DUP11 DUP8 DIV PUSH1 0xB3 EQ OR ISZERO PUSH3 0x3BC JUMPI PUSH1 0x40 MLOAD SWAP3 PUSH2 0x1CC3 SWAP3 DUP4 DUP6 ADD PUSH1 0x1 PUSH1 0x1 PUSH1 0x40 SHL SUB DUP2 GT DUP7 DUP3 LT OR PUSH3 0x3F4 JUMPI DUP13 PUSH3 0x703 SWAP5 DUP14 SWAP4 DUP10 SWAP4 DUP10 SWAP9 PUSH3 0xEF6 DUP11 CODECOPY CALLER SWAP1 PUSH3 0xC63 JUMP JUMPDEST SUB SWAP1 PUSH1 0x0 CREATE SWAP7 DUP8 ISZERO PUSH3 0x3E8 JUMPI PUSH3 0x73F PUSH1 0x0 DUP1 MLOAD PUSH1 0x20 PUSH3 0x2BB9 DUP4 CODECOPY DUP2 MLOAD SWAP2 MSTORE SWAP4 PUSH1 0x20 SWAP10 AND SWAP8 PUSH1 0x40 MLOAD SWAP4 DUP5 SWAP4 PUSH2 0x2710 CALLER SWAP9 DIV SWAP1 DUP12 DUP7 PUSH3 0xCC2 JUMP JUMPDEST SUB SWAP1 LOG4 PUSH1 0x40 MLOAD SWAP1 DUP2 MSTORE RETURN JUMPDEST POP PUSH1 0x1C DUP4 GT ISZERO PUSH3 0x6AE JUMP JUMPDEST POP PUSH1 0xC DUP10 GT ISZERO PUSH3 0x697 JUMP JUMPDEST CALLVALUE PUSH3 0x4C3 JUMPI PUSH1 0x0 CALLDATASIZE PUSH1 0x3 NOT ADD SLT PUSH3 0x4C3 JUMPI PUSH1 0x20 PUSH1 0x40 MLOAD PUSH20 0xA34EDF91CC494450000EEF08E6563062B2F115A9 DUP2 MSTORE RETURN JUMPDEST CALLVALUE PUSH3 0x4C3 JUMPI PUSH1 0x20 CALLDATASIZE PUSH1 0x3 NOT ADD SLT PUSH3 0x4C3 JUMPI PUSH1 0x4 CALLDATALOAD PUSH1 0xB3 DUP2 MUL SWAP1 DUP1 DUP3 DIV PUSH1 0xB3 EQ SWAP1 ISZERO OR ISZERO PUSH3 0x3BC JUMPI PUSH1 0x20 SWAP1 PUSH2 0x2710 PUSH1 0x40 MLOAD SWAP2 DIV DUP2 MSTORE RETURN JUMPDEST CALLVALUE PUSH3 0x4C3 JUMPI PUSH1 0x0 CALLDATASIZE PUSH1 0x3 NOT ADD SLT PUSH3 0x4C3 JUMPI PUSH1 0x40 MLOAD PUSH32 0x0 PUSH1 0x1 PUSH1 0x1 PUSH1 0xA0 SHL SUB AND DUP2 MSTORE PUSH1 0x20 SWAP1 RETURN JUMPDEST CALLVALUE PUSH3 0x4C3 JUMPI PUSH1 0xE0 CALLDATASIZE PUSH1 0x3 NOT ADD SLT PUSH3 0x4C3 JUMPI PUSH3 0x830 PUSH3 0xA60 JUMP JUMPDEST PUSH3 0x83A PUSH3 0xA77 JUMP JUMPDEST PUSH1 0x44 CALLDATALOAD SWAP2 PUSH1 0xA4 CALLDATALOAD SWAP2 PUSH1 0xC4 CALLDATALOAD SWAP2 PUSH1 0x1 PUSH1 0x1 PUSH1 0xA0 SHL SUB SWAP1 DUP2 AND SWAP2 PUSH1 0x64 CALLDATALOAD SWAP2 SWAP1 PUSH1 0x84 CALLDATALOAD SWAP1 DUP3 SWAP1 PUSH3 0x86A DUP7 ISZERO ISZERO PUSH3 0xAC1 JUMP JUMPDEST AND SWAP5 PUSH3 0x879 DUP7 ISZERO ISZERO PUSH3 0xAFE JUMP JUMPDEST DUP8 ISZERO SWAP4 PUSH3 0x888 DUP6 ISZERO PUSH3 0xB3B JUMP JUMPDEST PUSH3 0x895 TIMESTAMP DUP5 GT PUSH3 0xB85 JUMP JUMPDEST PUSH1 0x1 DUP9 LT ISZERO DUP1 PUSH3 0x9EB JUMPI JUMPDEST PUSH3 0x8AC SWAP1 PUSH3 0xBD1 JUMP JUMPDEST PUSH1 0x1 DUP3 LT ISZERO DUP1 PUSH3 0x9DF JUMPI JUMPDEST PUSH3 0x8C3 SWAP1 PUSH3 0xC1A JUMP JUMPDEST DUP1 ISZERO DUP1 ISZERO PUSH3 0x98E JUMPI JUMPDEST POP PUSH1 0xB3 DUP10 MUL SWAP5 DUP10 DUP7 DIV PUSH1 0xB3 EQ OR ISZERO PUSH3 0x3BC JUMPI PUSH1 0x40 MLOAD SWAP2 PUSH2 0x1CC3 SWAP1 DUP2 DUP5 ADD SWAP1 PUSH1 0x1 PUSH1 0x1 PUSH1 0x40 SHL SUB DUP3 GT DUP6 DUP4 LT OR PUSH3 0x3F4 JUMPI PUSH2 0x120 SWAP4 DUP6 SWAP4 PUSH3 0xEF6 DUP6 CODECOPY CALLER DUP4 MSTORE DUP10 PUSH1 0x20 DUP5 ADD MSTORE DUP11 PUSH1 0x40 DUP5 ADD MSTORE DUP13 PUSH1 0x60 DUP5 ADD MSTORE PUSH1 0x80 DUP4 ADD MSTORE DUP6 PUSH1 0xA0 DUP4 ADD MSTORE DUP11 PUSH1 0xC0 DUP4 ADD MSTORE PUSH1 0xE0 DUP3 ADD MSTORE PUSH20 0xA34EDF91CC494450000EEF08E6563062B2F115A9 PUSH2 0x100 DUP3 ADD MSTORE SUB ADD SWAP1 PUSH1 0x0 CREATE SWAP7 DUP8 ISZERO PUSH3 0x3E8 JUMPI PUSH3 0x73F PUSH1 0x0 DUP1 MLOAD PUSH1 0x20 PUSH3 0x2BB9 DUP4 CODECOPY DUP2 MLOAD SWAP2 MSTORE SWAP4 PUSH1 0x20 SWAP10 AND SWAP8 PUSH1 0x40 MLOAD SWAP4 DUP5 SWAP4 PUSH2 0x2710 CALLER SWAP9 DIV SWAP1 DUP12 DUP7 PUSH3 0xCC2 JUMP JUMPDEST PUSH3 0x99A JUMPI DUP10 PUSH3 0x8CD JUMP JUMPDEST PUSH1 0x40 MLOAD PUSH3 0x461BCD PUSH1 0xE5 SHL DUP2 MSTORE PUSH1 0x20 PUSH1 0x4 DUP3 ADD MSTORE PUSH1 0x1E PUSH1 0x24 DUP3 ADD MSTORE PUSH32 0x4669727374206D6F6E746820616D6F756E74206D757374206265203E20300000 PUSH1 0x44 DUP3 ADD MSTORE PUSH1 0x64 SWAP1 REVERT JUMPDEST POP PUSH1 0x1C DUP3 GT ISZERO PUSH3 0x8B8 JUMP JUMPDEST POP PUSH1 0xC DUP9 GT ISZERO PUSH3 0x8A1 JUMP JUMPDEST CALLVALUE PUSH3 0x4C3 JUMPI PUSH1 0x20 CALLDATASIZE PUSH1 0x3 NOT ADD SLT PUSH3 0x4C3 JUMPI PUSH1 0x20 PUSH3 0xA56 PUSH3 0xA1A PUSH3 0xA60 JUMP JUMPDEST PUSH3 0xA50 CALLER PUSH32 0x0 PUSH1 0x1 PUSH1 0x1 PUSH1 0xA0 SHL SUB AND EQ PUSH3 0xD6C JUMP JUMPDEST PUSH3 0xE27 JUMP JUMPDEST PUSH1 0x40 MLOAD SWAP1 ISZERO ISZERO DUP2 MSTORE RETURN JUMPDEST PUSH1 0x4 CALLDATALOAD SWAP1 PUSH1 0x1 PUSH1 0x1 PUSH1 0xA0 SHL SUB DUP3 AND DUP3 SUB PUSH3 0x4C3 JUMPI JUMP JUMPDEST PUSH1 0x24 CALLDATALOAD SWAP1 PUSH1 0x1 PUSH1 0x1 PUSH1 0xA0 SHL SUB DUP3 AND DUP3 SUB PUSH3 0x4C3 JUMPI JUMP JUMPDEST SWAP2 DUP2 PUSH1 0x1F DUP5 ADD SLT ISZERO PUSH3 0x4C3 JUMPI DUP3 CALLDATALOAD SWAP2 PUSH1 0x1 PUSH1 0x1 PUSH1 0x40 SHL SUB DUP4 GT PUSH3 0x4C3 JUMPI PUSH1 0x20 DUP1 DUP6 ADD SWAP5 DUP5 PUSH1 0x5 SHL ADD ADD GT PUSH3 0x4C3 JUMPI JUMP JUMPDEST ISZERO PUSH3 0xAC9 JUMPI JUMP JUMPDEST PUSH1 0x40 MLOAD PUSH3 0x461BCD PUSH1 0xE5 SHL DUP2 MSTORE PUSH1 0x20 PUSH1 0x4 DUP3 ADD MSTORE PUSH1 0xD PUSH1 0x24 DUP3 ADD MSTORE PUSH13 0x496E76616C6964207061796565 PUSH1 0x98 SHL PUSH1 0x44 DUP3 ADD MSTORE PUSH1 0x64 SWAP1 REVERT JUMPDEST ISZERO PUSH3 0xB06 JUMPI JUMP JUMPDEST PUSH1 0x40 MLOAD PUSH3 0x461BCD PUSH1 0xE5 SHL DUP2 MSTORE PUSH1 0x20 PUSH1 0x4 DUP3 ADD MSTORE PUSH1 0xD PUSH1 0x24 DUP3 ADD MSTORE PUSH13 0x24B73B30B634B2103A37B5B2B7 PUSH1 0x99 SHL PUSH1 0x44 DUP3 ADD MSTORE PUSH1 0x64 SWAP1 REVERT JUMPDEST ISZERO PUSH3 0xB43 JUMPI JUMP JUMPDEST PUSH1 0x40 MLOAD PUSH3 0x461BCD PUSH1 0xE5 SHL DUP2 MSTORE PUSH1 0x20 PUSH1 0x4 DUP3 ADD MSTORE PUSH1 0x1A PUSH1 0x24 DUP3 ADD MSTORE PUSH26 0x4D6F6E74686C7920616D6F756E74206D757374206265203E203 PUSH1 0x34 SHL PUSH1 0x44 DUP3 ADD MSTORE PUSH1 0x64 SWAP1 REVERT JUMPDEST ISZERO PUSH3 0xB8D JUMPI JUMP JUMPDEST PUSH1 0x40 MLOAD PUSH3 0x461BCD PUSH1 0xE5 SHL DUP2 MSTORE PUSH1 0x20 PUSH1 0x4 DUP3 ADD MSTORE PUSH1 0x1C PUSH1 0x24 DUP3 ADD MSTORE PUSH28 0x53746172742064617465206D75737420626520696E20667574757265 PUSH1 0x20 SHL PUSH1 0x44 DUP3 ADD MSTORE PUSH1 0x64 SWAP1 REVERT JUMPDEST ISZERO PUSH3 0xBD9 JUMPI JUMP JUMPDEST PUSH1 0x40 MLOAD PUSH3 0x461BCD PUSH1 0xE5 SHL DUP2 MSTORE PUSH1 0x20 PUSH1 0x4 DUP3 ADD MSTORE PUSH1 0x19 PUSH1 0x24 DUP3 ADD MSTORE PUSH25 0x2A37BA30B61036B7B73A34399036BAB9BA1031329018969899 PUSH1 0x39 SHL PUSH1 0x44 DUP3 ADD MSTORE PUSH1 0x64 SWAP1 REVERT JUMPDEST ISZERO PUSH3 0xC22 JUMPI JUMP JUMPDEST PUSH1 0x40 MLOAD PUSH3 0x461BCD PUSH1 0xE5 SHL DUP2 MSTORE PUSH1 0x20 PUSH1 0x4 DUP3 ADD MSTORE PUSH1 0x19 PUSH1 0x24 DUP3 ADD MSTORE PUSH25 0x88C2F240DECC40DADEDCE8D040DAEAE6E840C4CA40625A647 PUSH1 0x3B SHL PUSH1 0x44 DUP3 ADD MSTORE PUSH1 0x64 SWAP1 REVERT JUMPDEST SWAP4 PUSH20 0xA34EDF91CC494450000EEF08E6563062B2F115A9 SWAP7 SWAP3 PUSH2 0x100 SWAP7 SWAP3 SWAP10 SWAP9 SWAP5 PUSH2 0x120 DUP8 ADD SWAP11 PUSH1 0x1 DUP1 PUSH1 0xA0 SHL SUB SWAP3 DUP4 DUP1 SWAP3 AND DUP10 MSTORE AND PUSH1 0x20 DUP9 ADD MSTORE AND PUSH1 0x40 DUP7 ADD MSTORE PUSH1 0x60 DUP6 ADD MSTORE PUSH1 0x0 PUSH1 0x80 DUP6 ADD MSTORE PUSH1 0xA0 DUP5 ADD MSTORE PUSH1 0xC0 DUP4 ADD MSTORE PUSH1 0xE0 DUP3 ADD MSTORE ADD MSTORE JUMP JUMPDEST SWAP2 SWAP3 PUSH1 0x80 SWAP4 SWAP7 SWAP6 SWAP5 SWAP2 SWAP7 PUSH1 0xA0 DUP5 ADD SWAP8 PUSH1 0x1 DUP1 PUSH1 0xA0 SHL SUB AND DUP5 MSTORE PUSH1 0x20 DUP5 ADD MSTORE PUSH1 0x40 DUP4 ADD MSTORE PUSH1 0x60 DUP3 ADD MSTORE ADD MSTORE JUMP JUMPDEST PUSH1 0x40 DUP2 ADD SWAP1 DUP2 LT PUSH1 0x1 PUSH1 0x1 PUSH1 0x40 SHL SUB DUP3 GT OR PUSH3 0x3F4 JUMPI PUSH1 0x40 MSTORE JUMP JUMPDEST PUSH1 0x1F SWAP1 SWAP2 ADD PUSH1 0x1F NOT AND DUP2 ADD SWAP1 PUSH1 0x1 PUSH1 0x1 PUSH1 0x40 SHL SUB DUP3 GT SWAP1 DUP3 LT OR PUSH3 0x3F4 JUMPI PUSH1 0x40 MSTORE JUMP JUMPDEST PUSH1 0x1 PUSH1 0x1 PUSH1 0x40 SHL SUB DUP2 GT PUSH3 0x3F4 JUMPI PUSH1 0x5 SHL PUSH1 0x20 ADD SWAP1 JUMP JUMPDEST SWAP2 SWAP1 DUP2 LT ISZERO PUSH3 0x3D2 JUMPI PUSH1 0x5 SHL ADD SWAP1 JUMP JUMPDEST CALLDATALOAD PUSH1 0x1 PUSH1 0x1 PUSH1 0xA0 SHL SUB DUP2 AND DUP2 SUB PUSH3 0x4C3 JUMPI SWAP1 JUMP JUMPDEST ISZERO PUSH3 0xD74 JUMPI JUMP JUMPDEST PUSH1 0x40 MLOAD PUSH3 0x461BCD PUSH1 0xE5 SHL DUP2 MSTORE PUSH1 0x20 PUSH1 0x4 DUP3 ADD MSTORE PUSH1 0x9 PUSH1 0x24 DUP3 ADD MSTORE PUSH9 0x2737BA1037BBB732B9 PUSH1 0xB9 SHL PUSH1 0x44 DUP3 ADD MSTORE PUSH1 0x64 SWAP1 REVERT JUMPDEST ISZERO PUSH3 0xDAD JUMPI JUMP JUMPDEST PUSH1 0x40 MLOAD PUSH3 0x461BCD PUSH1 0xE5 SHL DUP2 MSTORE PUSH1 0x20 PUSH1 0x4 DUP3 ADD MSTORE PUSH1 0xF PUSH1 0x24 DUP3 ADD MSTORE PUSH15 0x125B9D985B1A59081C185E5B595B9D PUSH1 0x8A SHL PUSH1 0x44 DUP3 ADD MSTORE PUSH1 0x64 SWAP1 REVERT JUMPDEST RETURNDATASIZE ISZERO PUSH3 0xE22 JUMPI RETURNDATASIZE SWAP1 PUSH1 0x1 PUSH1 0x1 PUSH1 0x40 SHL SUB DUP3 GT PUSH3 0x3F4 JUMPI PUSH1 0x40 MLOAD SWAP2 PUSH3 0xE16 PUSH1 0x1F DUP3 ADD PUSH1 0x1F NOT AND PUSH1 0x20 ADD DUP5 PUSH3 0xD0A JUMP JUMPDEST DUP3 MSTORE RETURNDATASIZE PUSH1 0x0 PUSH1 0x20 DUP5 ADD RETURNDATACOPY JUMP JUMPDEST PUSH1 0x60 SWAP1 JUMP JUMPDEST PUSH1 0x1 PUSH1 0x1 PUSH1 0xA0 SHL SUB DUP2 AND SWAP1 PUSH3 0xE3F DUP3 ISZERO ISZERO PUSH3 0xDA5 JUMP JUMPDEST PUSH1 0x40 MLOAD PUSH4 0x3C55663 PUSH1 0xE3 SHL PUSH1 0x20 DUP3 ADD SWAP1 DUP2 MSTORE PUSH1 0x4 DUP3 MSTORE SWAP2 SWAP1 PUSH3 0xE62 DUP2 PUSH3 0xCEE JUMP JUMPDEST PUSH1 0x0 DUP1 SWAP4 DUP2 SWAP3 MLOAD SWAP1 DUP3 DUP6 GAS CALL PUSH3 0xE78 PUSH3 0xDE4 JUMP JUMPDEST POP PUSH3 0xED2 JUMPI DUP2 SWAP1 PUSH1 0x40 MLOAD DUP3 PUSH1 0x20 DUP3 ADD SWAP2 PUSH4 0xEA8A1AF PUSH1 0xE4 SHL DUP4 MSTORE PUSH1 0x4 DUP2 MSTORE PUSH3 0xEA2 DUP2 PUSH3 0xCEE JUMP JUMPDEST MLOAD SWAP3 GAS CALL SWAP1 PUSH3 0xEB1 PUSH3 0xDE4 JUMP JUMPDEST POP PUSH1 0x40 MLOAD DUP3 ISZERO ISZERO DUP2 MSTORE PUSH1 0x0 DUP1 MLOAD PUSH1 0x20 PUSH3 0x2BD9 DUP4 CODECOPY DUP2 MLOAD SWAP2 MSTORE PUSH1 0x20 CALLER SWAP3 LOG3 SWAP1 JUMP JUMPDEST POP POP PUSH1 0x40 MLOAD PUSH1 0x1 DUP2 MSTORE PUSH1 0x0 DUP1 MLOAD PUSH1 0x20 PUSH3 0x2BD9 DUP4 CODECOPY DUP2 MLOAD SWAP2 MSTORE PUSH1 0x20 CALLER SWAP3 LOG3 PUSH1 0x1 SWAP1 JUMP INVALID PUSH1 0xA0 CALLVALUE PUSH3 0x42E JUMPI PUSH1 0x1F PUSH3 0x1CC3 CODESIZE DUP2 SWAP1 SUB SWAP2 DUP3 ADD PUSH1 0x1F NOT AND DUP4 ADD SWAP3 SWAP2 SWAP1 PUSH1 0x1 PUSH1 0x1 PUSH1 0x40 SHL SUB DUP5 GT DUP4 DUP6 LT OR PUSH3 0x433 JUMPI DUP2 PUSH2 0x120 SWAP3 DUP5 SWAP3 PUSH1 0x40 SWAP7 DUP8 MSTORE DUP4 CODECOPY DUP2 ADD SUB SLT PUSH3 0x42E JUMPI PUSH3 0x52 DUP2 PUSH3 0x449 JUMP JUMPDEST PUSH1 0x20 SWAP2 PUSH3 0x62 DUP4 DUP3 ADD PUSH3 0x449 JUMP JUMPDEST SWAP3 PUSH3 0x70 DUP6 DUP4 ADD PUSH3 0x449 JUMP JUMPDEST SWAP2 PUSH1 0x60 DUP2 ADD MLOAD SWAP3 PUSH1 0x80 DUP3 ADD MLOAD SWAP6 PUSH1 0xA0 DUP4 ADD MLOAD SWAP7 PUSH1 0xC0 DUP5 ADD MLOAD SWAP6 PUSH3 0x9D PUSH2 0x100 PUSH1 0xE0 DUP8 ADD MLOAD SWAP7 ADD PUSH3 0x449 JUMP JUMPDEST SWAP2 PUSH1 0x1 SWAP5 PUSH1 0x0 SWAP5 DUP7 DUP7 SSTORE PUSH1 0x1 DUP1 PUSH1 0xA0 SHL SUB DUP1 SWAP12 AND SWAP1 DUP2 ISZERO PUSH3 0x3FA JUMPI DUP12 AND SWAP2 DUP3 ISZERO PUSH3 0x3C6 JUMPI DUP12 AND SWAP2 DUP3 ISZERO PUSH3 0x392 JUMPI DUP5 ISZERO PUSH3 0x34E JUMPI TIMESTAMP DUP14 GT ISZERO PUSH3 0x30A JUMPI DUP8 DUP12 LT ISZERO DUP1 PUSH3 0x2FE JUMPI JUMPDEST ISZERO PUSH3 0x2BA JUMPI DUP8 DUP10 LT ISZERO DUP1 PUSH3 0x2AE JUMPI JUMPDEST ISZERO PUSH3 0x26A JUMPI DUP12 DUP7 AND ISZERO PUSH3 0x226 JUMPI PUSH1 0x1 DUP1 PUSH1 0xA0 SHL SUB NOT SWAP2 DUP3 DUP10 SLOAD AND OR DUP9 SSTORE DUP2 PUSH1 0x2 SLOAD AND OR PUSH1 0x2 SSTORE PUSH1 0x3 SLOAD AND OR PUSH1 0x3 SSTORE DUP2 PUSH1 0x4 SSTORE PUSH1 0xB3 DUP3 MUL SWAP2 DUP3 DIV PUSH1 0xB3 SUB PUSH3 0x1EB JUMPI PUSH2 0x2710 DUP1 SWAP3 DIV DUP1 PUSH1 0x6 SSTORE DUP2 PUSH1 0x5 SSTORE DUP10 DUP3 ISZERO SWAP2 DUP3 ISZERO PUSH1 0x0 EQ PUSH3 0x1FF JUMPI POP POP PUSH1 0xB3 DUP3 MUL SWAP2 DUP3 DIV PUSH1 0xB3 EQ OR ISZERO PUSH3 0x1EB JUMPI SWAP3 DUP9 SWAP3 PUSH1 0x0 DUP1 MLOAD PUSH1 0x20 PUSH3 0x1CA3 DUP4 CODECOPY DUP2 MLOAD SWAP2 MSTORE SWAP8 SWAP6 SWAP3 PUSH1 0xA0 SWAP8 SWAP6 DIV PUSH1 0x7 SSTORE JUMPDEST DUP11 PUSH1 0x8 SSTORE DUP9 PUSH1 0x9 SSTORE DUP5 PUSH1 0xA SSTORE PUSH1 0x80 MSTORE DUP1 PUSH1 0xF SSTORE PUSH1 0xC SSTORE SLOAD AND SWAP5 DUP7 PUSH1 0x2 SLOAD AND SWAP7 PUSH1 0x3 SLOAD AND SWAP8 PUSH1 0x4 SLOAD SWAP4 PUSH1 0x6 SLOAD SWAP1 DUP12 MLOAD SWAP6 DUP7 MSTORE DUP6 ADD MSTORE DUP10 DUP5 ADD MSTORE PUSH1 0x60 DUP4 ADD MSTORE PUSH1 0x80 DUP3 ADD MSTORE LOG4 MLOAD PUSH2 0x1844 SWAP1 DUP2 PUSH3 0x45F DUP3 CODECOPY PUSH1 0x80 MLOAD DUP2 DUP2 DUP2 PUSH2 0x4BB ADD MSTORE PUSH2 0xA42 ADD MSTORE RETURN JUMPDEST PUSH4 0x4E487B71 PUSH1 0xE0 SHL DUP5 MSTORE PUSH1 0x11 PUSH1 0x4 MSTORE PUSH1 0x24 DUP5 REVERT JUMPDEST SWAP1 SWAP5 SWAP2 POP PUSH1 0x0 DUP1 MLOAD PUSH1 0x20 PUSH3 0x1CA3 DUP4 CODECOPY DUP2 MLOAD SWAP2 MSTORE SWAP9 SWAP7 SWAP4 POP PUSH1 0xA0 SWAP8 SWAP6 SWAP3 POP PUSH1 0x7 SSTORE PUSH3 0x18A JUMP JUMPDEST DUP14 MLOAD PUSH3 0x461BCD PUSH1 0xE5 SHL DUP2 MSTORE PUSH1 0x4 DUP2 ADD DUP12 SWAP1 MSTORE PUSH1 0x16 PUSH1 0x24 DUP3 ADD MSTORE PUSH32 0x496E76616C69642070726F746F636F6C206F776E657200000000000000000000 PUSH1 0x44 DUP3 ADD MSTORE PUSH1 0x64 SWAP1 REVERT JUMPDEST DUP14 MLOAD PUSH3 0x461BCD PUSH1 0xE5 SHL DUP2 MSTORE PUSH1 0x4 DUP2 ADD DUP12 SWAP1 MSTORE PUSH1 0x19 PUSH1 0x24 DUP3 ADD MSTORE PUSH32 0x446179206F66206D6F6E7468206D75737420626520312D323800000000000000 PUSH1 0x44 DUP3 ADD MSTORE PUSH1 0x64 SWAP1 REVERT JUMPDEST POP PUSH1 0x1C DUP10 GT ISZERO PUSH3 0xF9 JUMP JUMPDEST DUP14 MLOAD PUSH3 0x461BCD PUSH1 0xE5 SHL DUP2 MSTORE PUSH1 0x4 DUP2 ADD DUP12 SWAP1 MSTORE PUSH1 0x19 PUSH1 0x24 DUP3 ADD MSTORE PUSH32 0x546F74616C206D6F6E746873206D75737420626520312D313200000000000000 PUSH1 0x44 DUP3 ADD MSTORE PUSH1 0x64 SWAP1 REVERT JUMPDEST POP PUSH1 0xC DUP12 GT ISZERO PUSH3 0xE8 JUMP JUMPDEST DUP14 MLOAD PUSH3 0x461BCD PUSH1 0xE5 SHL DUP2 MSTORE PUSH1 0x4 DUP2 ADD DUP12 SWAP1 MSTORE PUSH1 0x1C PUSH1 0x24 DUP3 ADD MSTORE PUSH32 0x53746172742064617465206D75737420626520696E2066757475726500000000 PUSH1 0x44 DUP3 ADD MSTORE PUSH1 0x64 SWAP1 REVERT JUMPDEST DUP14 MLOAD PUSH3 0x461BCD PUSH1 0xE5 SHL DUP2 MSTORE PUSH1 0x4 DUP2 ADD DUP12 SWAP1 MSTORE PUSH1 0x1A PUSH1 0x24 DUP3 ADD MSTORE PUSH32 0x4D6F6E74686C7920616D6F756E74206D757374206265203E2030000000000000 PUSH1 0x44 DUP3 ADD MSTORE PUSH1 0x64 SWAP1 REVERT JUMPDEST DUP14 MLOAD PUSH3 0x461BCD PUSH1 0xE5 SHL DUP2 MSTORE PUSH1 0x4 DUP2 ADD DUP12 SWAP1 MSTORE PUSH1 0xD PUSH1 0x24 DUP3 ADD MSTORE PUSH13 0x24B73B30B634B2103A37B5B2B7 PUSH1 0x99 SHL PUSH1 0x44 DUP3 ADD MSTORE PUSH1 0x64 SWAP1 REVERT JUMPDEST DUP14 MLOAD PUSH3 0x461BCD PUSH1 0xE5 SHL DUP2 MSTORE PUSH1 0x4 DUP2 ADD DUP12 SWAP1 MSTORE PUSH1 0xD PUSH1 0x24 DUP3 ADD MSTORE PUSH13 0x496E76616C6964207061796565 PUSH1 0x98 SHL PUSH1 0x44 DUP3 ADD MSTORE PUSH1 0x64 SWAP1 REVERT JUMPDEST DUP14 MLOAD PUSH3 0x461BCD PUSH1 0xE5 SHL DUP2 MSTORE PUSH1 0x4 DUP2 ADD DUP12 SWAP1 MSTORE PUSH1 0xD PUSH1 0x24 DUP3 ADD MSTORE PUSH13 0x24B73B30B634B2103830BCB2B9 PUSH1 0x99 SHL PUSH1 0x44 DUP3 ADD MSTORE PUSH1 0x64 SWAP1 REVERT JUMPDEST PUSH1 0x0 DUP1 REVERT JUMPDEST PUSH4 0x4E487B71 PUSH1 0xE0 SHL PUSH1 0x0 MSTORE PUSH1 0x41 PUSH1 0x4 MSTORE PUSH1 0x24 PUSH1 0x0 REVERT JUMPDEST MLOAD SWAP1 PUSH1 0x1 PUSH1 0x1 PUSH1 0xA0 SHL SUB DUP3 AND DUP3 SUB PUSH3 0x42E JUMPI JUMP INVALID PUSH1 0x80 PUSH1 0x40 DUP2 DUP2 MSTORE PUSH1 0x4 SWAP2 DUP3 CALLDATASIZE LT ISZERO PUSH2 0x16 JUMPI PUSH1 0x0 DUP1 REVERT JUMPDEST PUSH1 0x0 SWAP3 DUP4 CALLDATALOAD PUSH1 0xE0 SHR SWAP2 DUP3 PUSH4 0x3F7A68C EQ PUSH2 0xACA JUMPI POP DUP2 PUSH4 0xB97BC86 EQ PUSH2 0xAAB JUMPI DUP2 PUSH4 0xD3E50FC EQ PUSH2 0xA2D JUMPI DUP2 PUSH4 0x10786DEB EQ PUSH2 0xA0F JUMPI DUP2 PUSH4 0x123119CD EQ PUSH2 0x9E6 JUMPI DUP2 PUSH4 0x247B76F1 EQ PUSH2 0x9C7 JUMPI DUP2 PUSH4 0x26446C92 EQ PUSH2 0x9A8 JUMPI DUP2 PUSH4 0x28603738 EQ PUSH2 0x989 JUMPI DUP2 PUSH4 0x3974EB80 EQ PUSH2 0x807 JUMPI DUP2 PUSH4 0x3FB0D6FF EQ PUSH2 0x7DA JUMPI DUP2 PUSH4 0x47D0CDCC EQ PUSH2 0x7B2 JUMPI DUP2 PUSH4 0x4A85ED20 EQ PUSH2 0x746 JUMPI DUP2 PUSH4 0x4E69D560 EQ PUSH2 0x6F8 JUMPI DUP2 PUSH4 0x6588439C EQ PUSH2 0x6DA JUMPI DUP2 PUSH4 0x767EDB63 EQ PUSH2 0x6AB JUMPI DUP2 PUSH4 0x8D47B620 EQ PUSH2 0x5BA JUMPI DUP2 PUSH4 0x9A82A09A EQ PUSH2 0x596 JUMPI DUP2 PUSH4 0x9D76EA58 EQ PUSH2 0x56D JUMPI DUP2 PUSH4 0xA525AD3C EQ PUSH2 0x551 JUMPI DUP2 PUSH4 0xAE90B213 EQ PUSH2 0x528 JUMPI DUP2 PUSH4 0xB2077152 EQ PUSH2 0x509 JUMPI DUP2 PUSH4 0xBFCB3CB7 EQ PUSH2 0x4EA JUMPI DUP2 PUSH4 0xC1D6BA69 EQ PUSH2 0x4A6 JUMPI DUP2 PUSH4 0xC3CD31C7 EQ PUSH2 0x487 JUMPI DUP2 PUSH4 0xC92AE959 EQ PUSH2 0x33F JUMPI DUP2 PUSH4 0xCFA498A3 EQ PUSH2 0x322 JUMPI DUP2 PUSH4 0xE2025B20 EQ PUSH2 0x2FE JUMPI DUP2 PUSH4 0xE7B0F666 EQ PUSH2 0x2DF JUMPI DUP2 PUSH4 0xEA8A1AF0 EQ PUSH2 0x190 JUMPI POP PUSH4 0xEED85390 EQ PUSH2 0x16F JUMPI PUSH1 0x0 DUP1 REVERT JUMPDEST CALLVALUE PUSH2 0x18C JUMPI DUP2 PUSH1 0x3 NOT CALLDATASIZE ADD SLT PUSH2 0x18C JUMPI PUSH1 0x20 SWAP1 PUSH1 0xB SLOAD SWAP1 MLOAD SWAP1 DUP2 MSTORE RETURN JUMPDEST POP DUP1 REVERT JUMPDEST SWAP2 SWAP1 POP CALLVALUE PUSH2 0x2DB JUMPI DUP3 PUSH1 0x3 NOT CALLDATASIZE ADD SLT PUSH2 0x2DB JUMPI PUSH2 0x1AB PUSH2 0x1621 JUMP JUMPDEST PUSH1 0x1 SLOAD PUSH1 0x1 PUSH1 0x1 PUSH1 0xA0 SHL SUB AND SWAP2 CALLER DUP4 SWAP1 SUB PUSH2 0x2A1 JUMPI PUSH1 0xD SLOAD PUSH1 0xFF DUP2 AND PUSH2 0x26A JUMPI PUSH1 0xF SLOAD PUSH1 0x9 SLOAD SWAP1 DUP2 DUP2 LT ISZERO PUSH2 0x261 JUMPI PUSH2 0x1E3 SWAP2 PUSH2 0xC6B JUMP JUMPDEST SWAP2 JUMPDEST DUP3 ISZERO PUSH2 0x21E JUMPI POP SWAP1 PUSH1 0x1 PUSH1 0x0 DUP1 MLOAD PUSH1 0x20 PUSH2 0x1818 DUP4 CODECOPY DUP2 MLOAD SWAP2 MSTORE SWAP4 SWAP3 PUSH1 0xFF NOT AND OR PUSH1 0xD SSTORE PUSH1 0xB SLOAD SWAP1 DUP3 MLOAD SWAP2 DUP3 MSTORE PUSH1 0x20 DUP3 ADD MSTORE LOG2 PUSH1 0x1 DUP2 SSTORE DUP1 RETURN JUMPDEST PUSH1 0x64 SWAP1 PUSH1 0x20 DUP6 MLOAD SWAP2 PUSH3 0x461BCD PUSH1 0xE5 SHL DUP4 MSTORE DUP3 ADD MSTORE PUSH1 0x1F PUSH1 0x24 DUP3 ADD MSTORE PUSH32 0x4E6F2072656D61696E696E67207061796D656E747320746F2063616E63656C00 PUSH1 0x44 DUP3 ADD MSTORE REVERT JUMPDEST POP POP DUP5 SWAP2 PUSH2 0x1E5 JUMP JUMPDEST POP PUSH1 0x20 PUSH1 0x64 SWAP3 MLOAD SWAP2 PUSH3 0x461BCD PUSH1 0xE5 SHL DUP4 MSTORE DUP3 ADD MSTORE PUSH1 0x11 PUSH1 0x24 DUP3 ADD MSTORE PUSH17 0x105B1C9958591E4818D85B98D95B1B1959 PUSH1 0x7A SHL PUSH1 0x44 DUP3 ADD MSTORE REVERT JUMPDEST PUSH1 0x20 PUSH1 0x64 SWAP3 MLOAD SWAP2 PUSH3 0x461BCD PUSH1 0xE5 SHL DUP4 MSTORE DUP3 ADD MSTORE PUSH1 0x15 PUSH1 0x24 DUP3 ADD MSTORE PUSH21 0x13DB9B1E481C185E595C8818D85B8818D85B98D95B PUSH1 0x5A SHL PUSH1 0x44 DUP3 ADD MSTORE REVERT JUMPDEST DUP3 DUP1 REVERT JUMPDEST POP POP CALLVALUE PUSH2 0x18C JUMPI DUP2 PUSH1 0x3 NOT CALLDATASIZE ADD SLT PUSH2 0x18C JUMPI PUSH1 0x20 SWAP1 PUSH1 0xC SLOAD SWAP1 MLOAD SWAP1 DUP2 MSTORE RETURN JUMPDEST POP POP CALLVALUE PUSH2 0x18C JUMPI DUP2 PUSH1 0x3 NOT CALLDATASIZE ADD SLT PUSH2 0x18C JUMPI PUSH1 0x20 SWAP1 PUSH2 0x31B PUSH2 0x1644 JUMP JUMPDEST SWAP1 MLOAD SWAP1 DUP2 MSTORE RETURN JUMPDEST POP POP CALLVALUE PUSH2 0x18C JUMPI DUP2 PUSH1 0x3 NOT CALLDATASIZE ADD SLT PUSH2 0x18C JUMPI PUSH1 0x20 SWAP1 MLOAD PUSH2 0x2710 DUP2 MSTORE RETURN JUMPDEST SWAP1 POP DUP3 CALLVALUE PUSH2 0x484 JUMPI DUP1 PUSH1 0x3 NOT CALLDATASIZE ADD SLT PUSH2 0x484 JUMPI DUP1 SWAP3 DUP2 SWAP1 PUSH1 0xFF PUSH1 0xD SLOAD AND DUP1 ISZERO SWAP4 DUP5 DUP1 SWAP6 PUSH2 0x477 JUMPI JUMPDEST PUSH2 0x402 JUMPI JUMPDEST POP PUSH2 0x1A0 SWAP6 SWAP2 DUP5 SWAP2 SWAP5 PUSH2 0x3F3 JUMPI JUMPDEST PUSH1 0x1 DUP1 PUSH1 0xA0 SHL SUB SWAP1 DUP2 PUSH1 0x1 SLOAD AND SWAP7 DUP3 PUSH1 0x2 SLOAD AND SWAP3 PUSH1 0x3 SLOAD AND SWAP1 SLOAD PUSH1 0x6 SLOAD PUSH1 0x8 SLOAD SWAP2 PUSH1 0x9 SLOAD SWAP4 PUSH1 0xA SLOAD SWAP6 PUSH1 0xB SLOAD SWAP8 PUSH1 0x20 DUP3 MLOAD SWAP15 DUP16 SWAP1 DUP2 MSTORE ADD MSTORE DUP13 ADD MSTORE PUSH1 0x60 DUP12 ADD MSTORE PUSH1 0x80 DUP11 ADD MSTORE PUSH1 0xA0 DUP10 ADD MSTORE PUSH1 0xC0 DUP9 ADD MSTORE PUSH1 0xE0 DUP8 ADD MSTORE PUSH2 0x100 DUP7 ADD MSTORE ISZERO PUSH2 0x120 DUP6 ADD MSTORE PUSH2 0x140 DUP5 ADD MSTORE ISZERO ISZERO PUSH2 0x160 DUP4 ADD MSTORE ISZERO ISZERO PUSH2 0x180 DUP3 ADD MSTORE RETURN JUMPDEST PUSH1 0xF SLOAD PUSH1 0x9 SLOAD GT ISZERO SWAP5 POP PUSH2 0x37A JUMP JUMPDEST SWAP6 POP SWAP2 POP PUSH1 0x8 SLOAD PUSH1 0xF SLOAD SWAP1 PUSH3 0x278D00 SWAP1 DUP2 DUP4 MUL SWAP2 DUP4 DUP4 DIV EQ DUP4 ISZERO OR ISZERO PUSH2 0x464 JUMPI SWAP2 DUP4 PUSH2 0x434 PUSH2 0x1A0 SWAP10 SWAP6 SWAP4 DUP9 SWAP6 PUSH2 0xBEF JUMP JUMPDEST SWAP5 DUP6 TIMESTAMP LT ISZERO SWAP3 DUP4 PUSH2 0x44D JUMPI JUMPDEST POP POP POP SWAP4 SWAP2 POP SWAP2 SWAP6 PUSH2 0x36C JUMP JUMPDEST PUSH1 0xFF SWAP4 POP DUP2 MSTORE PUSH1 0xE PUSH1 0x20 MSTORE KECCAK256 SLOAD AND ISZERO DUP2 DUP10 DUP1 PUSH2 0x440 JUMP JUMPDEST PUSH4 0x4E487B71 PUSH1 0xE0 SHL DUP9 MSTORE PUSH1 0x11 DUP8 MSTORE PUSH1 0x24 DUP9 REVERT JUMPDEST POP PUSH1 0xF SLOAD PUSH1 0x9 SLOAD GT PUSH2 0x367 JUMP JUMPDEST DUP1 REVERT JUMPDEST POP POP CALLVALUE PUSH2 0x18C JUMPI DUP2 PUSH1 0x3 NOT CALLDATASIZE ADD SLT PUSH2 0x18C JUMPI PUSH1 0x20 SWAP1 PUSH1 0x9 SLOAD SWAP1 MLOAD SWAP1 DUP2 MSTORE RETURN JUMPDEST POP POP CALLVALUE PUSH2 0x18C JUMPI DUP2 PUSH1 0x3 NOT CALLDATASIZE ADD SLT PUSH2 0x18C JUMPI MLOAD PUSH32 0x0 PUSH1 0x1 PUSH1 0x1 PUSH1 0xA0 SHL SUB AND DUP2 MSTORE PUSH1 0x20 SWAP1 RETURN JUMPDEST POP POP CALLVALUE PUSH2 0x18C JUMPI DUP2 PUSH1 0x3 NOT CALLDATASIZE ADD SLT PUSH2 0x18C JUMPI PUSH1 0x20 SWAP1 PUSH1 0x7 SLOAD SWAP1 MLOAD SWAP1 DUP2 MSTORE RETURN JUMPDEST POP POP CALLVALUE PUSH2 0x18C JUMPI DUP2 PUSH1 0x3 NOT CALLDATASIZE ADD SLT PUSH2 0x18C JUMPI PUSH1 0x20 SWAP1 PUSH1 0x6 SLOAD SWAP1 MLOAD SWAP1 DUP2 MSTORE RETURN JUMPDEST POP POP CALLVALUE PUSH2 0x18C JUMPI DUP2 PUSH1 0x3 NOT CALLDATASIZE ADD SLT PUSH2 0x18C JUMPI PUSH1 0x2 SLOAD SWAP1 MLOAD PUSH1 0x1 PUSH1 0x1 PUSH1 0xA0 SHL SUB SWAP1 SWAP2 AND DUP2 MSTORE PUSH1 0x20 SWAP1 RETURN JUMPDEST POP POP CALLVALUE PUSH2 0x18C JUMPI DUP2 PUSH1 0x3 NOT CALLDATASIZE ADD SLT PUSH2 0x18C JUMPI PUSH1 0x20 SWAP1 MLOAD PUSH1 0xB3 DUP2 MSTORE RETURN JUMPDEST POP POP CALLVALUE PUSH2 0x18C JUMPI DUP2 PUSH1 0x3 NOT CALLDATASIZE ADD SLT PUSH2 0x18C JUMPI PUSH1 0x3 SLOAD SWAP1 MLOAD PUSH1 0x1 PUSH1 0x1 PUSH1 0xA0 SHL SUB SWAP1 SWAP2 AND DUP2 MSTORE PUSH1 0x20 SWAP1 RETURN JUMPDEST POP POP CALLVALUE PUSH2 0x18C JUMPI DUP2 PUSH1 0x3 NOT CALLDATASIZE ADD SLT PUSH2 0x18C JUMPI PUSH1 0x20 SWAP1 PUSH1 0xFF PUSH1 0xD SLOAD AND SWAP1 MLOAD SWAP1 ISZERO ISZERO DUP2 MSTORE RETURN JUMPDEST SWAP2 SWAP1 POP CALLVALUE PUSH2 0x2DB JUMPI DUP3 PUSH1 0x3 NOT CALLDATASIZE ADD SLT PUSH2 0x2DB JUMPI PUSH1 0xF SLOAD PUSH1 0x9 SLOAD PUSH2 0x62F SWAP3 SWAP2 DUP2 DUP2 LT ISZERO PUSH2 0x69E JUMPI PUSH2 0x5EF PUSH2 0x602 SWAP2 PUSH1 0x20 SWAP4 PUSH2 0xC6B JUMP JUMPDEST PUSH2 0x5FD DUP7 SLOAD PUSH1 0x6 SLOAD SWAP1 PUSH2 0xBEF JUMP JUMPDEST PUSH2 0xBC6 JUMP JUMPDEST SWAP4 PUSH1 0x1 DUP1 PUSH1 0xA0 SHL SUB DUP1 PUSH1 0x3 SLOAD AND SWAP1 PUSH1 0x1 SLOAD AND DUP5 MLOAD DUP1 SWAP7 DUP2 SWAP5 DUP3 SWAP4 PUSH4 0x6EB1769F PUSH1 0xE1 SHL DUP5 MSTORE ADDRESS SWAP2 DUP5 ADD PUSH2 0xC87 JUMP JUMPDEST SUB SWAP2 GAS STATICCALL SWAP2 DUP3 ISZERO PUSH2 0x694 JUMPI DUP5 SWAP3 PUSH2 0x659 JUMPI JUMPDEST POP PUSH1 0x60 SWAP4 POP DUP1 MLOAD SWAP3 DUP1 DUP4 LT ISZERO DUP5 MSTORE PUSH1 0x20 DUP5 ADD MSTORE DUP3 ADD MSTORE RETURN JUMPDEST SWAP1 SWAP2 POP PUSH1 0x20 DUP2 RETURNDATASIZE DUP3 GT PUSH2 0x68C JUMPI JUMPDEST DUP2 PUSH2 0x674 PUSH1 0x20 SWAP4 DUP4 PUSH2 0xC48 JUMP JUMPDEST DUP2 ADD SUB SLT PUSH2 0x688 JUMPI PUSH1 0x60 SWAP4 POP MLOAD SWAP1 CODESIZE PUSH2 0x641 JUMP JUMPDEST DUP4 DUP1 REVERT JUMPDEST RETURNDATASIZE SWAP2 POP PUSH2 0x667 JUMP JUMPDEST DUP2 MLOAD RETURNDATASIZE DUP7 DUP3 RETURNDATACOPY RETURNDATASIZE SWAP1 REVERT JUMPDEST POP POP PUSH1 0x20 PUSH2 0x602 DUP6 PUSH2 0x5EF JUMP JUMPDEST POP POP CALLVALUE PUSH2 0x18C JUMPI DUP2 PUSH1 0x3 NOT CALLDATASIZE ADD SLT PUSH2 0x18C JUMPI PUSH1 0x20 SWAP1 MLOAD PUSH20 0xA34EDF91CC494450000EEF08E6563062B2F115A9 DUP2 MSTORE RETURN JUMPDEST SWAP1 POP CALLVALUE PUSH2 0x2DB JUMPI DUP3 PUSH1 0x3 NOT CALLDATASIZE ADD SLT PUSH2 0x2DB JUMPI PUSH1 0x20 SWAP3 POP SLOAD SWAP1 MLOAD SWAP1 DUP2 MSTORE RETURN JUMPDEST POP POP CALLVALUE PUSH2 0x18C JUMPI DUP2 PUSH1 0x3 NOT CALLDATASIZE ADD SLT PUSH2 0x18C JUMPI PUSH2 0x72F SWAP1 PUSH2 0x716 PUSH2 0x169B JUMP JUMPDEST SWAP3 SWAP4 SWAP5 DUP1 SWAP3 SWAP2 SWAP3 MLOAD SWAP7 DUP8 SWAP7 PUSH1 0xA0 DUP9 MSTORE PUSH1 0xA0 DUP9 ADD SWAP1 PUSH2 0xBA1 JUMP JUMPDEST SWAP5 PUSH1 0x20 DUP8 ADD MSTORE DUP6 ADD MSTORE PUSH1 0x60 DUP5 ADD MSTORE PUSH1 0x80 DUP4 ADD MSTORE SUB SWAP1 RETURN JUMPDEST DUP4 SWAP2 POP CALLVALUE PUSH2 0x18C JUMPI DUP3 PUSH1 0x3 NOT CALLDATASIZE ADD SLT PUSH2 0x18C JUMPI DUP1 CALLDATALOAD SWAP2 PUSH1 0xB3 DUP4 MUL SWAP2 DUP4 DUP4 DIV PUSH1 0xB3 EQ DUP5 ISZERO OR ISZERO PUSH2 0x79F JUMPI POP POP PUSH2 0x783 PUSH2 0x2710 PUSH2 0x79B SWAP3 DIV DUP1 SWAP4 PUSH2 0xBEF JUMP JUMPDEST SWAP3 PUSH2 0x790 PUSH1 0x24 CALLDATALOAD DUP6 PUSH2 0xBC6 JUMP JUMPDEST SWAP1 MLOAD SWAP4 DUP5 SWAP4 DUP5 PUSH2 0xB68 JUMP JUMPDEST SUB SWAP1 RETURN JUMPDEST PUSH4 0x4E487B71 PUSH1 0xE0 SHL DUP3 MSTORE PUSH1 0x11 SWAP1 MSTORE PUSH1 0x24 SWAP1 REVERT JUMPDEST DUP4 CALLVALUE PUSH2 0x484 JUMPI DUP1 PUSH1 0x3 NOT CALLDATASIZE ADD SLT PUSH2 0x484 JUMPI PUSH2 0x7CB PUSH2 0x1621 JUMP JUMPDEST PUSH2 0x7D3 PUSH2 0xD12 JUMP JUMPDEST PUSH1 0x1 DUP2 SSTORE DUP1 RETURN JUMPDEST SWAP1 POP CALLVALUE PUSH2 0x2DB JUMPI PUSH1 0x20 CALLDATASIZE PUSH1 0x3 NOT ADD SLT PUSH2 0x2DB JUMPI DUP2 PUSH1 0x20 SWAP4 PUSH1 0xFF SWAP3 CALLDATALOAD DUP2 MSTORE PUSH1 0xE DUP6 MSTORE KECCAK256 SLOAD AND SWAP1 MLOAD SWAP1 ISZERO ISZERO DUP2 MSTORE RETURN JUMPDEST SWAP1 POP CALLVALUE PUSH2 0x2DB JUMPI PUSH1 0x80 CALLDATASIZE PUSH1 0x3 NOT ADD SLT PUSH2 0x2DB JUMPI PUSH1 0x1 PUSH1 0x1 PUSH1 0xA0 SHL SUB SWAP2 DUP2 CALLDATALOAD DUP4 DUP2 AND SWAP2 SWAP1 DUP3 SWAP1 SUB PUSH2 0x985 JUMPI PUSH1 0x24 SWAP4 DUP5 CALLDATALOAD DUP2 DUP2 AND DUP1 SWAP2 SUB PUSH2 0x981 JUMPI PUSH1 0x64 SWAP4 DUP5 CALLDATALOAD SWAP3 ADDRESS CALLER SUB PUSH2 0x954 JUMPI PUSH1 0x3 SLOAD AND SWAP5 PUSH1 0x20 DUP10 DUP7 MLOAD DUP3 DUP2 ADD SWAP1 PUSH4 0x23B872DD PUSH1 0xE0 SHL SWAP7 DUP8 DUP4 MSTORE DUP7 DUP14 DUP4 ADD MSTORE PUSH1 0x44 DUP3 ADD MSTORE PUSH1 0x44 CALLDATALOAD DUP6 DUP3 ADD MSTORE DUP5 DUP2 MSTORE PUSH2 0x884 DUP2 PUSH2 0xBFC JUMP JUMPDEST MLOAD SWAP1 DUP3 DUP11 GAS CALL ISZERO PUSH2 0x94A JUMPI DUP9 MLOAD RETURNDATASIZE PUSH2 0x941 JUMPI POP DUP6 EXTCODESIZE ISZERO JUMPDEST PUSH2 0x92C JUMPI SWAP1 DUP9 SWAP3 SWAP2 DUP5 PUSH2 0x8AC JUMPI DUP4 DUP1 RETURN JUMPDEST PUSH1 0x20 SWAP5 DUP7 MLOAD SWAP3 DUP7 DUP5 ADD SWAP5 DUP6 MSTORE DUP11 DUP5 ADD MSTORE PUSH20 0xA34EDF91CC494450000EEF08E6563062B2F115A9 PUSH1 0x44 DUP5 ADD MSTORE DUP2 DUP4 ADD MSTORE DUP2 MSTORE PUSH2 0x8E5 DUP2 PUSH2 0xBFC JUMP JUMPDEST MLOAD SWAP1 DUP3 DUP7 GAS CALL ISZERO PUSH2 0x923 JUMPI DUP5 MLOAD RETURNDATASIZE PUSH2 0x91A JUMPI POP DUP2 EXTCODESIZE ISZERO JUMPDEST PUSH2 0x909 JUMPI DUP1 DUP6 DUP2 DUP1 DUP1 DUP4 DUP1 RETURN JUMPDEST MLOAD PUSH4 0x5274AFE7 PUSH1 0xE0 SHL DUP2 MSTORE SWAP2 DUP3 ADD MSTORE REVERT JUMPDEST PUSH1 0x1 EQ ISZERO PUSH2 0x8FC JUMP JUMPDEST MLOAD RETURNDATASIZE DUP6 DUP3 RETURNDATACOPY RETURNDATASIZE SWAP1 REVERT JUMPDEST POP POP POP POP MLOAD SWAP2 PUSH4 0x5274AFE7 PUSH1 0xE0 SHL DUP4 MSTORE DUP3 ADD MSTORE REVERT JUMPDEST PUSH1 0x1 EQ ISZERO PUSH2 0x89B JUMP JUMPDEST DUP5 MLOAD RETURNDATASIZE DUP11 DUP3 RETURNDATACOPY RETURNDATASIZE SWAP1 REVERT JUMPDEST DUP5 MLOAD PUSH3 0x461BCD PUSH1 0xE5 SHL DUP2 MSTORE PUSH1 0x20 DUP2 DUP10 ADD MSTORE PUSH1 0x9 DUP2 DUP11 ADD MSTORE PUSH9 0x27B7363C9039B2B633 PUSH1 0xB9 SHL PUSH1 0x44 DUP3 ADD MSTORE DUP7 SWAP1 REVERT JUMPDEST DUP7 DUP1 REVERT JUMPDEST DUP5 DUP1 REVERT JUMPDEST POP POP CALLVALUE PUSH2 0x18C JUMPI DUP2 PUSH1 0x3 NOT CALLDATASIZE ADD SLT PUSH2 0x18C JUMPI PUSH1 0x20 SWAP1 PUSH1 0xA SLOAD SWAP1 MLOAD SWAP1 DUP2 MSTORE RETURN JUMPDEST POP POP CALLVALUE PUSH2 0x18C JUMPI DUP2 PUSH1 0x3 NOT CALLDATASIZE ADD SLT PUSH2 0x18C JUMPI PUSH1 0x20 SWAP1 PUSH1 0x5 SLOAD SWAP1 MLOAD SWAP1 DUP2 MSTORE RETURN JUMPDEST POP POP CALLVALUE PUSH2 0x18C JUMPI DUP2 PUSH1 0x3 NOT CALLDATASIZE ADD SLT PUSH2 0x18C JUMPI PUSH1 0x20 SWAP1 PUSH1 0xF SLOAD SWAP1 MLOAD SWAP1 DUP2 MSTORE RETURN JUMPDEST POP POP CALLVALUE PUSH2 0x18C JUMPI DUP2 PUSH1 0x3 NOT CALLDATASIZE ADD SLT PUSH2 0x18C JUMPI PUSH1 0x1 SLOAD SWAP1 MLOAD PUSH1 0x1 PUSH1 0x1 PUSH1 0xA0 SHL SUB SWAP1 SWAP2 AND DUP2 MSTORE PUSH1 0x20 SWAP1 RETURN JUMPDEST POP POP CALLVALUE PUSH2 0x18C JUMPI DUP2 PUSH1 0x3 NOT CALLDATASIZE ADD SLT PUSH2 0x18C JUMPI PUSH1 0x20 SWAP1 MLOAD PUSH3 0x278D00 DUP2 MSTORE RETURN JUMPDEST SWAP2 SWAP1 POP CALLVALUE PUSH2 0x2DB JUMPI DUP3 PUSH1 0x3 NOT CALLDATASIZE ADD SLT PUSH2 0x2DB JUMPI PUSH32 0x0 PUSH1 0x1 PUSH1 0x1 PUSH1 0xA0 SHL SUB AND CALLER SUB PUSH2 0xA79 JUMPI DUP3 PUSH2 0x7CB PUSH2 0x1621 JUMP JUMPDEST SWAP1 PUSH1 0x20 PUSH1 0x64 SWAP3 MLOAD SWAP2 PUSH3 0x461BCD PUSH1 0xE5 SHL DUP4 MSTORE DUP3 ADD MSTORE PUSH1 0xC PUSH1 0x24 DUP3 ADD MSTORE PUSH12 0x139BDD081C1C9BDD1BD8DBDB PUSH1 0xA2 SHL PUSH1 0x44 DUP3 ADD MSTORE REVERT JUMPDEST POP POP CALLVALUE PUSH2 0x18C JUMPI DUP2 PUSH1 0x3 NOT CALLDATASIZE ADD SLT PUSH2 0x18C JUMPI PUSH1 0x20 SWAP1 PUSH1 0x8 SLOAD SWAP1 MLOAD SWAP1 DUP2 MSTORE RETURN JUMPDEST SWAP3 SWAP2 POP CALLVALUE PUSH2 0x688 JUMPI DUP4 PUSH1 0x3 NOT CALLDATASIZE ADD SLT PUSH2 0x688 JUMPI DUP3 PUSH1 0x20 SWAP2 DUP2 DUP1 PUSH2 0xB0B PUSH1 0x1 DUP1 PUSH1 0xA0 SHL SUB SWAP4 DUP5 PUSH1 0x3 SLOAD AND SWAP5 PUSH1 0x1 SLOAD AND PUSH4 0x6EB1769F PUSH1 0xE1 SHL DUP5 MSTORE ADDRESS SWAP2 DUP5 ADD PUSH2 0xC87 JUMP JUMPDEST SUB SWAP2 GAS STATICCALL SWAP2 DUP3 ISZERO PUSH2 0xB5E JUMPI DUP4 SWAP3 PUSH2 0xB27 JUMPI JUMPDEST PUSH1 0x20 DUP4 DUP4 MLOAD SWAP1 DUP2 MSTORE RETURN JUMPDEST SWAP1 SWAP2 POP PUSH1 0x20 DUP2 RETURNDATASIZE DUP3 GT PUSH2 0xB56 JUMPI JUMPDEST DUP2 PUSH2 0xB42 PUSH1 0x20 SWAP4 DUP4 PUSH2 0xC48 JUMP JUMPDEST DUP2 ADD SUB SLT PUSH2 0x2DB JUMPI PUSH1 0x20 SWAP3 POP MLOAD SWAP1 CODESIZE PUSH2 0xB1D JUMP JUMPDEST RETURNDATASIZE SWAP2 POP PUSH2 0xB35 JUMP JUMPDEST DUP2 MLOAD RETURNDATASIZE DUP6 DUP3 RETURNDATACOPY RETURNDATASIZE SWAP1 REVERT JUMPDEST PUSH1 0x40 SWAP2 SWAP5 SWAP4 SWAP3 PUSH1 0x60 DUP3 ADD SWAP6 DUP3 MSTORE PUSH1 0x20 DUP3 ADD MSTORE ADD MSTORE JUMP JUMPDEST PUSH1 0x0 JUMPDEST DUP4 DUP2 LT PUSH2 0xB91 JUMPI POP POP PUSH1 0x0 SWAP2 ADD MSTORE JUMP JUMPDEST DUP2 DUP2 ADD MLOAD DUP4 DUP3 ADD MSTORE PUSH1 0x20 ADD PUSH2 0xB81 JUMP JUMPDEST SWAP1 PUSH1 0x20 SWAP2 PUSH2 0xBBA DUP2 MLOAD DUP1 SWAP3 DUP2 DUP6 MSTORE DUP6 DUP1 DUP7 ADD SWAP2 ADD PUSH2 0xB7E JUMP JUMPDEST PUSH1 0x1F ADD PUSH1 0x1F NOT AND ADD ADD SWAP1 JUMP JUMPDEST DUP2 DUP2 MUL SWAP3 SWAP2 DUP2 ISZERO SWAP2 DUP5 DIV EQ OR ISZERO PUSH2 0xBD9 JUMPI JUMP JUMPDEST PUSH4 0x4E487B71 PUSH1 0xE0 SHL PUSH1 0x0 MSTORE PUSH1 0x11 PUSH1 0x4 MSTORE PUSH1 0x24 PUSH1 0x0 REVERT JUMPDEST SWAP2 SWAP1 DUP3 ADD DUP1 SWAP3 GT PUSH2 0xBD9 JUMPI JUMP JUMPDEST PUSH1 0xA0 DUP2 ADD SWAP1 DUP2 LT PUSH1 0x1 PUSH1 0x1 PUSH1 0x40 SHL SUB DUP3 GT OR PUSH2 0xC17 JUMPI PUSH1 0x40 MSTORE JUMP JUMPDEST PUSH4 0x4E487B71 PUSH1 0xE0 SHL PUSH1 0x0 MSTORE PUSH1 0x41 PUSH1 0x4 MSTORE PUSH1 0x24 PUSH1 0x0 REVERT JUMPDEST PUSH1 0x40 DUP2 ADD SWAP1 DUP2 LT PUSH1 0x1 PUSH1 0x1 PUSH1 0x40 SHL SUB DUP3 GT OR PUSH2 0xC17 JUMPI PUSH1 0x40 MSTORE JUMP JUMPDEST PUSH1 0x1F SWAP1 SWAP2 ADD PUSH1 0x1F NOT AND DUP2 ADD SWAP1 PUSH1 0x1 PUSH1 0x1 PUSH1 0x40 SHL SUB DUP3 GT SWAP1 DUP3 LT OR PUSH2 0xC17 JUMPI PUSH1 0x40 MSTORE JUMP JUMPDEST SWAP2 SWAP1 DUP3 SUB SWAP2 DUP3 GT PUSH2 0xBD9 JUMPI JUMP JUMPDEST PUSH1 0x0 NOT DUP2 EQ PUSH2 0xBD9 JUMPI PUSH1 0x1 ADD SWAP1 JUMP JUMPDEST PUSH1 0x1 PUSH1 0x1 PUSH1 0xA0 SHL SUB SWAP2 DUP3 AND DUP2 MSTORE SWAP2 AND PUSH1 0x20 DUP3 ADD MSTORE PUSH1 0x40 ADD SWAP1 JUMP JUMPDEST PUSH1 0x0 PUSH1 0x44 RETURNDATASIZE LT PUSH2 0xCFE JUMPI PUSH1 0x40 MLOAD PUSH1 0x3 NOT SWAP2 RETURNDATASIZE DUP4 ADD PUSH1 0x4 DUP4 RETURNDATACOPY DUP2 MLOAD PUSH1 0x1 PUSH1 0x1 PUSH1 0x40 SHL SUB SWAP2 DUP3 DUP3 GT RETURNDATASIZE PUSH1 0x24 DUP5 ADD GT OR PUSH2 0xD01 JUMPI DUP2 DUP5 ADD SWAP5 DUP6 MLOAD SWAP4 DUP5 GT PUSH2 0xD09 JUMPI RETURNDATASIZE DUP6 ADD ADD PUSH1 0x20 DUP5 DUP8 ADD ADD GT PUSH2 0xD01 JUMPI POP PUSH2 0xCFE SWAP3 SWAP2 ADD PUSH1 0x20 ADD SWAP1 PUSH2 0xC48 JUMP JUMPDEST SWAP1 JUMP JUMPDEST SWAP5 SWAP4 POP POP POP POP JUMP JUMPDEST POP SWAP5 SWAP4 POP POP POP POP JUMP JUMPDEST PUSH1 0xD SLOAD PUSH1 0xFF PUSH1 0x0 SWAP2 AND PUSH2 0x15E8 JUMPI PUSH1 0x8 SLOAD DUP1 TIMESTAMP LT PUSH2 0x15A9 JUMPI PUSH1 0xF SLOAD SWAP1 PUSH1 0x9 SLOAD DUP3 LT ISZERO PUSH2 0x1564 JUMPI DUP2 DUP4 MSTORE PUSH1 0xE PUSH1 0x20 MSTORE PUSH1 0xFF PUSH1 0x40 DUP5 KECCAK256 SLOAD AND PUSH2 0x1521 JUMPI PUSH3 0x278D00 DUP3 MUL SWAP1 DUP3 DUP3 DIV PUSH3 0x278D00 EQ DUP4 ISZERO OR ISZERO PUSH2 0x150D JUMPI SWAP1 PUSH2 0xD6C SWAP2 PUSH2 0xBEF JUMP JUMPDEST TIMESTAMP LT PUSH2 0x14CB JUMPI DUP1 ISZERO DUP1 PUSH2 0x14C0 JUMPI JUMPDEST ISZERO PUSH2 0x14B8 JUMPI PUSH1 0x5 SLOAD JUMPDEST DUP2 ISZERO DUP1 PUSH2 0x14AD JUMPI JUMPDEST ISZERO PUSH2 0x14A4 JUMPI PUSH1 0x7 SLOAD SWAP1 JUMPDEST PUSH2 0xD9F DUP3 DUP3 PUSH2 0xBEF JUMP JUMPDEST PUSH1 0x3 SLOAD PUSH1 0x1 SLOAD PUSH1 0x40 MLOAD PUSH4 0x70A08231 PUSH1 0xE0 SHL DUP2 MSTORE PUSH1 0x1 PUSH1 0x1 PUSH1 0xA0 SHL SUB SWAP2 DUP3 AND PUSH1 0x4 DUP3 ADD DUP2 SWAP1 MSTORE SWAP3 SWAP1 SWAP2 PUSH1 0x20 SWAP2 DUP4 SWAP2 PUSH1 0x24 SWAP2 DUP4 SWAP2 AND GAS STATICCALL SWAP1 DUP2 ISZERO PUSH2 0x12D2 JUMPI SWAP1 DUP4 SWAP2 DUP9 SWAP2 PUSH2 0x146F JUMPI JUMPDEST POP LT PUSH2 0x13F7 JUMPI POP PUSH1 0x3 SLOAD PUSH1 0x1 SLOAD PUSH1 0x40 MLOAD PUSH4 0x6EB1769F PUSH1 0xE1 SHL DUP2 MSTORE PUSH1 0x1 PUSH1 0x1 PUSH1 0xA0 SHL SUB SWAP2 DUP3 AND SWAP3 SWAP1 SWAP2 PUSH1 0x20 SWAP2 DUP4 SWAP2 AND DUP2 DUP1 PUSH2 0xE23 ADDRESS DUP9 PUSH1 0x4 DUP5 ADD PUSH2 0xC87 JUMP JUMPDEST SUB SWAP2 GAS STATICCALL SWAP1 DUP2 ISZERO PUSH2 0x12D2 JUMPI SWAP1 DUP4 SWAP2 DUP9 SWAP2 PUSH2 0x13C2 JUMPI JUMPDEST POP LT PUSH2 0x12DD JUMPI POP PUSH1 0x3 SLOAD PUSH1 0x1 SLOAD PUSH1 0x40 MLOAD PUSH4 0x6EB1769F PUSH1 0xE1 SHL DUP2 MSTORE PUSH1 0x1 PUSH1 0x1 PUSH1 0xA0 SHL SUB SWAP2 DUP3 AND SWAP4 SWAP3 SWAP1 SWAP2 PUSH1 0x20 SWAP2 DUP4 SWAP2 AND DUP2 DUP1 PUSH2 0xE77 ADDRESS DUP10 PUSH1 0x4 DUP5 ADD PUSH2 0xC87 JUMP JUMPDEST SUB SWAP2 GAS STATICCALL SWAP1 DUP2 ISZERO PUSH2 0x12D2 JUMPI DUP8 SWAP2 PUSH2 0x12A0 JUMPI JUMPDEST POP LT PUSH2 0x1267 JUMPI PUSH1 0x2 SLOAD PUSH1 0x1 PUSH1 0x1 PUSH1 0xA0 SHL SUB AND ADDRESS EXTCODESIZE ISZERO PUSH2 0x1263 JUMPI PUSH1 0x40 MLOAD SWAP2 PUSH3 0x72E9D7 PUSH1 0xE7 SHL DUP4 MSTORE PUSH1 0x4 DUP4 ADD MSTORE PUSH1 0x24 DUP3 ADD MSTORE DUP2 PUSH1 0x44 DUP3 ADD MSTORE DUP3 PUSH1 0x64 DUP3 ADD MSTORE DUP5 DUP2 PUSH1 0x84 DUP2 DUP4 ADDRESS GAS CALL SWAP1 DUP2 PUSH2 0x1234 JUMPI JUMPDEST POP PUSH2 0x112B JUMPI POP POP PUSH1 0x1 DUP3 PUSH1 0x3 RETURNDATASIZE GT PUSH2 0x111B JUMPI JUMPDEST PUSH4 0x8C379A0 EQ PUSH2 0xFED JUMPI JUMPDEST PUSH2 0xEFB JUMPI POP POP JUMP JUMPDEST PUSH1 0x1 DUP2 ADD SWAP2 DUP3 DUP3 GT PUSH2 0xFD9 JUMPI PUSH1 0x1 DUP1 PUSH1 0xA0 SHL SUB PUSH1 0x1 SLOAD AND DUP4 PUSH1 0x0 DUP1 MLOAD PUSH1 0x20 PUSH2 0x17F8 DUP4 CODECOPY DUP2 MLOAD SWAP2 MSTORE PUSH1 0x60 PUSH1 0x40 MLOAD PUSH1 0x20 DUP2 MSTORE PUSH1 0x1F PUSH1 0x20 DUP3 ADD MSTORE PUSH32 0x5472616E73666572206661696C65642028756E6B6E6F776E206572726F722900 PUSH1 0x40 DUP3 ADD MSTORE LOG3 DUP2 ISZERO PUSH2 0xF7A JUMPI PUSH1 0x40 SWAP2 DUP2 MSTORE PUSH1 0xE PUSH1 0x20 MSTORE KECCAK256 PUSH1 0x1 PUSH1 0xFF NOT DUP3 SLOAD AND OR SWAP1 SSTORE PUSH1 0xF SSTORE JUMP JUMPDEST DUP1 PUSH1 0x1 SWAP3 PUSH1 0x40 SWAP3 MSTORE PUSH1 0xE PUSH1 0x20 MSTORE KECCAK256 PUSH1 0xFF NOT SWAP1 DUP3 DUP3 DUP3 SLOAD AND OR SWAP1 SSTORE DUP3 PUSH1 0xF SSTORE PUSH1 0xD SLOAD AND OR PUSH1 0xD SSTORE PUSH1 0x0 DUP1 MLOAD PUSH1 0x20 PUSH2 0x1818 DUP4 CODECOPY DUP2 MLOAD SWAP2 MSTORE PUSH1 0x40 PUSH1 0x1 DUP1 PUSH1 0xA0 SHL SUB PUSH1 0x1 SLOAD AND SWAP3 PUSH2 0xFCC PUSH1 0xB SLOAD SWAP2 PUSH1 0x9 SLOAD PUSH2 0xC6B JUMP JUMPDEST DUP3 MLOAD SWAP2 DUP3 MSTORE PUSH1 0x20 DUP3 ADD MSTORE LOG2 JUMP JUMPDEST PUSH4 0x4E487B71 PUSH1 0xE0 SHL DUP2 MSTORE PUSH1 0x11 PUSH1 0x4 MSTORE PUSH1 0x24 SWAP1 REVERT JUMPDEST PUSH2 0xFF5 PUSH2 0xCA1 JUMP JUMPDEST DUP1 PUSH2 0x1001 JUMPI JUMPDEST POP PUSH2 0xEF3 JUMP JUMPDEST DUP4 SWAP2 POP PUSH1 0x1 DUP4 ADD SWAP1 DUP2 DUP5 GT PUSH2 0x1107 JUMPI DUP2 PUSH1 0x0 DUP1 MLOAD PUSH1 0x20 PUSH2 0x17F8 DUP4 CODECOPY DUP2 MLOAD SWAP2 MSTORE PUSH2 0x108A PUSH1 0x1 DUP1 PUSH1 0xA0 SHL SUB PUSH1 0x1 SLOAD AND SWAP4 PUSH2 0x1076 PUSH1 0x31 PUSH1 0x40 MLOAD DUP1 SWAP4 PUSH17 0x2A3930B739B332B9103330B4B632B21D1 PUSH1 0x7D SHL PUSH1 0x20 DUP4 ADD MSTORE PUSH2 0x1066 DUP2 MLOAD DUP1 SWAP3 PUSH1 0x20 DUP7 DUP7 ADD SWAP2 ADD PUSH2 0xB7E JUMP JUMPDEST DUP2 ADD SUB PUSH1 0x11 DUP2 ADD DUP5 MSTORE ADD DUP3 PUSH2 0xC48 JUMP JUMPDEST PUSH1 0x40 MLOAD SWAP2 DUP3 SWAP2 PUSH1 0x20 DUP4 MSTORE PUSH1 0x20 DUP4 ADD SWAP1 PUSH2 0xBA1 JUMP JUMPDEST SUB SWAP1 LOG3 DUP3 ISZERO PUSH2 0x10B3 JUMPI DUP3 DUP5 MSTORE PUSH1 0xE PUSH1 0x20 MSTORE PUSH1 0x40 DUP5 KECCAK256 DUP1 SLOAD PUSH1 0xFF NOT AND PUSH1 0x1 OR SWAP1 SSTORE PUSH1 0xF SSTORE CODESIZE PUSH2 0xFFB JUMP JUMPDEST SWAP3 PUSH1 0x40 SWAP2 POP PUSH1 0x1 SWAP3 DUP2 MSTORE PUSH1 0xE PUSH1 0x20 MSTORE KECCAK256 PUSH1 0xFF NOT SWAP1 DUP3 DUP3 DUP3 SLOAD AND OR SWAP1 SSTORE DUP3 PUSH1 0xF SSTORE PUSH1 0xD SLOAD AND OR PUSH1 0xD SSTORE PUSH1 0x0 DUP1 MLOAD PUSH1 0x20 PUSH2 0x1818 DUP4 CODECOPY DUP2 MLOAD SWAP2 MSTORE PUSH1 0x40 PUSH1 0x1 DUP1 PUSH1 0xA0 SHL SUB PUSH1 0x1 SLOAD AND SWAP3 PUSH2 0xFCC PUSH1 0xB SLOAD SWAP2 PUSH1 0x9 SLOAD PUSH2 0xC6B JUMP JUMPDEST PUSH4 0x4E487B71 PUSH1 0xE0 SHL DUP6 MSTORE PUSH1 0x11 PUSH1 0x4 MSTORE PUSH1 0x24 DUP6 REVERT JUMPDEST POP PUSH1 0x4 DUP4 DUP1 RETURNDATACOPY DUP3 MLOAD PUSH1 0xE0 SHR PUSH2 0xEE8 JUMP JUMPDEST SWAP1 SWAP4 SWAP3 DUP3 DUP2 MSTORE PUSH1 0xE PUSH1 0x20 MSTORE PUSH1 0x40 DUP2 KECCAK256 PUSH1 0x1 PUSH1 0xFF NOT DUP3 SLOAD AND OR SWAP1 SSTORE PUSH1 0x1 DUP4 ADD DUP1 SWAP4 GT PUSH2 0xFD9 JUMPI DUP3 PUSH1 0xF SSTORE PUSH2 0x115F PUSH1 0xB SLOAD PUSH2 0xC78 JUMP JUMPDEST SWAP3 DUP4 PUSH1 0xB SSTORE PUSH2 0x1170 DUP4 PUSH1 0xC SLOAD PUSH2 0xBEF JUMP JUMPDEST SWAP3 DUP4 PUSH1 0xC SSTORE PUSH1 0x9 SLOAD SWAP3 DUP4 DUP4 LT PUSH1 0x0 EQ PUSH2 0x1218 JUMPI PUSH1 0x8 SLOAD PUSH3 0x278D00 DUP5 MUL SWAP2 DUP5 DUP4 DIV PUSH3 0x278D00 EQ DUP6 ISZERO OR ISZERO PUSH2 0xFD9 JUMPI POP PUSH2 0x11D9 SWAP8 SWAP9 PUSH2 0x11BD DUP6 SWAP4 PUSH1 0x0 DUP1 MLOAD PUSH1 0x20 PUSH2 0x17D8 DUP4 CODECOPY DUP2 MLOAD SWAP2 MSTORE SWAP4 PUSH2 0xBEF JUMP JUMPDEST SWAP4 JUMPDEST PUSH1 0x1 DUP1 PUSH1 0xA0 SHL SUB PUSH1 0x2 SLOAD AND SWAP10 DUP11 SWAP6 PUSH1 0x40 MLOAD SWAP4 DUP5 SWAP4 DUP5 PUSH2 0xB68 JUMP JUMPDEST SUB SWAP1 LOG3 EQ PUSH2 0x11E6 JUMPI POP POP POP JUMP JUMPDEST PUSH32 0xB3CA1C952ACFAA0CE116B82DF50BA6ECA680E859F7CCA23B684BA04848C6D6D5 SWAP2 PUSH1 0x40 SWAP2 DUP3 MLOAD SWAP2 DUP3 MSTORE PUSH1 0x20 DUP3 ADD MSTORE LOG2 JUMP JUMPDEST PUSH1 0x0 DUP1 MLOAD PUSH1 0x20 PUSH2 0x17D8 DUP4 CODECOPY DUP2 MLOAD SWAP2 MSTORE PUSH2 0x11D9 SWAP8 SWAP9 DUP5 SWAP3 SWAP4 PUSH2 0x11BF JUMP JUMPDEST SWAP1 SWAP5 SWAP1 PUSH1 0x1 PUSH1 0x1 PUSH1 0x40 SHL SUB DUP2 GT PUSH2 0x124F JUMPI PUSH1 0x40 MSTORE SWAP4 CODESIZE PUSH2 0xED5 JUMP JUMPDEST PUSH4 0x4E487B71 PUSH1 0xE0 SHL DUP3 MSTORE PUSH1 0x41 PUSH1 0x4 MSTORE PUSH1 0x24 DUP3 REVERT JUMPDEST DUP6 DUP1 REVERT JUMPDEST PUSH1 0x40 MLOAD PUSH3 0x461BCD PUSH1 0xE5 SHL DUP2 MSTORE PUSH1 0x20 PUSH1 0x4 DUP3 ADD MSTORE PUSH1 0x11 PUSH1 0x24 DUP3 ADD MSTORE PUSH17 0x414C4C4F57414E43455F544F4F5F4C4F57 PUSH1 0x78 SHL PUSH1 0x44 DUP3 ADD MSTORE PUSH1 0x64 SWAP1 REVERT JUMPDEST SWAP1 POP PUSH1 0x20 DUP2 RETURNDATASIZE PUSH1 0x20 GT PUSH2 0x12CA JUMPI JUMPDEST DUP2 PUSH2 0x12BB PUSH1 0x20 SWAP4 DUP4 PUSH2 0xC48 JUMP JUMPDEST DUP2 ADD SUB SLT PUSH2 0x981 JUMPI MLOAD CODESIZE PUSH2 0xE89 JUMP JUMPDEST RETURNDATASIZE SWAP2 POP PUSH2 0x12AE JUMP JUMPDEST PUSH1 0x40 MLOAD RETURNDATASIZE DUP10 DUP3 RETURNDATACOPY RETURNDATASIZE SWAP1 REVERT JUMPDEST SWAP5 SWAP4 SWAP3 POP POP POP PUSH1 0x1 DUP2 ADD SWAP3 DUP4 DUP3 GT PUSH2 0x13AE JUMPI DUP4 PUSH1 0x0 DUP1 MLOAD PUSH1 0x20 PUSH2 0x17F8 DUP4 CODECOPY DUP2 MLOAD SWAP2 MSTORE PUSH1 0x60 PUSH1 0x40 MLOAD PUSH1 0x20 DUP2 MSTORE PUSH1 0x16 PUSH1 0x20 DUP3 ADD MSTORE PUSH22 0x496E73756666696369656E7420616C6C6F77616E6365 PUSH1 0x50 SHL PUSH1 0x40 DUP3 ADD MSTORE LOG3 DUP1 ISZERO PUSH2 0x135C JUMPI PUSH1 0x40 SWAP3 POP DUP2 MSTORE PUSH1 0xE PUSH1 0x20 MSTORE KECCAK256 PUSH1 0x1 PUSH1 0xFF NOT DUP3 SLOAD AND OR SWAP1 SSTORE PUSH2 0x1357 PUSH1 0xF SLOAD PUSH2 0xC78 JUMP JUMPDEST PUSH1 0xF SSTORE JUMP JUMPDEST DUP2 PUSH1 0x40 SWAP2 PUSH1 0x1 SWAP4 MSTORE PUSH1 0xE PUSH1 0x20 MSTORE KECCAK256 PUSH1 0xFF NOT SWAP1 DUP3 DUP3 DUP3 SLOAD AND OR SWAP1 SSTORE DUP3 PUSH1 0xF SSTORE PUSH1 0xD SLOAD AND OR PUSH1 0xD SSTORE PUSH1 0x0 DUP1 MLOAD PUSH1 0x20 PUSH2 0x1818 DUP4 CODECOPY DUP2 MLOAD SWAP2 MSTORE PUSH1 0x40 PUSH1 0x1 DUP1 PUSH1 0xA0 SHL SUB PUSH1 0x1 SLOAD AND SWAP3 PUSH2 0xFCC PUSH1 0xB SLOAD SWAP2 PUSH1 0x9 SLOAD PUSH2 0xC6B JUMP JUMPDEST PUSH4 0x4E487B71 PUSH1 0xE0 SHL DUP4 MSTORE PUSH1 0x11 PUSH1 0x4 MSTORE PUSH1 0x24 DUP4 REVERT JUMPDEST SWAP2 POP POP PUSH1 0x20 DUP2 RETURNDATASIZE PUSH1 0x20 GT PUSH2 0x13EF JUMPI JUMPDEST DUP2 PUSH2 0x13DE PUSH1 0x20 SWAP4 DUP4 PUSH2 0xC48 JUMP JUMPDEST DUP2 ADD SUB SLT PUSH2 0x981 JUMPI DUP3 SWAP1 MLOAD CODESIZE PUSH2 0xE38 JUMP JUMPDEST RETURNDATASIZE SWAP2 POP PUSH2 0x13D1 JUMP JUMPDEST SWAP5 SWAP4 SWAP3 POP POP POP PUSH1 0x1 DUP2 ADD SWAP3 DUP4 DUP3 GT PUSH2 0x13AE JUMPI DUP4 PUSH1 0x0 DUP1 MLOAD PUSH1 0x20 PUSH2 0x17F8 DUP4 CODECOPY DUP2 MLOAD SWAP2 MSTORE PUSH1 0x60 PUSH1 0x40 MLOAD PUSH1 0x20 DUP2 MSTORE PUSH1 0x14 PUSH1 0x20 DUP3 ADD MSTORE PUSH20 0x496E73756666696369656E742062616C616E6365 PUSH1 0x60 SHL PUSH1 0x40 DUP3 ADD MSTORE LOG3 DUP1 ISZERO PUSH2 0x135C JUMPI PUSH1 0x40 SWAP3 POP DUP2 MSTORE PUSH1 0xE PUSH1 0x20 MSTORE KECCAK256 PUSH1 0x1 PUSH1 0xFF NOT DUP3 SLOAD AND OR SWAP1 SSTORE PUSH2 0x1357 PUSH1 0xF SLOAD PUSH2 0xC78 JUMP JUMPDEST SWAP2 POP POP PUSH1 0x20 DUP2 RETURNDATASIZE PUSH1 0x20 GT PUSH2 0x149C JUMPI JUMPDEST DUP2 PUSH2 0x148B PUSH1 0x20 SWAP4 DUP4 PUSH2 0xC48 JUMP JUMPDEST DUP2 ADD SUB SLT PUSH2 0x981 JUMPI DUP3 SWAP1 MLOAD CODESIZE PUSH2 0xDE5 JUMP JUMPDEST RETURNDATASIZE SWAP2 POP PUSH2 0x147E JUMP JUMPDEST PUSH1 0x6 SLOAD SWAP1 PUSH2 0xD95 JUMP JUMPDEST POP PUSH1 0x5 SLOAD ISZERO ISZERO PUSH2 0xD8B JUMP JUMPDEST PUSH1 0x4 SLOAD PUSH2 0xD83 JUMP JUMPDEST POP PUSH1 0x5 SLOAD ISZERO ISZERO PUSH2 0xD7A JUMP JUMPDEST PUSH1 0x40 MLOAD PUSH3 0x461BCD PUSH1 0xE5 SHL DUP2 MSTORE PUSH1 0x20 PUSH1 0x4 DUP3 ADD MSTORE PUSH1 0x1A PUSH1 0x24 DUP3 ADD MSTORE PUSH26 0x151BDBC819585C9B1E48199BDC881D1A1A5CC81C185E5B595B9D PUSH1 0x32 SHL PUSH1 0x44 DUP3 ADD MSTORE PUSH1 0x64 SWAP1 REVERT JUMPDEST PUSH4 0x4E487B71 PUSH1 0xE0 SHL DUP5 MSTORE PUSH1 0x11 PUSH1 0x4 MSTORE PUSH1 0x24 DUP5 REVERT JUMPDEST PUSH1 0x40 MLOAD PUSH3 0x461BCD PUSH1 0xE5 SHL DUP2 MSTORE PUSH1 0x20 PUSH1 0x4 DUP3 ADD MSTORE PUSH1 0x1B PUSH1 0x24 DUP3 ADD MSTORE PUSH27 0x151A1A5CC81B5BDB9D1A08185B1C9958591E48195E1958DD5D1959 PUSH1 0x2A SHL PUSH1 0x44 DUP3 ADD MSTORE PUSH1 0x64 SWAP1 REVERT JUMPDEST PUSH1 0x40 MLOAD PUSH3 0x461BCD PUSH1 0xE5 SHL DUP2 MSTORE PUSH1 0x20 PUSH1 0x4 DUP3 ADD MSTORE PUSH1 0x1D PUSH1 0x24 DUP3 ADD MSTORE PUSH32 0x416C6C207061796D656E7420706572696F647320636F6D706C65746564000000 PUSH1 0x44 DUP3 ADD MSTORE PUSH1 0x64 SWAP1 REVERT JUMPDEST PUSH1 0x40 MLOAD PUSH3 0x461BCD PUSH1 0xE5 SHL DUP2 MSTORE PUSH1 0x20 PUSH1 0x4 DUP3 ADD MSTORE PUSH1 0x17 PUSH1 0x24 DUP3 ADD MSTORE PUSH23 0x14185E5B595B9D081B9BDD081CDD185C9D1959081E595D PUSH1 0x4A SHL PUSH1 0x44 DUP3 ADD MSTORE PUSH1 0x64 SWAP1 REVERT JUMPDEST PUSH1 0x40 MLOAD PUSH3 0x461BCD PUSH1 0xE5 SHL DUP2 MSTORE PUSH1 0x20 PUSH1 0x4 DUP3 ADD MSTORE PUSH1 0x11 PUSH1 0x24 DUP3 ADD MSTORE PUSH17 0x14185E5B595B9D0818D85B98D95B1B1959 PUSH1 0x7A SHL PUSH1 0x44 DUP3 ADD MSTORE PUSH1 0x64 SWAP1 REVERT JUMPDEST PUSH1 0x2 PUSH1 0x0 SLOAD EQ PUSH2 0x1632 JUMPI PUSH1 0x2 PUSH1 0x0 SSTORE JUMP JUMPDEST PUSH1 0x40 MLOAD PUSH4 0x3EE5AEB5 PUSH1 0xE0 SHL DUP2 MSTORE PUSH1 0x4 SWAP1 REVERT JUMPDEST PUSH1 0xFF PUSH1 0xD SLOAD AND PUSH2 0x1696 JUMPI PUSH1 0xF SLOAD PUSH1 0x9 SLOAD DUP2 LT ISZERO PUSH2 0x1690 JUMPI PUSH1 0x8 SLOAD SWAP1 PUSH3 0x278D00 SWAP1 DUP2 DUP2 MUL SWAP2 DUP2 DUP4 DIV EQ SWAP1 ISZERO OR ISZERO PUSH2 0xBD9 JUMPI PUSH2 0x167D SWAP2 PUSH2 0xBEF JUMP JUMPDEST DUP1 TIMESTAMP LT ISZERO PUSH2 0x1690 JUMPI PUSH2 0xCFE SWAP1 TIMESTAMP SWAP1 PUSH2 0xC6B JUMP JUMPDEST POP PUSH1 0x0 SWAP1 JUMP JUMPDEST PUSH1 0x0 SWAP1 JUMP JUMPDEST PUSH1 0xFF PUSH1 0xD SLOAD AND PUSH2 0x175E JUMPI PUSH1 0xF SLOAD SWAP1 PUSH1 0x9 SLOAD DUP1 DUP4 LT ISZERO PUSH2 0x170C JUMPI DUP3 PUSH2 0x16BE SWAP2 PUSH2 0xC6B JUMP JUMPDEST SWAP1 PUSH1 0xB SLOAD SWAP3 DUP4 PUSH1 0x0 SWAP2 DUP2 DUP2 GT PUSH1 0x0 EQ PUSH2 0x1705 JUMPI PUSH2 0x16DB SWAP3 POP PUSH2 0xC6B JUMP JUMPDEST PUSH1 0xC SLOAD SWAP2 PUSH1 0x40 MLOAD PUSH2 0x16EB DUP2 PUSH2 0xC2D JUMP JUMPDEST PUSH1 0x6 DUP2 MSTORE PUSH6 0x616374697665 PUSH1 0xD0 SHL PUSH1 0x20 DUP3 ADD MSTORE SWAP5 SWAP4 SWAP3 SWAP2 SWAP1 JUMP JUMPDEST POP POP PUSH2 0x16DB JUMP JUMPDEST PUSH1 0xB SLOAD SWAP3 POP PUSH1 0x0 SWAP1 DUP4 SWAP1 DUP2 DUP2 GT ISZERO PUSH2 0x1757 JUMPI PUSH2 0x1728 SWAP3 POP PUSH2 0xC6B JUMP JUMPDEST PUSH1 0xC SLOAD SWAP1 PUSH1 0x40 MLOAD PUSH2 0x1738 DUP2 PUSH2 0xC2D JUMP JUMPDEST PUSH1 0x9 DUP2 MSTORE PUSH9 0x18DBDB5C1B195D1959 PUSH1 0xBA SHL PUSH1 0x20 DUP3 ADD MSTORE SWAP4 SWAP3 PUSH1 0x0 SWAP3 SWAP2 SWAP1 JUMP JUMPDEST POP POP PUSH2 0x1728 JUMP JUMPDEST PUSH1 0xF SLOAD SWAP1 PUSH1 0x9 SLOAD DUP3 PUSH1 0x0 SWAP2 DUP1 DUP3 LT PUSH1 0x0 EQ PUSH2 0x17CF JUMPI PUSH2 0x177D SWAP3 POP PUSH2 0xC6B JUMP JUMPDEST SWAP1 JUMPDEST PUSH1 0xB SLOAD SWAP3 DUP4 PUSH1 0x0 SWAP2 DUP2 DUP2 GT PUSH1 0x0 EQ PUSH2 0x17C8 JUMPI PUSH2 0x179B SWAP3 POP PUSH2 0xC6B JUMP JUMPDEST PUSH1 0xC SLOAD SWAP2 PUSH1 0x40 MLOAD PUSH2 0x17AB DUP2 PUSH2 0xC2D JUMP JUMPDEST PUSH1 0x9 DUP2 MSTORE PUSH9 0x18D85B98D95B1B1959 PUSH1 0xBA SHL PUSH1 0x20 DUP3 ADD MSTORE SWAP5 SWAP4 SWAP3 SWAP2 SWAP1 JUMP JUMPDEST POP POP PUSH2 0x179B JUMP JUMPDEST POP POP SWAP1 PUSH2 0x177F JUMP INVALID PUSH28 0x1404BDB91DC49F5AE076071F80AF302753BD5D3B299861DE66F56A82 DUP7 MLOAD 0xBE 0xC5 PUSH29 0xC88C889BA5082585C741ABC3E2081475633A94F4706B2FA9652ABB08B5 DUP15 PUSH2 0xB9C3 RETURNDATACOPY 0xE 0x4D MUL 0xB2 AND 0x2F 0xC1 PUSH12 0x3687513680C424835FCEAEC6 0xD6 0x26 CALLDATACOPY 0xB8 DIV DUP14 0xD8 PUSH23 0xA164736F6C6343000814000ACCBA8AA02E1AEE0FF839B5 0xD1 CALLDATASIZE CREATE2 0xB2 SLOAD 0xA5 PUSH17 0xD25E1C7C3FC0C4956EF90BAA15834D5B50 0x25 LOG4 0xC DUP9 0x5C 0xC1 0xEE RETURNDATASIZE 0xF SWAP1 STATICCALL 0xEB DUP15 CALLDATACOPY 0xEF SLT ADDRESS CHAINID 0x23 RETURNDATACOPY MUL 0x2A PUSH22 0xD3193724C134F0E2EF43BEBD43456AD90B67B13E894A 0x4D CODESIZE 0xAE 0xCF 0x23 0xCB 0x2C 0xC 0xB6 0xDB 0xE6 DUP2 SWAP11 0x2C SHL SWAP13 LOG1 PUSH5 0x736F6C6343 STOP ADDMOD EQ STOP EXP "},"methodIdentifiers":{"BASIS_POINTS_DENOMINATOR()":"cfa498a3","FACTORY_OWNER()":"5935cbfe","FEE_BASIS_POINTS()":"a525ad3c","PROTOCOL_WALLET()":"767edb63","adminCancel(address)":"242402ec","adminExecutePayment(address)":"b57ce933","createBatchRecurringPaymentERC20(address,address[],uint256[],uint256,uint256,uint256)":"dff94363","createRecurringPaymentERC20(address,address,uint256,uint256,uint256,uint256)":"83233efd","createRecurringPaymentERC20_V2(address,address,uint256,uint256,uint256,uint256,uint256)":"3c3670f4","previewFeePerMonth(uint256)":"6ebf178f"}}}}}